:020000040800F2
:10000000701000203102000835160008750C000839
:1000100031160008F50800080F1F00080000000056
:10002000000000000000000000000000851A000829
:100030005D09000800000000C51600089D1B0008AF
:100040004B0200084B0200084B020008A5180008EC
:100050004B0200084B0200084B0200084B0200084C
:100060004B0200084B0200084B0200084B0200083C
:100070004B0200084B0200084B0200084B0200082C
:100080004B0200084B0200084B0200084B0200081C
:100090004B0200084B0200084B0200084B0200080C
:1000A0004B0200084B0200084B0200084B020008FC
:1000B0004B0200084B0200084B0200084B020008EC
:1000C0004B0200084B0200084B0200084B020008DC
:1000D0004B020008811C00084B020008091D0008A3
:1000E0004B020008311800084B0200084B020008C0
:1000F0004B0200084B0200084B0200084B020008AC
:100100004B020008FD1800084B0200084B020008D3
:100110004B0200084B0200084B020008091C0008B3
:100120004B0200084B0200084B0200084B0200087B
:100130004B0200084B0200084B0200084B0200086B
:100140004B0200084B0200084B0200084B0200085B
:100150004B0200084B0200084B0200084B0200084B
:100160004B0200084B0200084B0200084B0200083B
:100170004B0200084B0200084B0200084B0200082B
:100180004B0200084B02000800F002F800F041F8B2
:100190000AA090E8000C82448344AAF10107DA45E2
:1001A00001D100F036F8AFF2090EBAE80F0013F0F3
:1001B000010F18BFFB1A43F0010318478C420000DF
:1001C000AC420000103A24BF78C878C1FAD8520770
:1001D00024BF30C830C144BF04680C6070470000C1
:1001E0000023002400250026103A28BF78C1FBD840
:1001F000520728BF30C148BF0B607047782900F014
:10020000AE80002070471FB502F01BFD1FBD10B56A
:1002100010BD00F019FA1146FFF7F5FF01F018FFC5
:1002200000F037FA03B4FFF7F2FF03BC01F078FEE9
:100230000948804709480047FEE7FEE7FEE7FEE77A
:10024000FEE7FEE7FEE7FEE7FEE7FEE704480549B6
:10025000054A064B70470000A11B000889010008F1
:10026000700A002070100020700C0020700C00201C
:10027000704700000FB4044910B503AA029800F0BB
:10028000CDF910BC5DF814FB140000200FB41CB5B0
:10029000084B06AA7B4469460090059800F0A5F932
:1002A00004460020694600F0B3F920461CBC5DF806
:1002B00014FB00007903000070B5044685690068EE
:1002C000C10601D5302600E02026C00707D070BD4A
:1002D000D4E9012130469047206A401C20626D1EFF
:1002E000F6D570BD70B5044685690078C00707D1A2
:1002F00070BDD4E9012120209047206A401C206273
:100300006D1EF6D570BD0000F0B40D4601880905DC
:1003100002D5214C7C4402E01F4C7C440E34002169
:1003200000F1240608E002F00F071209E75D42EA37
:1003300003721B097754491C52EA0307F3D1027870
:100340000023120704D5702D06D009B10223113401
:100350002246F0BC00F0EAB801231034F8E770B58B
:1003600004460D4621461068AFF300800246294638
:100370002046BDE870400023C6E7D21D22F00703E7
:10038000D3E90023C0E70368126843F02003036049
:100390000823C3610023B7E7F44000002DE9F05FB4
:1003A000894604464FF0000ADFF874B1FB44C0F8F8
:1003B00020A02046E1688847002874D0252806D070
:1003C000D4E901219047206A401C2062F1E7002611
:1003D0005F462046E16888472028054607DB312D27
:1003E00005D2781910F8200C08B10643F1E7B007E0
:1003F00001D526F00406C4F81CA00027C4F818A0F4
:100400002A2D09D0284601F084FD38B304EB870873
:10041000303DC8F8185019E059F8041B204604EB89
:1004200087029161E1688847012F054618D1E0698C
:10043000002820DA26F020061DE0D8F8180000EB8E
:10044000800005EB40003038C8F818002046E1680D
:100450008847054601F05DFD0028EED1012F0AD046
:100460002E2D08D12046E16888477F1C0546022FC3
:1004700046F02006C4DBA069002803DA404246F0BB
:100480000106A061F00701D026F010066C2D0BD0FC
:10049000682D09D04C2D39D06A2D35D0742D35D02A
:1004A0007A2D33D016E038E0E1682F4620468847A1
:1004B000B842054609D16C2F26D04FF48060E16820
:1004C000064320468847054604E06C2F1AD04FF4B7
:1004D000807006430DB3A5F14100192802D82035DC
:1004E00046F400664A462946204626604E46FFF7F7
:1004F00085FE80B101280BD0F61D26F0070000F123
:10050000080956E74020E4E78020D8E70020D6E736
:1005100006F104094DE7284652E7206ABDE8F09F3E
:100520008440000070477047704770472DE9F047DE
:100530000D4699469246044600F124080168880653
:1005400004D5E06921F01001216000E00120A842FB
:1005500001DD471B00E00027A1697A1902EB0900C1
:10056000081AA0612078C00602D42046FFF7A4FE36
:10057000002608E0D4E901211AF806009047206A15
:10058000401C761C20624E45F4DB2078C0060AD55C
:100590002046FFF791FE06E0D4E901213020904784
:1005A000206A401C2062381EA7F10107F4DC07E036
:1005B000D4E9012118F805009047206A401C206208
:1005C000281EA5F10105F3DC2046FFF78BFE2078FD
:1005D000000602D50220BDE8F0870120FBE70000FD
:1005E00001694A1C02610878704700B58FB0CDE9F7
:1005F00001310021059105497944CDE903101146E7
:100600006846FFF7CBFE0FB000BD0000E5FFFFFF1F
:100610000A6802F8010B0A6070470000074B70B5CA
:100620000D467B44FFF7E1FF0446284600F008F83A
:1006300010B14FF0FF3070BD204670BD0F1A0000A2
:10064000007B00F080007047754600F029F8AE4648
:1006500005006946534620F00700854618B020B5CE
:10066000FFF7F4FDBDE820404FF000064FF0000713
:100670004FF000084FF0000B21F00701AC46ACE84A
:10068000C009ACE8C009ACE8C009ACE8C0098D46B7
:1006900070470446AFF300802046FFF7C3FD00001B
:1006A00000487047100A002021B1826842F0010220
:1006B000826003E0826822F00102826070470000DD
:1006C0000021084A1168084A1140D0E900231A4362
:1006D00083681A43C3681A431143044AC2F80413D7
:1006E0007047000004230140E030FCFF002001407F
:1006F0000146C86C80B270470246002013680B4068
:100700000BB1012000E000207047000030B5024628
:10071000002000235068104C20400D790C6844EAFA
:1007200005242043506090680C4C2040D1E90354CC
:100730002C438D682C434D7944EA45042043906056
:10074000D06A20F470000C7D641EE4B2234340EABA
:100750000350D06230BD0000FFFEFFFCFDF7FFC07C
:10076000F0B504460D4600200021092D11DDE0689A
:10077000A5F10A0606EB4607072606FA07F18843A5
:10078000A5F10A0606EB460603FA06F10843E06007
:100790000CE0206905EB4507072606FA07F18843B8
:1007A00005EB450603FA06F108432061072A0FDA34
:1007B000606B561E06EB86071F2606FA07F1884374
:1007C000561E06EB860605FA06F10843606322E032
:1007D0000D2A0FDA206BD61F06EB86071F2606FAB6
:1007E00007F18843D61F06EB860605FA06F1084393
:1007F000206310E0E06AA2F10D0606EB86071F26D3
:1008000006FA07F18843A2F10D0606EB860605FA03
:1008100006F10843E062F0BD816841F080418160EB
:100820007047000038B10849096841F40001074ADF
:10083000C2F8041306E00449096821F40001034AE0
:10084000C2F8041370470000042301400020014057
:1008500000B58DB00121084600F036FF01210802E5
:1008600000F052FF20200B9003208DF83000012073
:100870008DF833000BA91D4800F005F9012108028D
:1008800000F052FF00214FF4807000F04DFF012076
:10089000FFF7C8FF002007900A9009904FF48030BE
:1008A000089007A8FFF70CFF002001908DF80800C2
:1008B0008DF809000390059001208DF8180001A91A
:1008C0000B48FFF723FF0723012205210848FFF704
:1008D00047FF0723012210210548FFF741FF0121AF
:1008E0000348FFF7E1FE0DB000BD0000000002402C
:1008F0000020014000BFFEE770B5044605E0164841
:10090000056805F0450000B100E0F8E700BF0420ED
:1009100000F0E8FF20B1042000F0DEFF032070BDEE
:10092000012000F0DFFF20B1012000F0D5FF012001
:10093000F5E7094824380068A04201D01020EEE70E
:1009400040F2FF5000F0C8FF03482038006808213B
:100950000840C0B2E3E70000342C014070470000BB
:100960000149086070470000143C014051B1820009
:10097000A2F1C042126842F001038200A2F1C0421B
:10098000136009E08200A2F1C0421268034B1A40D2
:100990008300A3F1C0431A6070470000FEFF0F0000
:1009A000D0E901121143C26811430269114342693F
:1009B000114382691143C2691143026A1143426AB9
:1009C0001143826A1143C26A1143026B11430268E8
:1009D0009200A2F1C0421160816808290BD1016820
:1009E0008900A1F1C041096841F040020168890015
:1009F000A1F1C0410A60416B0968426B526841EA4B
:100A00000211426B926841EA0221426B928941EAEB
:100A10000241426B128A41EA0251426B127D41EA65
:100A20000261426B926911430268521C9200A2F16A
:100A3000C0421160C16AB1F5804F1BD1816B09685A
:100A4000826B526841EA0211826B926841EA02218C
:100A5000826B128A41EA0251826B127D41EA026185
:100A6000826B9269114302689200A2F1C042C2F8FF
:100A7000041107E06FF0704201688900A1F1C041E4
:100A8000C1F804217047F0B50A4600210023002474
:100A900000BF3DE0012505FA01F3156805EA0304EE
:100AA0009C4234D105684F000326BE40B543056023
:100AB00015794E00B5400668354305601579012D5E
:100AC00002D01579022D16D185684F000326BE404D
:100AD000B543856055794E00B540866835438560DD
:100AE000456801268E40B5434560456896798E403D
:100AF000B6B235434560C5684F000326BE40B543D6
:100B0000C560D5794E00B540C6683543C560491CFF
:100B10001029BFD3F0BDF0B5002300244D07ED0E22
:100B200002FA05F3CE1000F1200555F826504E07C5
:100B3000F70E0F26BE40B543CF1000F1200646F851
:100B40002750CE1000F1200555F8265045EA030441
:100B5000CE1000F1200545F82640F0BD0183704716
:100B600010B504460723012221460848FFF7F8FD87
:100B70000648FFF751FE00BF02210448FFF7BCFD05
:100B80000028F9D00148FFF7B3FD10BD0020014057
:100B90002DE9F04107460C460025002608E03846BE
:100BA000FFF7DEFF0544052001F0DCF9701CC6B23A
:100BB000A642F4DBB5FBF4F080B2BDE8F0810000A2
:100BC00010B52DED088B0A211020FFF7E1FF08EE8C
:100BD000100AB8EE480A10EE100A01F0C1FF41EC0D
:100BE0001A0B9FED1A0B53EC102B01F0D1FD41ECC9
:100BF000190B9FED180B53EC102B51EC190B01F056
:100C0000C5FE41EC1B0B9FED150B53EC102B01F0B7
:100C100037FC41EC1A0B9FED130B53EC102B01F03A
:100C200087FB41EC190B9FED110B53EC102B51EC92
:100C3000190B01F0ADFD41EC190B41EC1A0B01F061
:100C400077FD04B22046BDEC088B10BD6666666673
:100C500066664A3F52B81E85EB51E83F7B14AE47AB
:100C6000E17A643F0000000000003940000000000D
:100C70000000594000BFFEE770B504460026174843
:100C80000588408845431548808846F60401884217
:100C900016D112488079012812D100200F4988719D
:100CA0002A2048812B2088810021084600F02EFB55
:100CB00001200A4988712B2048812A20888103E07D
:100CC0000021084600F022FB00F07EFC002602E036
:100CD00003480480761CAE42FAD370BDFC000020AD
:100CE0008000006C10B504462C20084908812A2099
:100CF00048812B2088814FF4A07008804FF4F07059
:100D00004880002000F0A8FA10BD0000FC00002080
:100D100030B504460D461449488900F049FC2012BC
:100D200000F03AFCE0B200F037FC201200F034FC96
:100D3000E0B200F031FC0C49888900F039FC28123F
:100D400000F02AFCE8B200F027FC281200F024FC96
:100D5000E8B200F021FC04480089044908804FF003
:100D6000D840A0F8802030BDFC0000207E00006C40
:100D700000B5A1B00020209001217A2000F0A4FC51
:100D80000121084600F0B0FC4FF400401E90012005
:100D90008DF87C0000208DF87E0002208DF87D000B
:100DA00001208DF87F001EA9FE48FFF76CFE4CF273
:100DB00033701E9002208DF87C0000208DF87E009C
:100DC00003208DF87D0001208DF87F001EA9F648D4
:100DD000FFF759FE4FF680701E9002208DF87C00C0
:100DE00000208DF87E0003208DF87D0001208DF815
:100DF0007F001EA9ED48FFF746FE4FF480501E907D
:100E000002208DF87C0000208DF87E0003208DF8F4
:100E10007D0001208DF87F001EA9E548FFF733FE15
:100E20004FF480501E9002208DF87C0000208DF839
:100E30007E0003208DF87D0001208DF87F001EA923
:100E4000DC48FFF720FE0C220021D748FFF763FEA5
:100E50000C220121D448FFF75EFE0C220421D24867
:100E6000FFF759FE0C220521CF48FFF754FE0C2254
:100E70000821CD48FFF74FFE0C220921CA48FFF791
:100E80004AFE0C220A21C848FFF745FE0C220E211B
:100E9000C548FFF740FE0C220F21C348FFF73BFE79
:100EA0000C220721C148FFF736FE0C220821BF485B
:100EB000FFF731FE0C220921BC48FFF72CFE0C2263
:100EC0000A21BA48FFF727FE0C220B21B748FFF78B
:100ED00022FE0C221146B548FFF71DFE0C220D2103
:100EE000B248FFF718FE0C220E21B048FFF713FEA0
:100EF0000C220F21AD48FFF70EFE0C221146AC4824
:100F0000FFF709FE0C221146AA48FFF704FE0F2046
:100F10000890002009903C200A9000200B900C9033
:100F20000D900E900920019000200290082003905F
:100F30000020049005900690079006200F90002056
:100F40001090119010201290002013901590149082
:100F5000169017904FF480501890002019904FF47D
:100F600080401A9000201B9008A81C9001A81D909A
:100F70000FA8FFF715FD01210620FFF7F7FC32202F
:100F800000F0F0FF0121002000F028FB322000F0EB
:100F9000E9FF002000F054F987498880D32000F051
:100FA00007FB00F043F98449888000F03FF982494B
:100FB000888000F03BF980498880084680884FF699
:100FC000FF7101EA00207C49888000F02FF97A49FE
:100FD00089880843784988800846808849F2884192
:100FE00088421CD17548006820F00F004FF0204166
:100FF000C1F81C010846D0F81C0120F47060C1F84B
:101000001C010846D0F81C0140F00300C1F81C0187
:101010000846D0F81C0140F40070C1F81C01664875
:10102000818867A0FFF726F96348808849F28841E4
:1010300088427CD1E02000F0BBFA002000F0ACFA3E
:10104000072000F0A9FA102000F0A6FA092000F00D
:10105000A3FA172000F0A0FA0B2000F09DFA41201F
:1010600000F09AFA892000F097FA4B2000F094FAE9
:101070000A2000F091FA0C2000F08EFA0E2000F009
:101080008BFA182000F088FA1B2000F085FA0F2058
:1010900000F082FAE12000F08BFA002000F07CFAE8
:1010A000172000F079FA1A2000F076FA042000F0F8
:1010B00073FA0E2000F070FA062000F06DFA2F206F
:1010C00000F06AFA452000F067FA432000F064FA65
:1010D000022000F061FA0A2000F05EFA092000F018
:1010E0005BFA322000F058FA362000F055FA0F2053
:1010F00000F052FAC02000F05BFA112000F04CFA28
:10110000092000F049FAC12000F052FA412000F015
:1011100043FAC52000F04CFA002000F03DFA0A2006
:1011200000F03AFA802000F037FA362000E063E061
:1011300000F03EFA482000F02FFA3A2000F038FA8A
:10114000552000F029FAB02000F032FA002000F01B
:1011500023FAB12000F02CFAB02000F01DFA112083
:1011600000F01AFAB42000F023FA022000F014FA7A
:10117000B62000F01DFA022000F00EFA222000F046
:101180000BFAE92000F014FA002000F005FAF7202D
:1011900000F00EFAA92000F0FFF9512000F0FCF950
:1011A0002C2015E000040240000C02400010024018
:1011B0000014024000180240FC0000201C0100A0A6
:1011C000204C43442049443A25780D0A0000000091
:1011D00000F0E2F9822000F0DFF9212000F0E8F9C8
:1011E000112000F0E5F9782000F0BCFE292000F085
:1011F000DFF92C2000F0DCF90020FFF773FD01205F
:10120000034908604FF6FF70FFF736FD21B000BDBF
:10121000BC82404210B50246012000E050430B0062
:10122000A1F10104E1B2F9D110BD000008B50348F5
:1012300000880090BDF8000008BD00008000006C30
:1012400010B50446204600F0B3F9052000F0A6FED4
:10125000FFF7ECFF10BD000070B505460024002626
:10126000082D1AD2DFE805F00406090C0F12151834
:1012700000BF12E044F080040FE044F040040CE0B2
:1012800044F0C00409E044F0200406E044F06004A7
:1012900003E044F0A00400E000BF00BF36261A4976
:1012A000488900F085F9002000F076F9002000F070
:1012B00073F915490988491EC1F30F2000F06CF934
:1012C00011490978491EC8B200F066F90E498889AB
:1012D00000F06EF9002000F05FF9002000F05CF9EA
:1012E00009494988491EC1F30F2000F055F9064904
:1012F0008978491EC8B200F04FF944F48054214661
:10130000304600F06BF970BDFC00002010B50246BD
:101310000C460D49488900F04BF9082A01DD0121EE
:1013200000E00021084600F037F9D0B200F034F9AF
:101330000549888900F03CF9201200F02DF9E0B24F
:1013400000F02AF910BD0000FC0000202DE9F84F44
:1013500080460E4617461C46B3462046E31704EB6C
:101360005373DB1021464FEAE47C04EB5C7C4FEACC
:10137000EC0CA4EBCC0CBCF1000F02D04FF0010C34
:1013800001E04FF0000C6344224604EBD27C4FEAAC
:101390006C0C03FB0CF3DBB20093A7F12000C7B287
:1013A000002556E00C2C07D107EB47002B4901EB39
:1013B000800010F8059013E0102C05D1284800EBB0
:1013C000071010F805900BE0182C07D107EBC700A9
:1013D000244901EB800010F8059001E0BDE8F88F8A
:1013E0004FF0000A2FE009F0800030B11E4802885B
:1013F00031464046FFF78CFC07E00A9828B91B48A5
:10140000028831464046FFF783FC4FEA49604FEAC5
:101410001069701C86B216484088B04200DCDDE7D7
:10142000A6EB0B00A0420AD15E4608F101001FFAAC
:1014300080F80F480088404500DCCFE706E00AF15D
:10144000010000F0FF0ABAF1080FCCDB00BF681CF6
:10145000C5B200988542A5DB00BFBFE74C2C000851
:10146000C0300008B03600081A0000201C00002020
:10147000FC0000202DE9F84704460D4690469946A9
:10148000DDE9096704F0FF0A08EB04001FFA80F8A1
:1014900009EB05001FFA80F916E0444502DB5446CB
:1014A000A81985B24D4500DB14E0002000903A7881
:1014B000334629462046FFF749FF304606EBD071F8
:1014C00004EB61018CB27F1C38787E2802DC38780E
:1014D0002028E2DA00BFBDE8F8872DE9FF4F82B08F
:1014E000064692461F46DDE90F4800200190002580
:1014F0004DE0781B401EC1B20A20FFF78BFEBAFBFD
:10150000F0F00A21B0FBF1F201FB1209019850BB87
:10151000781EA84227DDB9F1000F22D108F0800023
:1015200078B108F00100A34604EBDB71491001FB20
:101530000561009088B2234630220399FFF706FF29
:101540000EE008F00100A34604EBDB71491001FB3B
:101550000561009088B2234620220399FFF7F6FE2A
:1015600013E00120019008F00100A34604EBDB71B9
:10157000491001FB0561009088B209F13001CAB23F
:1015800023460399FFF7E2FE00BF681CC5B2BD42C7
:10159000AFDB06B0BDE8F08F01B5BDF800000090EC
:1015A000BDF800000149088008BD00008000006C03
:1015B00001B5BDF800000090BDF8000001490880A9
:1015C00008BD00007E00006C0248008902490880C6
:1015D00070470000FC0000207E00006C034A108071
:1015E0004FF0D842A2F88010704700007E00006CD7
:1015F0001CB50121202000F067F84FF4C060009076
:1016000001208DF8040000208DF8060003208DF8DD
:10161000050001208DF8070069460448FFF733FAFA
:101620004FF4C0610148FFF799FA1CBD0014024055
:1016300000BFFEE77047000070B5002100230F22B5
:10164000C4781CB3174C246804F4E064C4F5E06467
:10165000C4F30721C1F10404E3B20A4144789C4079
:10166000E1B28478144021430C07210E0E4C05781A
:101670006155047804F01F050124AC4005786D1114
:10168000AD0005F1E025C5F8004109E0047804F05B
:101690001F050124AC40054D0678761145F826401B
:1016A00070BD00000CED00E000E400E080E100E02F
:1016B00002490143024A1160704700000000FA0528
:1016C0000CED00E07047000029B1064A12680243A1
:1016D000044B1A6004E0034A12688243014B1A600B
:1016E000704700003038024029B1064A12680243B0
:1016F000044B1A6004E0034A12688243014B1A60EB
:10170000704700003838024029B1064A1268024387
:10171000044B1A6004E0034A12688243014B1A60CA
:10172000704700004438024029B1064A126802435B
:10173000044B1A6004E0034A12688243014B1A60AA
:101740007047000024380240F0B500210022002438
:10175000022500260223324F3F6807F00C0121B119
:10176000042905D0082937D105E02E4F076036E05F
:101770002D4F076033E02A4F3F1F3F68C7F3805665
:10178000274F3F1F3F6807F03F036EB1264FB7FB5F
:10179000F3F7DFF88CC0ACF1040CDCF800C0CCF33C
:1017A000881C07FB0CF40CE01E4FB7FBF3F7DFF8C7
:1017B00070C0ACF1040CDCF800C0CCF3881C07FB53
:1017C0000CF4174F3F1F3F68C7F301477F1C7D0094
:1017D000B4FBF5F7076002E0124F076000BF00BFDF
:1017E0000F4F3F6807F0F0010909104F7A5C076856
:1017F000D74047600A4F3F6807F4E051890A0B4F12
:101800007A5C4768D7408760054F3F6807F46041BE
:10181000490B064F7A5C4768D740C760F0BD0000AF
:10182000083802400024F40000127A000000002072
:1018300010B54FF4807000F021F8012805D10002A6
:1018400000F00EF803A0FEF715FD4FF40030FFF78F
:1018500087F810BD414C41524D2041210D0A000036
:1018600081B241F08001044A126802F0800262EA0B
:101870000101014A116070470C28004010B5014673
:1018800000200022054B1B68054C03EA040202EA13
:1018900001030BB1012000E0002010BD0C28004026
:1018A0007F3F010010B54FF48060FFF7E7FF01288C
:1018B0000AD18002FFF7D4FF0648006808B901206A
:1018C00000E00020034908604FF48000FFF748F86B
:1018D00010BD0000A8824242014908607047000024
:1018E000382C014001460020034A12680A400AB120
:1018F000012000E000207047342C014010B500F0BA
:1019000017F810BD0021094B02681A601A1D1168F2
:101910006FF30A01D0E901231A43C3681A4303692C
:101920001A431143014A121D11607047082C0140EF
:1019300010B54FF48070FFF7D5FF78B34C480078AE
:10194000012814D100204B4908600C204860402039
:1019500088600020C8604FF4806008610846FFF787
:10196000D1FF0C20FEF7C8FF4349087002E00020B9
:10197000414908704148006840F480703F49086060
:10198000081D00684CF23A3188433C49091D086043
:1019900001203B4908703848007810BDFFE702205D
:1019A000FFF7A0FF78B10220FFF796FF3348001D34
:1019B00000684CF23A3188433049091D0860022022
:1019C0002D490870E9E70820FFF78CFF78B108205F
:1019D000FFF782FF2948001D00684CF23A31884326
:1019E0002649091D0860042023490870D5E72020F6
:1019F000FFF778FF78B12020FFF76EFF1F48001D2A
:101A000000684CF23A3188431C49091D08600620E1
:101A100019490870C1E71020FFF764FF78B1102062
:101A2000FFF75AFF1548001D00684CF23A31884311
:101A30001249091D086005200F490870ADE74FF4F1
:101A40000070FFF74FFF80B14FF40070FFF744FFC5
:101A50000A48001D00684CF23A3188430749091DC5
:101A6000086007200449087097E7002095E7000008
:101A700029000020280100202A000020382C0140E5
:101A80002B000020704700000CB500200190009052
:101A90003448006840F480303249086000BF314863
:101AA000006800F4003000900198401C01900098FC
:101AB00018B90198B0F5A04FF1D12A48006800F498
:101AC000003010B10120009001E00020009000984B
:101AD000012846D123484030006840F08050214919
:101AE000403108602048006840F440401E490860CA
:101AF0001C48083000681B49083108600846006827
:101B000040F4004008600846006840F4A0500860B7
:101B10001648091F0860081F006840F08070091F00
:101B2000086000BF0F48006800F000700028F9D07E
:101B300040F205700E4908600A480830006820F03D
:101B400003000849083108600846006840F00200B8
:101B5000086000BF03480830006800F00C00082847
:101B6000F8D10CBD00380240007000400854400716
:101B7000003C0240042808D14FF0E021096941F0FF
:101B800004014FF0E022116107E04FF0E021096904
:101B900021F004014FF0E02211617047704700000E
:101BA00010B51548006840F47000134908601348E8
:101BB000006840F001001149086000200F49083119
:101BC00008600E4800680E4908400C4908600D483E
:101BD000091D0860081F006820F48020091F0860A4
:101BE000002006490C310860FFF74EFF4FF00060FF
:101BF00001498039086010BD88ED00E000380240DE
:101C0000FFFFF6FE1030002410B50121094800F056
:101C100024F868B10848008840F40040064908806C
:101C20000121044800F00AF80021024800F009F8F8
:101C300010BD00000014004030000020CA430282A2
:101C4000704721B1028842F00102028004E002885C
:101C50004FF6FE731A400280704730B502460020EE
:101C600000230024158A05EA0103958905EA010489
:101C700013B10CB1012000E0002030BD416270477B
:101C800010B540F225511D4800F082F810B31B48F2
:101C900000F038F9C4B21A48008800F40040C8B90E
:101CA0001748008800F4804060B10A2C03D000205F
:101CB0001349088020E01248008840F40040104991
:101CC000088019E00D2C06D10D48008840F48040B2
:101CD0000B49088010E00A480088C0F30D0009494C
:101CE0000C5407480088401C0549088008460088B5
:101CF000C72801DD0020088010BD00000010014051
:101D0000180000203400002010B540F2255116487C
:101D100000F03EF8F8B1144800F0F4F8C4B21348EB
:101D2000008800F40040B0B910480088B0F5487F42
:101D300012DA00210E48FFF7A1FF0C48008818B9FD
:101D400001210B48FFF77DFF08490888411C074A1D
:101D5000118008490C5405E00448008840F4004014
:101D60000249088010BD00000048004030000020FB
:101D700000140040F006002021B1828942F4005294
:101D8000828104E082894DF6FF731A408281704798
:101D900070B50246002400230025002040F66A1694
:101DA000B14200D100BFC1F3421501F01F0301266B
:101DB00006FA03F3012D02D19689334006E0022D85
:101DC00002D1168A334001E0968A33400C12012674
:101DD00006FA04F41688344013B10CB1012000E077
:101DE000002070BDF0B50346002400260025002029
:101DF00040F66A17B94200D100BF1846C1F3421439
:101E000001F01F06012707FA06F5012C01D10C305D
:101E100004E0022C01D1103000E014301AB1076840
:101E20002F43076002E00768AF430760F0BD000082
:101E30002DE9FF4705460E460024A14600BFA046F7
:101E4000B08900B100BF2C8A24F44054F0880443C8
:101E50002C82AC8941F20C608443B08831890843FC
:101E6000718908430443AC81AC8A24F44074B0897E
:101E70000443AC826846FFF767FC2048854202D0E5
:101E80001F48854202D1DDF80C9001E0DDF8089092
:101E9000A88900F4004040B109EBC90000EB09102B
:101EA00031684900B0FBF1F707E009EBC90000EB2E
:101EB000091031688900B0FBF1F76420B7FBF0F03E
:101EC00004012009642101FB1078A88900F4004076
:101ED00040B1322000EBC800B0FBF1F000F0070089
:101EE000044308E0322000EB08106421B0FBF1F05D
:101EF00000F00F0004432C81BDE8FF870010014073
:101F00000014014001468888C0F30800704700BFF4
:101F1000FEE730380A2801D20120704700207047C0
:101F2000014600BF7047000010B504466FF0040082
:101F3000FFF720FEE11704EB5171C1F3C701074A17
:101F400011701046007800EB4001C1EBC0104FF655
:101F5000FF7101EAC0000249088010BD1000002096
:101F60001200002070B504464FF4077094FBF0F0A7
:101F7000C6B24FF4077094FBF0F100FB114085B23C
:101F800005E04FF4077000F02FF8701EC6B2002E67
:101F9000F7D115B1284600F027F870BD0146114A67
:101FA00012784A434FF0E0235A6100229A611A46A0
:101FB000126942F001021A6100BF4FF0E02210697D
:101FC00000F001021AB100F48032002AF5D04FF07F
:101FD000E022126922F001024FF0E0231A61002290
:101FE0009A617047100000200146114A12884A4346
:101FF0004FF0E0235A6100229A611A46126942F0BA
:1020000001021A6100BF4FF0E022106900F00102E6
:102010001AB100F48032002AF5D04FF0E0221269A4
:1020200022F001024FF0E0231A6100229A6170470A
:102030001200002000BF054A128802F04002002A68
:10204000F9D0C2B2014B9A807047000000100140E5
:1020500086B000244FF4A060FFF72AFBA820FFF70A
:1020600063FF4FF4E13000F00DF9FFF7C1FAFEF71E
:102070007FFEFEF7EDFB4FF4784069490880694820
:10208000828869A103A8FEF701F9C8E00C2C41D2AF
:10209000DFE804F0060B0F13181D22272C31363B06
:1020A0004FF6FF70FEF7E8FD34E00020FEF7E4FD98
:1020B00030E01F20FEF7E0FD2CE04FF47840FEF703
:1020C000DBFD27E04FF61F00FEF7D6FD22E04FF4C0
:1020D000FC60FEF7D1FD1DE047F6FF70FEF7CCFD7A
:1020E00018E04FF6E070FEF7C7FD13E04FF607402B
:1020F000FEF7C2FD0EE048F23040FEF7BDFD09E0FC
:102100004CF21860FEF7B8FD04E04BF64040FEF7D5
:10211000B3FD00BF00BF4FF478404149088045A09F
:1021200018210B46D222CDE9001028211E20FFF7EE
:10213000A1F945A010210B46C822CDE90010462187
:102140001E20FFF797F943A010210B46C822CDE9C6
:1021500000105A211E20FFF78DF903A810210B460D
:10216000C822CDE900106E211E20FFF783F9601C04
:10217000C4B20C2C00D100BF1F202949088039A00F
:1021800010210B46C822CDE900108C211E20FFF73C
:1021900071F943E0FEF714FD0546002D0CDA6842A4
:1021A00005B235A010210B460A46CDE900108C215E
:1021B0006E20FFF75FF909E030A010210B460A46B8
:1021C000CDE900108C216E20FFF754F9642095FBB7
:1021D000F0F60020102102233246CDE900108C21B8
:1021E0007620FFF77AF9642095FBF0F100FB115699
:1021F0000020102102233246CDE900108C218E20D0
:10220000FFF76BF91E48006808B9012000E00020C4
:102210001B4908604FF47A70FFF7A4FEBAE735E770
:102220001A000020FC0000204C43442049443A2579
:10223000303458004578706C6F7265722053544D7D
:1022400033324634000000005446544C434420547A
:102250004553540041544F4D40414C49454E54451F
:102260004B00000054454D5045524154453A2030F2
:10227000302E3030430000002D0000002000000010
:10228000A482424210B588B0044601210846FFF7F7
:102290001BFA01211020FFF737FA072209212248F3
:1022A000FEF739FC07220A211F48FEF734FC4FF4E1
:1022B000C060069002208DF81C008DF81D000020E3
:1022C0008DF81E0001208DF81F0006A91648FEF7A4
:1022D000DAFB02940020ADF80C00ADF80E00ADF86A
:1022E0001000ADF814000C20ADF8120002A90F4840
:1022F000FFF79EFD01210D48FFF73EFD012240F250
:1023000025510A48FFF76EFD25208DF804000320B3
:102310008DF805008DF8060001208DF8070001A852
:10232000FFF78AF908B010BD00000240001001401C
:1023300010B591EA030F48BF83F0004300F12E83EC
:10234000841A71EB030C05D2121943EB0C03001B2A
:1023500061EB0C01DFF824E14FEA1154A4EB135CAC
:102360001EEA430F18BF9EEA445F73D023EA0E03B0
:10237000DCF1200E21EA045143F4801332D322FA17
:102380000CFE10EB0E0023FA0CFE41EB0E01CCF11B
:10239000200E03FA0EFE10EB0E0051F10001B1F514
:1023A000801FCCF1200E32D201EB045112FA0EF252
:1023B000BDE8104058BF7047401C38BF5FEA42027A
:1023C00018BF7047002814BF20F0010041F1000140
:1023D0004FEA410313F5001F38BF7047A1F1C04118
:1023E00000F0CEBA012A43EB0302ACF1200CDCF181
:1023F0001F0E32BF4FF0000E23FA0CF310EB030058
:1024000041EB0451B4EB115FD0D0A1EB045101F5C5
:10241000801149085FEA300001EB04510ED350F1FE
:10242000000038BF12FA0EFE08D1BDE81040C9E71F
:10243000401C38BF5FEA4202CAD1C3E7BDE8104082
:102440004FEA410313F5001F38BF7047A1F1C041A7
:1024500000F096BA9EEA445F08D011EA5E0FBDE82C
:10246000104004BF01F0004100207047BDE810405B
:1024700070B500F037FA00BF64FBBE3E0000E0FF1D
:102480002DE9C04130B4DFF8A0C23CEA111418BFF6
:102490003CEA131400F0EC8081EA03051CEA1114F5
:1024A00044EAD57418BF1CEA131500F0C780A4EBEA
:1024B00005044FF0004545EAC12145EAC32341EA3E
:1024C000505143EA525304F17F74994204F50034A9
:1024D0004FEAC0204FEAC22208BF904200F09C8021
:1024E0004FEA13650FF24016765D4FEA134506FB7F
:1024F00005F7C7F1807706FB07F74FEAD737A7FB49
:1025000003687642C8F58038A7FB06CE38BFA8F12D
:10251000010807FB08E64FF0000EA6FB028CE6FB65
:1025200003CEDCF1000CCEF1004E38BFAEF1010E4F
:10253000A6FB0C584FF000074FF00005E6FB0E8796
:10254000A1FB08C6A0FB07CE16EB0E0645F1000561
:10255000E1FB076515F1E04E7EBFA4F580345FEA2C
:1025600046066D4116F1800745F100054FEA172731
:102570004FEA066647EA0567A6F1DE46B6F1805FD8
:102580004FEA15251FD9384624F0010C05EBC4711C
:10259000BCF1FE6F01EB0C1102D8F0BCBDE800816C
:1025A00024425CBF01F5801E9EEAC47F02D4F0BCC9
:1025B000BDE80081244238D4F0BCA1F1C041BDE89F
:1025C000004100F0DDB94FEAD22242EA43524FEA1D
:1025D000D323A7FB02864FEAD02040EA415007FBF5
:1025E00003661EEA0E0F4FEAD12105FB026658BFB3
:1025F000A6EB0056B6EB00564FEA520E4EEAC37EEB
:1026000018EB0E0E56EB530EBDD518EB02085E41CB
:102610007F1C55F10005B6E74FF480154FF0000719
:102620004FF000064FF00008ADE7F0BC4FF000009F
:1026300001F1C04101F00041BDE8008111EA0C1F29
:102640000CEA131500D00CE013EA0C1F00F02580F3
:102650004FF00000F0BC81EA030101F00041BDE849
:102660000081F0BCBDE8004181EA030100F088B9B7
:10267000F0BCBDE8004170B500F034F9097EFC3EC5
:1026800000F007B881EA03014FF0000001F00041BB
:10269000704781EA030100F073B9F0BCBDE8004166
:1026A0004FF0000021497047FFFDFBF9F7F5F4F208
:1026B000F0EEEDEBE9E8E6E4E3E1E0DEDDDBDAD8DD
:1026C000D7D5D4D3D1D0CFCDCCCBCAC8C7C6C5C43B
:1026D000C2C1C0BFBEBDBCBBBAB9B8B7B6B5B4B352
:1026E000B2B1B0AFAEADACABAAA9A8A8A7A6A5A43D
:1026F000A3A3A2A1A09F9F9E9D9C9C9B9A99999801
:102700009797969595949393929191908F8F8E8EA3
:102710008D8C8C8B8B8A8989888887878685858430
:1027200084838382828181800000FF070000F87F1C
:102730004FEA41034FEA5353A3F58063D3F11E03DD
:10274000C8BFD3F1210C0CDD4FF0004242EAC12298
:1027500042EA505232FA03FC8CEAE17CACEBE170C5
:102760007047102BC4BF0020704703F5787CBCF184
:10277000FF3F04D06FF0004282EA2100704770B53D
:1027800000F0B0F84992248000207047F2E7000082
:10279000DFF848C170B51CEA111E1EBF1CEA1315F4
:1027A0009EEA0C0F95EA0C0F00F06F8081EA03049B
:1027B00023EA4C134EEAD47E21EA4C1141F48011F5
:1027C00043F48013AE44A1FB024CA0FB0365AEF1C1
:1027D0007F7E361955EB0C05A1FB034C4CF1000331
:1027E000A0FB021C16EB0C06654153F100030942E5
:1027F00018BF46F0010613F4007F0BD14FEA0331F6
:102800004FEA0530340341EA155140EA16506FF0A3
:1028100003020AE04FEAC3214FEAC520F40241EA6D
:10282000555140EA56506FF0020202EB2E4201EB86
:10283000025585EACE710AD05FEA440C18BF24F035
:10284000004450F1000041F1000120EAD47040F250
:10285000FE7C624500D270BDA84214BF4FF0804498
:102860004FF04044002E08BF0024BEF1806FA8BF87
:10287000A1F1C041BDE8704080F282804FF00000BD
:1028800001F1C04101F0004170479EEA0C0F0CEAD3
:10289000131518BF95EA0C0F06D04FF0000081EA1F
:1028A000030E0EF0004170BD00F01CF88900013EDF
:1028B00000F007B800F009B84FEA430C5FEA5C5C2F
:1028C00008D081EA030100F05BB84FEA410C5FEAEF
:1028D0005C5CF6D14FF00000014970470000FF0733
:1028E0000000F87F0EF1020E2EF0030E5EF8046B6E
:1028F000364205D4012A43EB030515F5001F12D813
:10290000012841EB010C1CF5001F0CD80ED14FEA39
:10291000D17C15F5001F0CEB4C0C0CF1020C08BF20
:102920004CEBD37C04E04FF0080C01E04FEAD37C81
:102930000CEB4C0526FA05F606F00706B6F1040C7A
:1029400006D20EEB860CBDE870404CF0010C6047DF
:10295000DFE80CF0090B02024FF000414FF00000DD
:10296000A1F5002170BD19461046012851EB010464
:1029700018BFD4F5001484BF002001F0004170BDE1
:102980000808A0F500114FEA3101704710B591EA2F
:10299000030F48BF83F000433FF5D2AC841A71EBBC
:1029A000030C07D212198CF0004C43EB0C03001BF4
:1029B00061EB0C01DFF8A4E14FEA1154A4EB135CC6
:1029C0001EEA430F18BF9EEA445F00F0B08023EA7E
:1029D0006E03524221EA0451C3EB6E0338BF5B1E03
:1029E000DCF1200E25D322FA0CFE10EB0E0043FA88
:1029F0000CFE41EB0E01CCF1200E03FA0EFE10EBA3
:102A00000E0051F10001CCF1200E29D412FA0EF281
:102A100001EB0451BDE8104058BF7047401C1CBF7B
:102A2000B2F1004F704700280CBF491C20F0010094
:102A3000704712EB020E43EB030218BF4FF0010E7A
:102A40004EEA4202ACF1200CDCF11E0E54D943FADE
:102A50000CFE10EB0E0051F1FF31CCF11E0ED5D55E
:102A60000EF1010E12FA0EFE404141EB010101EBA5
:102A7000445C5FEA5C5C10D910EBDE7001EB045142
:102A800038BFBEF1004FBDE8104018BF70470028A6
:102A90000CBF491C20F00100704730D24FEAD42C03
:102AA00011F5001124F400641BD0B1FA81F20B3A45
:102AB000A41AA41ED2F12003914030FA03F3194363
:102AC000904001EBCC71002C01EB0451BDE81040AB
:102AD000A8BF704701F1C0414FF0000001F0004174
:102AE0007047B0FA80F310FA03F100D110BDE41A78
:102AF000173C4805C90AE4E701EB045110BD491031
:102B000001EB0451BDE810404FEA300002E04FF005
:102B1000000170474A0008BF0042F8D0B2F5001F1C
:102B200028BF704701F000414FF0000070479EEA57
:102B3000445F07D011EA5E0FBDE8104004BF0021DA
:102B400000207047BDE8104070B5FFF7CBFE00BF16
:102B500040DFF63E83F00041104670470000E0FF82
:102B600043004FEAD30C4FEA3C0C43401FBF4007E1
:102B70000CF1605113F0FE4F70471CF0006F03D151
:102B800000200CF0004170470CF0004343EA507005
:102B900010B540EACC0000F00EF800BF0000009233
:102BA0004FEA0001FFF7ECBE4FF000414FF000008C
:102BB000A1F5002170470EF1020E2EF0030E5EF813
:102BC000044B244204D44FEA4102B2F17F4F11D8A2
:102BD0004FEA4003B3F17F4F0CD80ED14FEAD07CBF
:102BE000B2F17F4F0CEB4C0C0CF1020C08BF4CEB1C
:102BF000D17C04E04FF0080C01E04FEAD17C0CEBF3
:102C00004C0324FA03F404F00704B4F1040C06D2D4
:102C10000EEB840CBDE810404CF0010C6047DFE87F
:102C20000CF0070802024FF00040A0F5800010BD34
:102C30000846420018BFD2F1807288BF00F0004001
:102C400010BD4FF04070E1EE100A70470000000028
:102C50000000000000000000000000003F400000F5
:102C60000000000000003000400030004000000084
:102C700009000BC03D000BC03D00090018C02440F6
:102C80007FE0224031800000180024C01B000D802E
:102C90003240018003801C4027401C8007400040D8
:102CA00010006000000000000000000000000000B4
:102CB00000001F80204040200000402020401F8056
:102CC00000000000090006001F8006000900000047
:102CD000040004003F8004000400000000100060B5
:102CE00000000000000000000400040004000400D4
:102CF0000400000000000040000000000000000090
:102D0000002001C006003800400000001F80204065
:102D1000204020401F800000000010403FC00040C5
:102D20000000000018C0214022402440184000004C
:102D300010802040244024401B80000002000D0031
:102D400011003FC0014000003C802440244024404A
:102D5000238000001F802440244034400380000072
:102D60003000200027C03800200000001B802440D5
:102D7000244024401B8000001C0022C0224022402E
:102D80001F8000000000000008400000000000005C
:102D900000000000046000000000000000000400CB
:102DA0000A001100208040400900090009000900C4
:102DB0000900000000004040208011000A000400CB
:102DC0001800200023402400180000001F8020402D
:102DD000274029401F400000004007C039000F0075
:102DE00001C0004020403FC0244024401B80000020
:102DF0001F802040204020403080000020403FC005
:102E0000204020401F80000020403FC024402E4032
:102E100030C0000020403FC024402E0030000000A1
:102E20000F001080204022403380020020403FC02D
:102E3000040004003FC02040204020403FC020400C
:102E4000204000000060202020203FC02000200003
:102E500020403FC024400B0030C0204020403FC0F5
:102E600020400040004000C03FC03C0003C03C0088
:102E70003FC0000020403FC00C4023003FC0200066
:102E80001F802040204020401F80000020403FC085
:102E900024402400180000001F802140214020E031
:102EA0001FA0000020403FC02440260019C0004061
:102EB00018C02440244022403180000030002040CF
:102EC0003FC020403000000020003F800040004014
:102ED0003F80200020003E0001C007003800200095
:102EE000380007C03C0007C038000000204039C04F
:102EF000060039C0204000002000384007C038409C
:102F000020000000304021C02640384020C0000092
:102F1000000000007FE04020402000000000700022
:102F20000C000380004000000000402040207FE0B3
:102F30000000000000002000400020000000000011
:102F40000010001000100010001000100000000021
:102F50004000000000000000000002800540054025
:102F600003C0004020003FC0044004400380000034
:102F7000000003800440044006400000000003807D
:102F8000044024403FC0004000000380054005404D
:102F900003400000000004401FC0244024402000E3
:102FA000000002E0055005500650042020403FC0BC
:102FB0000440040003C000400000044027C000405B
:102FC0000000000000100010041027E000000000C6
:102FD00020403FC00140070004C004402040204082
:102FE0003FC000400040000007C0040007C00400CC
:102FF00003C00000044007C00440040003C00040B8
:10300000000003800440044003800000041007F027
:10301000045004400380000000000380044004507A
:1030200007F00010044007C0024004000400000044
:10303000000006400540054004C0000000000400F8
:103040001F8004400040000004000780004004404E
:1030500007C000400400070004C00180060004000F
:10306000060001C0070001C006000000044006C0C1
:10307000010006C0044000000410071004E00180B5
:10308000060004000000044005C0064004400000A3
:103090000000000004007BE0402000000000000071
:1030A0000000FFF000000000000040207BE0040072
:1030B0000000000040008000400020002000400090
:1030C0000000000000000000000000000000000000
:1030D0000000000000001FCC000C000000000000F9
:1030E00000000800300060000800300060000000B0
:1030F000022003FC1E20022003FC1E2002200000F0
:1031000000000E1811043FFF10840C78000000002E
:103110000F0010840F3800C0077818840078000072
:1031200000780F8410C411240E9800E40084000875
:1031300008006800700000000000000000000000AF
:1031400000000000000007E0181820044002000002
:10315000000040022004181807E0000000000000F2
:103160000240024001800FF0018002400240000056
:103170000080008000800FF8008000800080000048
:103180000001000D000E0000000000000000000023
:1031900000000080008000800080008000800080AF
:1031A0000000000C000C0000000000000000000007
:1031B00000000006001800600180060018002000D2
:1031C000000007F0080810041004080807F00000C9
:1031D0000000080408041FFC0004000400000000B4
:1031E00000000E0C10141024104411840E0C00006A
:1031F00000000C1810041104110412880C70000057
:10320000000000E00320042408241FFC0024000028
:1032100000001F9810841104110410881070000021
:10322000000007F0088811041104188800700000DD
:1032300000001C00100010FC13001C001000000017
:1032400000000E3811441084108411440E38000020
:1032500000000700088C10441044088807F00000A4
:10326000000000000000030C030C00000000000040
:103270000000000000010106000000000000000046
:103280000000008001400220041008081004000023
:103290000220022002200220022002200220000040
:1032A0000000100408080410022001400080000003
:1032B00000000E001200100C106C10800F000000B7
:1032C00003E00C1813E4142417C4082807D00000E6
:1032D0000004003C03C41C40074000E4001C000440
:1032E00010041FFC1104110411040E88007000006A
:1032F00003E00C1810041004100410081C10000047
:1033000010041FFC100410041004080807F000004B
:1033100010041FFC1104110417C410040818000045
:1033200010041FFC1104110017C010000800000059
:1033300003E00C181004100410441C780040000036
:1033400010041FFC10840080008010841FFC1004F7
:103350000000100410041FFC100410040000000002
:1033600000030001100110011FFE100010000000FA
:1033700010041FFC110403801464181C10040000C6
:1033800010041FFC1004000400040004000C0000E2
:1033900010041FFC1F0000FC1F001FFC1004000095
:1033A00010041FFC0C04030000E010181FFC1000A8
:1033B00007F00808100410041004080807F00000C3
:1033C00010041FFC10841080108010800F0000007B
:1033D00007F0081810241024101C080A07F2000037
:1033E00010041FFC1104110011C011300E0C000458
:1033F00000000E1C11041084108410441C380000BE
:103400001800100010041FFC100410001800000029
:1034100010001FF810040004000410041FF810002E
:1034200010001E0011E0001C007013801C00100032
:103430001FC0103C00E01F0000E0103C1FC0000057
:103440001004180C163401C001C01634180C1004F6
:1034500010001C00130400FC13041C0010000000EA
:103460000804101C1064108413041C0410180000BD
:103470000000000000007FFE400240024002000009
:10348000000030000C0003800060001C00030000FE
:1034900000004002400240027FFE000000000000E9
:1034A000000000002000400040004000200000001C
:1034B0000001000100010001000100010001000104
:1034C000000040004000200000000000000000005C
:1034D00000000098012401440144014400FC000460
:1034E00010001FFC00880104010400880070000027
:1034F000000000700088010401040104008800003D
:103500000000007000880104010411081FFC000481
:10351000000000F8014401440144014400C80000D7
:103520000000010401040FFC110411041100180033
:10353000000000D601290129012901C90106000066
:1035400010041FFC008401000100010400FC0004C1
:1035500000000104190419FC00040004000000002C
:103560000000000300010101190119FE0000000024
:1035700010041FFC0024004001B4010C01040000F1
:103580000000100410041FFC0004000400000000F0
:10359000010401FC0104010001FC0104010000FC24
:1035A000010401FC008401000100010400FC00048E
:1035B000000000F8010401040104010400F8000007
:1035C000010101FF00850104010400880070000072
:1035D00000000070008801040104010501FF0001E2
:1035E0000104010401FC00840104010001800000C9
:1035F000000000CC012401240124012401980000D2
:1036000000000100010007F80104010400000000AF
:10361000010001F8000400040004010801FC00049A
:10362000010001800170000C0010016001800100A8
:1036300001F0010C003001C00030010C01F001006C
:1036400000000104018C00740170018C0104000071
:10365000010101810171000E00180160018001006B
:1036600000000184010C013401440184010C0000BC
:10367000000000000000000001003EFC400240028B
:103680000000000000000000FFFF0000000000003C
:103690000000400240023EFC01000000000000006B
:1036A00000006000800080004000400020002000FA
:1036B000000000000000000000000000000000000A
:1036C00000000000000000000000000000000000FA
:1036D00000000000000000000000000000000000EA
:1036E0000000000F80380FFE380F80380000000007
:1036F00000000000000000000000000000000100C9
:10370000000600000C000038000031000006000038
:103710000C00003800003000000000000000000035
:1037200061800067F807F9800061800061800061B6
:10373000800061800067F807F98000618000000068
:1037400000000000000001C0E003E0F006300804C3
:1037500018081FFFFE040E080787F00381E0000031
:103760000000000001F000060C00040408060C70C4
:1037700001F9C0000E00003BE000EC180708080447
:103780000C180003E00000000001E00007F003F85F
:1037900018041C0804170807E1D003C0E00023B098
:1037A000003C08002008000010000000000000019C
:1037B00000003100003200001C000000000000008A
:1037C00000000000000000000000000000000000F9
:1037D00000000000000000000000000000000000E9
:1037E0007F0001FFC00780F00C00181000042000CB
:1037F000020000000000002000021000040C00186D
:103800000780F001FFC0007F000000000000000002
:103810000000000000000000000000004200006600
:1038200000006600003C0000180003FFC000180004
:10383000003C00006600006600004200000000003E
:10384000080000080000080000080000080001FF50
:10385000C000080000080000080000080000080080
:1038600000000000000100003100003200001C00D8
:103870000000000000000000000000000000000048
:103880000000000000000000080000080000080020
:103890000008000008000008000008000008000000
:1038A0000800000800000000000000000000000008
:1038B0003800003800003800000000000000000060
:1038C00000000000000000000000000000000000F8
:1038D000000600001C000070000180000E0000388F
:1038E0000000C0000700001C0000300000000000C5
:1038F000000000007F8001FFE003807006001804D4
:10390000000804000806001803807001FFE0007F33
:103910008000000000000000000001000801000815
:1039200001000803FFF807FFF80000080000080086
:10393000000800000000000000000001C03802C0C4
:1039400058040098040118040218040418061C18EE
:1039500003F81801E0F8000000000000000000017A
:10396000C0E003C0F00400080408080408080618B2
:103970000803F41801E7F00001E000000000000077
:10398000000000000300000D0000110000610000B5
:10399000810803010807FFF80FFFF8000108000184
:1039A000080000000000000000E007FCD006080846
:1039B000061008061008061008061838060FF0064C
:1039C00007C0000000000000000000003F8001FF71
:1039D000E0038430020818041008041008041008DA
:1039E000071810030FF00007C000000000000000DF
:1039F000000003C0000700000600000600F80607EC
:103A0000F806180006E000070000060000000000AD
:103A100000000001E1E003F7F00634100418080488
:103A20001808040C08040C0806161803F3F001C16A
:103A3000E000000000000000F80003FC300306383E
:103A40000402080402080402080404100308F00138
:103A5000FFC0007F00000000000000000000000028
:103A6000000000000000000070380070380070385E
:103A70000000000000000000000000000000000046
:103A8000000000000000000000000000301A0030BC
:103A90001C0000000000000000000000000000000A
:103AA00000000000000000080000140000220000D8
:103AB0004100008080010040020020040010080046
:103AC000080000000000000021000021000021008B
:103AD0000021000021000021000021000021000041
:103AE000210000210000000000000000000008008C
:103AF0000804001002002001004000808000410006
:103B00000022000014000008000000000000000374
:103B1000C00004C000040000080038080F3808087E
:103B2000380810000C300007E00003C0000000005F
:103B3000000000003F8000FFE0038070020F1006CD
:103B4000708804C088048308047F8802C090030141
:103B50002000FE400000080000180001F8003E08A8
:103B600001C20007020007E20000FE00001FC800BB
:103B700001F800003800000804000807FFF807FFFC
:103B8000F8040808040808040808040808061808C7
:103B900003F41801E7F00001E0000000000000005D
:103BA0003F8001FFE0038070020018040008040059
:103BB000080400080400100600200780C000000070
:103BC00004000807FFF807FFF804000804000804D1
:103BD000000804001802001003807001FFE0007F5D
:103BE0008000000004000807FFF807FFF804080839
:103BF000040808040808040808043E08040008062D
:103C0000001801006000000004000807FFF807FF2B
:103C1000F8040808040800040800040800043E0032
:103C20000600000600000180000000000000000007
:103C30003F8001FFE00380700600180400080402C2
:103C4000080402080203F00783F0000200000200EB
:103C500004000807FFF807FFF80408080008000040
:103C6000080000080000080004080807FFF807FF24
:103C7000F804000800000000000004000804000828
:103C800004000807FFF807FFF80400080400080410
:103C90000008000000000000000000000006000016
:103CA0000700000104000104000104000307FFFEF7
:103CB00007FFFC04000004000004000004000807E3
:103CC000FFF807FFF8040C08001800003E0004C7C6
:103CD000800503C80600F804003804001800000836
:103CE00004000807FFF807FFF804000800000800B8
:103CF000000800000800000800000800001800008C
:103D00006000000004000807FFF807800807FC00B7
:103D1000007FC00003F80007C00078000780080794
:103D2000FFF807FFF804000804000807FFF8070081
:103D30000803C00000E000003800001E000007007B
:103D40000001C00400F007FFF804000000000000BC
:103D50007F8001FFE0038070060018040008040063
:103D60000806001803003001FFE0007F800000001B
:103D700004000807FFF807FFF8040408040400041F
:103D80000400040400040400060C0003F80001F021
:103D900000000000000000007F8001FFE003807051
:103DA0000600880400880400C806003C03003E01A9
:103DB000FFE6007F8400000004000807FFF807FF0B
:103DC000F8040808040800040C00040F00040BC0E9
:103DD0000610F003F03801E00800000800000001C0
:103DE000E0F803F030063010041808041808040C3A
:103DF00008040C080206180207F00781E000000022
:103E00000180000600000400000400000400080710
:103E1000FFF807FFF8040008040000040000060093
:103E20000001800004000007FFE007FFF004001815
:103E30000000080000080000080000080000080456
:103E4000001007FFE004000004000006000007E087
:103E50000007FE00041FE00001F80000380001E048
:103E6000043E0007C0000600000400000400000734
:103E7000E00007FFC0041FF80007C007F80007FFB5
:103E800080043FF80007C004F800070000040000A9
:103E900000000004000806001807C07805F1C800FB
:103EA0003E00001F800463E80780F8060018040045
:103EB0000800000004000006000007800007E0087A
:103EC000047C08001FF80007F800180804E0080741
:103ED00000000600000400000000000100080600C9
:103EE000380400F80403E8040F08047C0805F0080F
:103EF00007C0080700180400600000000000000070
:103F000000000000000000000000003FFFFE200055
:103F10000220000220000220000220000200000017
:103F200000000000000008000007000000C00000C2
:103F300038000006000001C000003000000E000044
:103F4000010000000000000000002000022000022C
:103F50002000022000022000023FFFFE00000000BF
:103F60000000000000000000000000000000000051
:103F700000080000100000300000200000300000A9
:103F80001000000800000000000000000000010018
:103F9000000100000100000100000100000100001C
:103FA000010000010000010000010000010000010B
:103FB00000000000000000000020000020000010B1
:103FC00000001000000000000000000000000000E1
:103FD000000000000000000000F00019F8001B18AD
:103FE000002208002608002408002410003FF800E2
:103FF0001FF800000800001800000004000007FF80
:10400000F80FFFF000181800100800200800200822
:10401000003018001FF0000FC0000000000000007A
:1040200007C0001FF0001830002008002008002002
:1040300008003C08001C10000060000000000000A8
:104040000000000007C0001FF00038180020080022
:10405000200800200804101007FFF80FFFF00000F0
:10406000100000000000000000000007C0001FF06A
:104070000012300022180022080022080032080036
:104080001E10000E20000000000000002000002094
:104090000800200801FFF803FFF8062008042008A4
:1040A00004200807200003000000000000000000BA
:1040B000000E000E6E001FF30031B10020B1002091
:1040C000B1003191001F13002E1E00200E003000A1
:1040D00000000004000807FFF80FFFF800100800B8
:1040E0002000002000002008003FF8001FF800001A
:1040F0000800000000000000000000200800200868
:10410000002008063FF8063FF800000800000800FD
:104110000008000000000000000000000000000097
:1041200003000003002001002001002003063FFEE1
:10413000063FFC000000000000000000000000043A
:10414000000807FFF80FFFF8000188000300002FA8
:10415000C00038F8002038002008000008000000E7
:104160000000000000000400080400080400080724
:10417000FFF80FFFF800000800000800000800002A
:1041800000000000002008003FF8003FF800100881
:10419000002000003FF8003FF80010080020000059
:1041A0003FF8003FF8000008000000002008003F32
:1041B000F8003FF800100800100000200000200860
:1041C000003FF8001FF80000080000000000000099
:1041D00007C0000FF0001830003008002008002051
:1041E00008003008001830000FF00007C000000081
:1041F000000000002001003FFF003FFF0010110001
:104200002009002008002008003038001FF0000FAF
:10421000C00000000000000007C0001FF0003818B8
:10422000002008002008002009001011001FFF00D6
:104230003FFF0000010000000020080020080020CF
:1042400008003FF8003FF8000808001008002008A8
:1042500000200000300000300000000000000000DE
:104260000000000C78001E1800330800230800210D
:10427000080021880021980030F00038600000001C
:1042800000000000200000200000200000FFF003DC
:10429000FFF800200800200800200800003000007F
:1042A00000000000000000002000003FF0007FF848
:1042B000000018000008000008002010003FF8006F
:1042C0007FF000001000000000000000200000301F
:1042D00000003C00003F800023F0000078000070E8
:1042E000002380003C00003000002000002000007F
:1042F0003C00003FE00023F80000E0002700003E03
:1043000000003FE00021F80001E0003E0000200036
:10431000000000002008002008003838003E680037
:1043200027800003C8002CF800383800201800202F
:1043300008000000000000002000003003003C01E5
:10434000003F830023EC000070002380003C00004D
:1043500020000020000000000000000000000038E5
:10436000080020380020F80023E8002F88003E08CD
:104370000038080020180000700000000000000055
:104380000000000000000000000000000800001411
:10439000001FF7FC300006200002000000000000B3
:1043A000000000000000000000000000000000000D
:1043B0000000FFFFFF000000000000000000000000
:1043C0000000000000000000000020000230000695
:1043D0001FF7FC00140000080000000000000000AF
:1043E0000000000000000000000000180000600055
:1043F0000040000040000020000010000008000005
:104400000400000400000C000010000030313233C2
:1044100034353637383941424344454640305800F8
:10442000303132333435363738396162636465662A
:104430004030780004000008000000000000000286
:104440000001000010000000684400080000002087
:1044500034000000C40100089C440008340000201F
:104460003C100000E001000800000000010203040D
:104470000102030406070809000000000000000014
:1044800000000000FFFF000000000000000000002E
:0C4490000100000000000000000000001F
:040000050800018965
:00000001FF
