:020000040800F2
:1000000060BD0120690200084D3700083D25000849
:100010005131000831190008AD54000800000000FB
:10002000000000000000000000000000054C000877
:10003000291D000800000000DD3700081D4D0008E4
:10004000830200088302000883020008FD390008CB
:10005000830200088302000883020008830200086C
:10006000830200088302000883020008830200085C
:10007000830200088302000883020008830200084C
:10008000830200088302000883020008830200083C
:10009000830200088302000883020008830200082C
:1000A000830200088302000883020008830200081C
:1000B000830200088302000883020008830200080C
:1000C00083020008830200088302000883020008FC
:1000D00083020008F54E0008830200087D4F0008E7
:1000E000830200088939000883020008830200089F
:1000F00083020008830200088302000883020008CC
:1001000083020008593B00088302000883020008AC
:10011000830200088302000883020008894D00085A
:10012000830200088302000883020008830200089B
:10013000830200088302000883020008830200088B
:10014000830200088302000883020008830200087B
:10015000830200088302000883020008830200086B
:10016000830200088302000883020008830200085B
:10017000830200088302000883020008830200084B
:10018000830200088302000800F002F800F055F82E
:100190000AA090E8000C82448344AAF10107DA45E2
:1001A00001D100F04AF8AFF2090EBAE80F0013F0DF
:1001B000010F18BFFB1A43F00103184764810000C8
:1001C00084810000103A24BF78C878C1FAD8520759
:1001D00024BF30C830C144BF04680C6070470000C1
:1001E0000023002400250026103A28BF78C1FBD840
:1001F000520728BF30C148BF0B607047662906F020
:100200002784642900F0C480782900F028816329BC
:1002100000F0F184732900F0F684002070471FB5C8
:1002200006F011FC00F038FD04000020002105F06C
:100230006BFFE0601FBD10B510BD00F02DFE114634
:10024000FFF7EDFF05F0F4F900F04BFE03B4FFF704
:10025000F2FF03BC05F04BF930BF72B6704762B6CF
:10026000704780F30888704709488047094800476D
:10027000FEE7FEE7FEE7FEE7FEE7FEE7FEE7FEE756
:10028000FEE7FEE704480549054A064B70470000B3
:10029000214D00088901000860B7012060BD0120E0
:1002A00060B9012060B90120704700000FB4044913
:1002B00010B503AA029800F0ABFC10BC5DF814FB6B
:1002C000240000200FB41CB5084B06AA7B446946E5
:1002D0000090059800F06DFC04460020694600F08F
:1002E0007BFC20461CBC5DF814FB000009090000E3
:1002F00070B5044685690068C10601D5302600E066
:100300002026C00707D070BDD4E9012130469047B0
:10031000206A401C20626D1EF6D570BD70B5044683
:1003200085690078C00707D170BDD4E9012120207C
:100330009047206A401C20626D1EF6D570BD70B5D6
:100340000C460546012A05D02878800600D5EA69C2
:10035000002302E0012305E05B1C934202D2E05C33
:100360000028F9D1A869E618C01AA861286A1844BB
:1003700028622846FFF7BCFF04E0D5E9012114F804
:10038000010B9047B442F8D32846FFF7C7FF70BD72
:100390002DE9F0410646002410687529314616A55E
:1003A00010D0AFF30080002802DA404213A507E026
:1003B00031688A0701D512A502E0490704D511A5C5
:1003C000012401E0AFF3008000210A2206F1240796
:1003D00009E0B0FBF2FCB0FBF2F302FB1C00303092
:1003E00078541846491C0028F3D123462A46304643
:1003F000BDE8F04100F071B9000000002D000000E0
:100400002B00000020000000F0B40D460188090513
:1004100002D5214C7C4402E01F4C7C440E34002168
:1004200000F1240608E002F00F071209E75D42EA36
:1004300003721B097754491C52EA0307F3D102786F
:100440000023120704D5702D06D009B10223113400
:100450002246F0BC00F041B901231034F8E770B532
:1004600004460D4621461068AFF300800246294637
:100470002046BDE870400023C6E7D21D22F00703E6
:10048000D3E90023C0E70368126843F02003036048
:100490000823C3610023B7E7207E00002DE9F05F49
:1004A000894604464FF0000ADFF874B1FB44C0F8F7
:1004B00020A02046E1688847002874D0252806D06F
:1004C000D4E901219047206A401C2062F1E7002610
:1004D0005F462046E16888472028054607DB312D26
:1004E00005D2781910F8200C08B10643F1E7B007DF
:1004F00001D526F00406C4F81CA00027C4F818A0F3
:100500002A2D09D0284604F0EBFF38B304EB870806
:10051000303DC8F8185019E059F8041B204604EB88
:1005200087029161E1688847012F054618D1E0698B
:10053000002820DA26F020061DE0D8F8180000EB8D
:10054000800005EB40003038C8F818002046E1680C
:100550008847054604F0C4FF0028EED1012F0AD0D9
:100560002E2D08D12046E16888477F1C0546022FC2
:1005700046F02006C4DBA069002803DA404246F0BA
:100580000106A061F00701D026F010066C2D0BD0FB
:10059000682D09D04C2D39D06A2D35D0742D35D029
:1005A0007A2D33D016E038E0E1682F4620468847A0
:1005B000B842054609D16C2F26D04FF48060E1681F
:1005C000064320468847054604E06C2F1AD04FF4B6
:1005D000807006430DB3A5F14100192802D82035DB
:1005E00046F400664A462946204626604E46FFF7F6
:1005F00005FE80B101280BD0F61D26F0070000F1A2
:10060000080956E74020E4E78020D8E70020D6E735
:1006100006F104094DE7284652E7206ABDE8F09F3D
:10062000B07D000030B505460B462A4613F8014B55
:1006300012F8010B08B1A042F8D01CB1002802D07A
:100640006D1CF1E7284630BD032A40F2308010F0DF
:10065000030C00F0158011F8013BBCF1020F62445D
:1006600098BF11F801CB00F8013B38BF11F8013BEE
:10067000A2F1040298BF00F801CB38BF00F8013B9B
:1006800011F0030300F0D682083AC0F0088051F858
:10069000043B083A51F804CBA0E80810F5E7121D16
:1006A0005CBF51F8043B40F8043BAFF30080D20735
:1006B00024BF11F8013B11F801CB48BF11F8012B01
:1006C00024BF00F8013B00F801CB48BF00F8012B24
:1006D000704770477047704770472DE9F0470D46E7
:1006E00099469246044600F124080168880604D51C
:1006F000E06921F01001216000E00120A84201DD45
:10070000471B00E00027A1697A1902EB0900081ACB
:10071000A0612078C00602D42046FFF7E9FD00263C
:1007200008E0D4E901211AF806009047206A401C2D
:10073000761C20624E45F4DB2078C0060AD52046A0
:10074000FFF7D6FD06E0D4E9012130209047206A6A
:10075000401C2062381EA7F10107F4DC07E0D4E951
:10076000012118F805009047206A401C2062281ECD
:10077000A5F10105F3DC2046FFF7D0FD2078000647
:1007800002D50220BDE8F0870120FBE770472DE984
:10079000FF4F0C461E464FF0FF378BB0D2E90001E9
:1007A000DDF860800A908A46C1F30A5505B93D46D6
:1007B000002108464FF00000BAF1000F00F440009D
:1007C00005DA00EB80004FF4400101EA50004FEAE7
:1007D0009059B9F1010F00DDB9460A9850EA4A0074
:1007E0000ED044F61050A5F2FF3545432F14B8F152
:1007F000000F1ED07542291E1EDDC9F100021CE04B
:10080000B8F1010F4FF0000001D0302103E0F243B6
:1008100005E02154401CB042FBDB304600220021A1
:1008200021540B99C1F80880C1E900200FB0BDE840
:10083000F08FBD1B6D1CDEE74A4600DA694206A850
:1008400000F0B4FA06AB93E8070003AB83E80700B7
:1008500050460A9900F08CFB8DE80700A0F5005087
:100860001F3800900398002D09DD42F21F014A460F
:10087000084403A90390684600F0EBFD08E0A0F5EA
:1008800000504A461F3803A90390684600F0F5FD62
:100890008DE807000004000C03D04FF0FF30410842
:1008A00000E01046B8F1000F03D000220092154678
:1008B0001EE0751E05D400F0F3F9303262556D1E4E
:1008C000F9D5B3460122084302D000227F1C04E080
:1008D0002078302801D100227F1E002A099786D077
:1008E0001DE0112D07DA00F0DBF9303262556D1C86
:1008F00050EA0102F5D1084302D00098C8B10EE0D9
:100900000021681E05E0235C625C63542254401E93
:10091000491C8142F7DBAB46A81B401E0990002012
:1009200004F80B000B98099AC0F80880C0E9002B66
:100930007CE711264FF0000859E72DE9F04F884673
:100940000446D21D22F0070191B0D1E90001CDE9A2
:100950000A0104F0ADFD02460B98C00F01D02D2016
:1009600007E02068810701D52B2002E0202101EA61
:10097000C000032A099001D0072A05DB034641463F
:10098000204600F0D3F90BE12078800601D5E0691C
:1009900000E00620B8F1650F814606D0B8F1660F79
:1009A00018D0B8F1670F70D131E00020B9F1110F04
:1009B000009001DB112301E009F101030AAA01A95A
:1009C0000CA8FFF7E4FEDDE90C70002609F1010533
:1009D000834647E001204B4600904FF000470AAAAB
:1009E00001A90CA8FFF7D3FEDDE90DB00C995D4617
:1009F000002610B909F101000D18B9EB050003D468
:100A0000C0F1FF3609F10105A5EB09002BE0B9F1B2
:100A1000010F01DA4FF001090020B9F1110F009028
:100A2000484601DD112300E003460AAA01A90CA8EB
:100A3000FFF7ADFEDDE90C704D46002683462078B9
:100A400000070AD4AB4500DA5D4601A8012D04DD9C
:100A5000411911F8011C302907D04F4502DA17F16E
:100A6000040F04DA012082460FE06D1EEEE7002F2E
:100A700002DCED1B3E4403E0781CA84200DD7D1C37
:100A8000B81B00F1010A4FF000472078000703D49B
:100A9000AA4501DB4FF0FF3A0021B7F1004F0DF1FD
:100AA00043088DF8431024D002202B23002F01DAB5
:100AB0007F422D230A21021EA0F1010000DC5FB15C
:100AC00097FBF1FC97FBF1F201FB1C7C17460CF144
:100AD000300C08F801CDEEE7A8F101000370218881
:100AE000090501D5452100E06521A0F1010800F8C4
:100AF000011C09980FA9A1EB0807FF1D00B10120F7
:100B0000411901EBEA70A1693844081A401EA0613E
:100B10002078C00602D42046FFF7EAFB099828B1E6
:100B2000D4E901219047206A401C20622078C00649
:100B300022D52046FFF7DCFB1EE0002E04DBB34588
:100B400002DD01A8805D00E03020D4E9012190475A
:100B5000206A401C2062761CAAF101005FEA000AAC
:100B60000AD100F099F8C0680168405CD4E901211D
:100B70009047206A401C2062281EA5F10105DCDC9C
:100B800007E0D4E9012118F8010B9047206A401CC6
:100B90002062381EA7F10107F3DC2046FFF7BEFBF9
:100BA000032011B043E6000001694A1C0261087885
:100BB000704700B58FB0CDE901310021059105499D
:100BC0007944CDE9031011466846FFF767FC0FB082
:100BD00000BD0000E5FFFFFF0A6802F8010B0A6094
:100BE000704710B5436913B1AFF3008001E0FFF720
:100BF000A6FB012010BD127800F124010A7000222A
:100C00004A700122EDE711684FF0FF32E9E700007A
:100C1000074B70B50D467B44FFF7CBFF04462846D3
:100C200000F032F910B14FF0FF3070BD204670BDBA
:100C3000FB49000010B5203AC0F00B80B1E8185015
:100C4000203AA0E81850B1E81850A0E81850BFF4B6
:100C5000F5AF5FEA027C24BFB1E81850A0E8185055
:100C600044BF18C918C0BDE810405FEA827C24BFA9
:100C700051F8043B40F8043B08BF7047D20728BF37
:100C800031F8023B48BF11F8012B28BF20F8023B86
:100C900048BF00F8012B70470048704720B701207B
:100CA00030B5B0F10A024FEA900E71F100034EEA3E
:100CB000817EB0EB0E0061EB91014FEA101E4EEA0F
:100CC000017E10EB0E0041EB11114FEA102E4EEA9F
:100CD000016E10EB0E0041EB11214FEA104E4EEA6F
:100CE000014E10EB0E0041EB1141401841F10001A3
:100CF0004FEAD00040EA41704FEAD10110EB800585
:100D00004FEA810444EA907444EB01046D1944EB0A
:100D10000404521BA3414FF0000348BF0A3200D520
:100D200030BD401C41F1000130BD00002DE9F04113
:100D30001F46044603260168072A01F4006004DB0D
:100D400008B116A505E016A503E008B115A500E059
:100D500015A521F010002060A069C01EA0610FB190
:100D6000401EA0612046FFF7C3FA4FB1D4E901212C
:100D700038469047206A401C2062C01C206206E072
:100D8000206AFAE7D4E9012115F8010B9047761E95
:100D9000F8D22046FFF7C2FABDE8F0814E414E007E
:100DA0006E616E00494E4600696E66002DE9F0479F
:100DB000814616468AB0334878440DC88DE80D0048
:100DC00030487844801C03AC0DC884E80D0041F61F
:100DD0009B300844372190FBF1F290FBF1F5A5F12F
:100DE000800501FB12041B3C02D56442012000E097
:100DF0000020DFF890A080460027FA44AAF1BE0A3E
:100E00000DE0E00709D03246684607EB47010AEBE0
:100E1000810100F032FB8DE8070064107F1C002C7C
:100E2000EFD1184F7F44AC3F18E0E80714D007EB30
:100E300004100DF1180A90E80E008AE80E00C06850
:100E4000F04201D198190890324606A903A800F093
:100E500014FB03AB83E807006D10641C002DE4D184
:100E600032466946B8F1000F03A802D000F0F1FA4B
:100E700001E000F002FBC9E90001C9F808200AB04E
:100E8000BDE8F08734750000007B00F080007047FB
:100E90000048704700B701207546FFF7F9FFAE46DE
:100EA00005006946534620F00700854618B020B576
:100EB000FFF7E8F9BDE820404FF000064FF00007CB
:100EC0004FF000084FF0000B21F00701AC46ACE8F2
:100ED000C009ACE8C009ACE8C009ACE8C0098D465F
:100EE00070470446AFF300802046FFF7AFF90000DB
:100EF0004FF0013C50F8042B51F8043B9A4221D1A9
:100F0000A2EB0C03934313EACC1317D150F8042B34
:100F100051F8043B9A4215D1A2EB0C03934313EA18
:100F2000CC130BD150F8042B51F8043B9A4209D151
:100F3000A2EB0C03934313EACC13DBD04FF0000079
:100F4000704700BFD01A01BAB1FA81F101F018015F
:100F500022FA01F0CB40C1F12001DBB2C0B2C01ACD
:100F60002CFA01F3D11A914311EAC311E6D170476B
:100F70005FEA400C08BF91F0000F4FEA8C234FEA64
:100F8000C12243EA51514FEA1C5018BF00F5F0400E
:100F90004FEA300018BF41F000415FEA6C5C00F09E
:100FA0002980BCF1FF3F08BF40F080407047130C20
:100FB00006BF12044FF0100C4FF0000C130E04BFCC
:100FC00012020CF1080C130F04BF12010CF1040CF7
:100FD000930F04BF92000CF1020CD30F04BF520018
:100FE0000CF1010C11464FF00002A0F11F00A0EB24
:100FF0000C00704711F0004F08BF704731F00041FE
:101000003FF4D5AF0B0C06BF09044FF0100C4FF0A6
:10101000000C0B0E04BF09020CF1080C0B0F04BFEF
:1010200009010CF1040C8B0F04BF89000CF1020CB8
:10103000CB0F04BF49000CF1010CCCF12003A0EB55
:101040000C0022FA03F302FA0CF241EA030100F168
:101050000100704720F07F4C80EA030023F07F47B7
:10106000ACEB070303F57C5300F0004003F1FF03F2
:101070002DE980494FEA154B09B44FEA144325EA9C
:101080000B4E24EA03480FF2042606EB1327490807
:101090003E785FEA320203FB0667C7F5000707FBED
:1010A00006F64FEA54374FEAD64606F1020607FB2A
:1010B000066CCCF1005C4FEA1C472CEA074C07FB9E
:1010C00006F40CFB06F504EB15464FEA961634BF02
:1010D00000204FF000404FEAD13706FB07FC4FEAF3
:1010E0001C4C0CFB0BF7D21B03FB0CF761EB07014D
:1010F0000CFB0EF7B0EB074072EB17420CFB08F746
:1011000034BFA2EB0742B2EB074261EB17414FEA53
:101110000C444FEA910706FB07FC4FEA1C4C0CFB02
:101120000BF7B0EBC74072EB573203FB0CF734BF41
:10113000A2EBC742B2EBC74261EB57310CFB0EF793
:10114000B0EBC70072EB57720CFB08F734BFA2EB91
:10115000C702B2EBC70261EB5771039F4FEA81618F
:1011600041EA921104EBCC044FEAD1374FEA826294
:1011700006FB07FC42EA90124FEA80604FEA1C4CE3
:101180000CFB0BF7D21B03FB0CF761EB07010CFB0D
:101190000EF7B0EB074072EB17420CFB08F734BFB9
:1011A000A2EB0742B2EB074261EB17414FEA8C55C5
:1011B0004FEA910704EB9C2406FB07FC4FEA1C4C0A
:1011C0000CFB0BF7B0EBC74072EB573203FB0CF78D
:1011D00034BFA2EBC742B2EBC74261EB57310CFB05
:1011E0000EF7B0EBC70072EB57720CFB08F734BF79
:1011F000A2EBC702B2EBC70261EB577115EB4C25AE
:101200004FEA816141EA92114FEA82624FEAD13797
:1012100042EA901206FB07FC44F100044FEA8060AA
:101220004FEA1C4C0CFB0BF7D21B03FB0CF761EBDA
:1012300007010CFB0EF7B0EB074072EB17420CFBFB
:1012400008F734BFA2EB0742B2EB074261EB17414C
:1012500015EB1C154FEA813141EA92414FEA823287
:1012600042EA90424FEA80304FEA0C7644F10004A3
:1012700048EA03434EEA0B484FF0000EB2EB080C6D
:1012800071EB030724BF624639464EEB0E0E4FF05A
:10129000000B0018524149414BEB0B0BB2EB080C11
:1012A00071EB03077BF1000B24BF624639464EEB1E
:1012B0000E0E4FF0000B0018524149414BEB0B0B47
:1012C000B2EB080C71EB03077BF1000B24BF624605
:1012D00039464EEB0E0E51EA020718BF46F00106E2
:1012E00016EB0E7655F1000254F1000103D5BDE86E
:1012F0008901BDE80088BDE88901BDE80048B6194C
:10130000524141EB0101A3F10103704780807F7ED0
:101310007D7C7B7A7978777676757473727171706B
:101320006F6E6E6D6C6C6B6A6A696868676666651D
:101330006464636362616160605F5F5E5E5D5D5CAB
:101340005C5B5B5A5A59595858575756565555551C
:101350005454535352525251515050504F4F4F4E7C
:101360004E4D4D4D4C4C4C4B4B4B4A4A4A494949CA
:10137000484848474747474646464545454444440C
:10138000444343434342424242414141002B26D41D
:10139000770021D01CB54FEA370703B44FF0100097
:1013A0004FF010014FF000000FBCBDE810400BF1F2
:1013B000010BBBF1010F08BF5FEA170722BF12F153
:1013C000010211F101014FF0004143F1000300F06F
:1013D000004043EA00007047F9D35708DAE746EACD
:1013E000064613F1400F4FEA16461FDD13F1200F9A
:1013F000DFBF16430A46002120335B42C8D0C3F149
:10140000200746EA064602FA07F74FEA164646EA7A
:101410000706C3F1200722FA03F201FA07F721FABF
:1014200003F14FF0000342EA0702B1E746EA020681
:1014300046EA06464FEA164646EA0106BCBF46EAB9
:101440000646360C4FF000034FF000024FF000014B
:101450009EE72DE9C048934630B491E8380007C8AC
:1014600031EA400C48BF34EA430C03D5FFF7F2FDE4
:10147000FFF78CFFF0BCBDE800882DE9C04893461B
:1014800030B491E8380007C810F0804F08BF13F05F
:10149000804F03D100F005F8FFF778FFF0BCBDE8FE
:1014A000008820F07F4780EA030023F07F4C07EBA1
:1014B0000C03A3F57C5300F00040A3F1FE0392F06F
:1014C000000F00F0B38095F0000F00F077802DE959
:1014D00001494FEA11404FEA144621EA004800FB57
:1014E00006FC24EA064708FB06F607FB08F800FBA3
:1014F00007F718EB06484CEB164C4FEA124B18EB6B
:1015000007484FEA15464CEB174022EA0B4E0BFBFF
:1015100006FC25EA06470EFB06F607FB0EFE0BFB54
:1015200007F71EEB064E4CEB164C4FF000061EEB79
:10153000074E4CEB174B18EB0B0840F1000018EB73
:101540000E0B58EB000840F100008F1A4FF000011D
:101550003CBFC943661B14BFB5EB040C00213CBF64
:10156000C943F61B4FEA17444EEA8E0E27EA04459C
:101570004FEA1C4704FB07622CEA074C05FB07F700
:101580000CFB05F604FB0CFC16EB074642EB17427E
:1015900016EB0C4642EB1C421BEB060658EB020214
:1015A000414146EA9E0601D5BDE80189B61952417E
:1015B00041EB0101A3F10103BDE801894FEA1445A4
:1015C0004FEA114724EA054621EA074C05FB07F4D8
:1015D00006FB07F70CFB06F105FB0CFC11EB0741C2
:1015E00044EB17444FEA124711EB0C4144EB1C4407
:1015F00022EA074C05FB07F206FB07F70CFB06F691
:1016000005FB0CFC16EB074642EB174216EB0C46AB
:1016100042EB1C456A1854F1000148BF7047B619E7
:10162000524141EB0101A3F10103704795F0000F16
:1016300037D04FEA11424FEA144721EA024624EA22
:10164000074C02FB07F106FB07F70CFB06F402FB55
:101650000CFC14EB074441EB17414FEA154714EB20
:101660000C4441EB1C4125EA074C02FB07F506FB45
:1016700007F70CFB06F602FB0CFC16EB074645EBE6
:10168000174516EB0C4645EB1C42121951F10001AF
:1016900048BF7047B619524141EB0101A3F1010364
:1016A00070474FEA14454FEA114724EA054621EAFC
:1016B000074C05FB07F106FB07F70CFB06F24FF0A2
:1016C000000605FB0CFC12EB074241EB174112EB45
:1016D0000C4251EB1C4148BF7047921841EB01018D
:1016E000A3F10103704721B1826842F001028260D8
:1016F00003E0826822F00102826070470021084AFC
:101700001168084A1140D0E900231A4383681A433C
:10171000C3681A431143044AC2F804137047000017
:1017200004230140E030FCFF002001400146C86C6A
:1017300080B270470246002013680B400BB10120B5
:1017400000E000207047000030B502460020002372
:101750005068104C20400D790C6844EA0524204361
:10176000506090680C4C2040D1E903542C438D68A4
:101770002C434D7944EA450420439060D06A20F41C
:1017800070000C7D641EE4B2234340EA0350D06233
:1017900030BD0000FFFEFFFCFDF7FFC0F0B50446C2
:1017A0000D4600200021092D11DDE068A5F10A0693
:1017B00006EB4607072606FA07F18843A5F10A0655
:1017C00006EB460603FA06F10843E0600CE02069E8
:1017D00005EB4507072606FA07F1884305EB4506A2
:1017E00003FA06F108432061072A0FDA606B561EE0
:1017F00006EB86071F2606FA07F18843561E06EBFE
:10180000860605FA06F10843606322E00D2A0FDA26
:10181000206BD61F06EB86071F2606FA07F18843C2
:10182000D61F06EB860605FA06F10843206310E092
:10183000E06AA2F10D0606EB86071F2606FA07F1FD
:101840008843A2F10D0606EB860605FA06F1084369
:10185000E062F0BD816841F0804181607047000026
:1018600038B10849096841F40001074AC2F8041375
:1018700006E00449096821F40001034AC2F8041390
:1018800070470000042301400020014000B58DB0E6
:101890000121084601F0A4FF0121080201F0E0FF48
:1018A00020200B9003208DF8300001208DF83300AC
:1018B0000BA91D4800F098FB0121080201F0E0FF90
:1018C00000214FF4807001F0DBFF0120FFF7C8FF1B
:1018D000002007900A9009904FF48030089007A8E4
:1018E000FFF70CFF002001908DF808008DF809002B
:1018F0000390059001208DF8180001A90B48FFF70F
:1019000023FF0723012205210848FFF747FF07238C
:10191000012210210548FFF741FF01210348FFF78D
:10192000E2FE0DB000BD00000000024000200140BA
:1019300000BFFEE770B500254FF4803404E080203E
:1019400002F0F6F800B103E02000A4F10104F6D1A2
:1019500000BF0CB9032070BD40F2FF5002F0BEF88A
:101960002846F8E770B5044605E01648056805F016
:10197000450000B100E0F8E700BF042002F0D8F80D
:1019800020B1042002F0AAF8032070BD012002F06B
:10199000CFF820B1012002F0A1F80120F5E70948B5
:1019A00024380068A04201D01020EEE740F2FF503A
:1019B00002F094F803482038006808210840C0B2BB
:1019C000E3E70000342C014070B500264FF4803569
:1019D00005E01148046804F0450000B103E0280068
:1019E000A5F10105F5D100BF15B104F0040028B13F
:1019F0000326042002F072F8304670BD012002F088
:101A000097F818B10126012002F068F840F2FF5063
:101A100002F064F83046F0E7342C014010B505E0E0
:101A20000B48046804F0450000B100E0F8E700BF8F
:101A3000042002F07DF820B1042002F04FF80320CA
:101A400010BD40F2FF5002F049F80020F8E7000016
:101A5000342C01402DE9F04105460E464FF00008B8
:101A600005E02048076807F0450000B100E0F8E70E
:101A700000BF042002F05CF828B1042002F02EF828
:101A80000320BDE8F081012002F052F820B10120CE
:101A900002F024F80120F4E7124824380068A84234
:101AA00001D01020EDE740F2FF5002F017F80D488A
:101AB0002038046804F4604018B9200C3080404697
:101AC000DFE704F4005008B11320DAE704F48040A3
:101AD00008B11020D5E704F4004008B10F20D0E78A
:101AE0004046CEE7342C014070B500264FF48035D7
:101AF00005E00F48046804F0450000B103E0280049
:101B0000A5F10105F5D100BF15B104F0040028B11D
:101B10000326042001F0E2FF304670BD04F04000CF
:101B200018B10026402001F0D9FF3046F5E700004B
:101B3000342C014021B1026842F00102026003E04E
:101B4000026822F00102026070470000016821F083
:101B5000010101600021016041608160C16001619B
:101B6000212141614A49884204D13D21484A103A25
:101B700091608CE046491831884205D14FF4746178
:101B8000434A103A916082E041493031884205D1A0
:101B90004FF474113E4A103A916078E03C49483164
:101BA000884205D14FF07461394A103A91606EE075
:101BB00037496031884204D13649354A103AD160FC
:101BC00065E033497831884204D13349304A103ACC
:101BD000D1605CE02E499031884204D12F492C4AD3
:101BE000103AD16053E02A49A831884205D14FF01C
:101BF0003D51274A103AD16049E02949884204D131
:101C00003D21274A083A116041E0254918318842B0
:101C100005D14FF47461224A083A116037E0204937
:101C20003031884205D14FF474111D4A083A1160D1
:101C30002DE01B494831884205D14FF07461184AA4
:101C4000083A116023E016496031884204D11149F5
:101C5000134A121F11601AE011497831884204D1E9
:101C60000D490F4A121F116011E00D499031884251
:101C700004D10A490A4A121F116008E00849A83134
:101C8000884204D14FF03D51054A121F1160704740
:101C9000106002403D000020400F002000003D2069
:101CA0001064024021B1026842F02002026003E0A9
:101CB000026822F0200202607047014600200A6894
:101CC00002F001020AB1012000E00020704700008C
:101CD00010B500220268134B1A40CC680B682343EE
:101CE0004C6923438C692343CC6923430C6A234307
:101CF0004C6A23438C6A23434C6B23438C6B2343F2
:101D00001A430260426922F00702D1E90B342343EF
:101D10001A4342610B6943604B6883608B68C36000
:101D200010BD00003F801CF07047000001490860B2
:101D300070470000143C014051B18200A2F1C04242
:101D4000126842F001038200A2F1C042136009E070
:101D50008200A2F1C0421268034B1A408300A3F133
:101D6000C0431A6070470000FEFF0F00D0E9011267
:101D70001143C268114302691143426911438269E8
:101D80001143C2691143026A1143426A1143826AD4
:101D90001143C26A1143026B114302689200A2F11F
:101DA000C0421160816808290BD101688900A1F146
:101DB000C041096841F0400201688900A1F1C041B9
:101DC0000A60416B0968426B526841EA0211426B3A
:101DD000926841EA0221426B928941EA0241426BD8
:101DE000128A41EA0251426B127D41EA0261426B62
:101DF000926911430268521C9200A2F1C042116024
:101E0000C16AB1F5804F1BD1816B0968826B526842
:101E100041EA0211826B926841EA0221826B128AC6
:101E200041EA0251826B127D41EA0261826B926942
:101E3000114302689200A2F1C042C2F8041107E007
:101E40006FF0704201688900A1F1C041C1F804211E
:101E5000704700002DE9FC4107460D46002600248E
:101E600000200090019008205B4908601020486025
:101E7000402088600020C8604FF4806008610846F8
:101E800001F0A2FE1020FFF76DFD044614B12046BC
:101E9000BDE8FC815148008800044F4908603720A4
:101EA0004860402088600020C8604FF4806008616E
:101EB000084601F089FE3720FFF754FD04460CB1B7
:101EC0002046E5E74FF0FF304549086008204860AC
:101ED000302088600220C86000200861012048612D
:101EE000084601F00BFE00203B49086033204860A3
:101EF000402088600020C8604FF480600861084678
:101F000001F062FE3320FFF72DFD04460CB12046A0
:101F1000BEE70CE04FF4001001F00AFE38B1314882
:101F200000684DF82600761C022E00D307E02D48ED
:101F30004C38006840F22A6108400028EAD000BF0F
:101F4000082001F0F5FD20B1082001F0C7FD0420B4
:101F50009EE7022001F0ECFD20B1022001F0BEFD61
:101F6000022095E7202001F0E3FD20B1202001F0C0
:101F7000B5FD06208CE74FF4007001F0D9FD28B1C3
:101F80004FF4007001F0AAFD072081E740F2FF50F6
:101F900001F0A4FD00980006009901F47F4140EA99
:101FA0000120009901F47F0140EA1120009940EAE4
:101FB0001160686001980006019901F47F4140EAD0
:101FC0000120019901F47F0140EA1120019940EAC2
:101FD0001160286020465BE71805002034000020CF
:101FE0002C050020802C0140F0B50A46002100237A
:101FF000002400BF3DE0012505FA01F3156805EA5C
:1020000003049C4234D105684F000326BE40B5430B
:10201000056015794E00B5400668354305601579B1
:10202000012D02D01579022D16D185684F000326A7
:10203000BE40B543856055794E00B540866835434E
:102040008560456801268E40B543456045689679B0
:102050008E40B6B235434560C5684F000326BE408A
:10206000B543C560D5794E00B540C6683543C560F7
:10207000491C1029BFD3F0BDF0B5002300244D0743
:10208000ED0E02FA05F3CE1000F1200555F82650AA
:102090004E07F70E0F26BE40B543CF1000F12006C5
:1020A00046F82750CE1000F1200555F8265045EA95
:1020B0000304CE1000F1200545F82640F0BD02468D
:1020C000002013690B400BB1012000E00020704795
:1020D0000183704770B504460D462946204601F03D
:1020E000E3F82946204601F04FF82946204601F042
:1020F0007FF82946204601F06DF92946204601F077
:1021000079FA70BD10B5044607230122214608481C
:10211000FFF744FB0648FFF79DFB00BF0221044880
:10212000FFF708FB0028F9D00148FFF7FFFA10BDC0
:10213000002001402DE9F04107460C46002500260D
:1021400008E03846FFF7DEFF0544052003F0FAF902
:10215000701CC6B2A642F4DBB5FBF4F080B2BDE859
:10216000F081000010B52DED088B0A211020FFF73B
:10217000E1FF08EE100AB8EE480A10EE100A04F06B
:10218000F1FB41EC1A0B9FED1A0B53EC102B04F0F2
:1021900001FA41EC190B9FED180B53EC102B51EC8D
:1021A000190B04F0F5FA41EC1B0B9FED150B53ECEA
:1021B000102B04F067F841EC1A0B9FED130B53EC56
:1021C000102B03F0B7FF41EC190B9FED110B53ECF3
:1021D000102B51EC190B04F0DDF941EC190B41EC1B
:1021E0001A0B04F0A7F904B22046BDEC088B10BD11
:1021F0006666666666664A3F52B81E85EB51E83FE2
:102200007B14AE47E17A643F0000000000003940D3
:10221000000000000000594010B52DED048B82B085
:102220001F208D4908808D48D0F8490000EE100A23
:10223000B8EE400AB0EE408A9FED890AC8EE000A67
:10224000B0EE608A10EE904A204604F08BFB41EC21
:10225000190B824890F84D0053EC192B81A1009086
:102260008648FEF72FF8854810210B46C822CDE995
:102270000010E6211E2000F08DFE7848406C00EE34
:10228000100AB8EE400AB0EE408A9FED750AC8EE1B
:10229000000AB0EE608A10EE904A204604F062FB1D
:1022A00041EC190B6D4890F8480053EC192B74A1C0
:1022B00000907248FEF706F8704810210B46C822BD
:1022C000CDE90010FA211E2000F064FE6348D0F82A
:1022D000630000EE100AB8EEC00AB0EE408AB2EE1B
:1022E000040AC8EE000AB0EE608A10EE904A20465A
:1022F00004F038FB41EC190B53EC192B66A15F4835
:10230000FDF7E0FF5D4810210B46C822CDE9001023
:102310004FF487711E2000F03DFE5048B0F8670072
:1023200000EE100AB8EE400AB0EE408A9FED5F0A58
:10233000C8EE000AB0EE608A10EE904A204604F023
:1023400011FB41EC190B53EC192B59A14B48FDF72C
:10235000B9FF4A4810210B46C822CDE900104FF4BE
:1023600091711E2000F016FE3C4890F85C00032896
:1023700014DC3A4890F85C00524951F8202052A1F0
:102380003E48FDF79FFF3D4810210B46C822CDE98E
:1023900000104FF49B711E2000F0FCFD2F4890F8B8
:1023A0004F204CA13548FDF78DFF344810210B46D6
:1023B000C822CDE900104FF4A5711E2000F0EAFDFF
:1023C00026480078642190FBF1F201FB12042246BA
:1023D00046A12A48FDF776FF284810210B46C8225F
:1023E000CDE900104FF4AF711E2000F0D3FD1B4863
:1023F00090F840000090194890F83F30B0F83D2028
:1024000040A11E48FDF75EFF1C4810210B46C82264
:10241000CDE900104FF4B9711E2000F0BBFD0F484C
:1024200090F8430000900D4890F8423090F8412019
:102430003BA11248FDF746FF104810210B46C82269
:10244000CDE900104FF4C3711E2000F0A3FD02B0CF
:10245000BDEC048B10BD00002C0000208803002080
:102460000050C3474C6F6E6769747564653A252EDA
:10247000356620253163202020000000F403002071
:102480004C617469747564653A252E356620253172
:102490006320202000000000416C7469747564653D
:1024A0003A252E31666D20202020200000007A443D
:1024B00053706565643A252E33666B6D2F68202056
:1024C0002020200000000020466978204D6F6465C0
:1024D0003A25730056616C696420736174656C6C95
:1024E0006974653A253032640000000056697369EA
:1024F000626C6520736174656C6C6974653A253033
:102500003264000055544320446174653A253034E8
:10251000642F253032642F253032642020200000C3
:102520005554432054696D653A253032643A25305C
:1025300032643A25303264202020000000BFFEE7DC
:102540001CB50121112001F04BF91C200090002046
:102550008DF8040003208DF8050001208DF8070098
:1025600069460648FFF740FD0120009002208DF8E3
:10257000070069460248FFF737FD1CBD0010024006
:102580000000024010B5044614B101202C49087027
:102590002B480078002837D010212A48FFF78FFDFC
:1025A00078B108212748FFF78AFD50B1042125485A
:1025B000FFF785FD28B101212348FFF780FD0128A1
:1025C00022D10A2002F0BEFF00201D490870102110
:1025D0001C48FFF774FD08B9012010BD08211948F7
:1025E000FFF76DFD08B90220F7E704211548FFF752
:1025F00066FD08B90320F0E701211348FFF75FFDEE
:1026000001281BD10420E8E710210E48FFF757FDF1
:10261000012813D108210B48FFF751FD01280DD1E6
:1026200004210848FFF74BFD012807D10121064886
:10263000FFF745FD10B90120014908700020CCE7E3
:102640002A000020001002400000024070B504463D
:10265000002617480588408845431548808846F677
:102660000401884216D112488079012812D1002035
:102670000F4988712A2048812B2088810021084633
:1026800000F08AFB01200A4988712B2048812A200A
:10269000888103E00021084600F07EFB00F024FD65
:1026A000002602E003480480761CAE42FAD370BDD7
:1026B000EE0400208000006C10B504462C20084970
:1026C00008812A2048812B2088814FF4A07008803F
:1026D0004FF4F0704880002000F004FB10BD0000B3
:1026E000EE04002030B504460D461449488900F038
:1026F000EFFC201200F0E0FCE0B200F0DDFC201264
:1027000000F0DAFCE0B200F0D7FC0C49888900F058
:10271000DFFC281200F0D0FCE8B200F0CDFC28125B
:1027200000F0CAFCE8B200F0C7FC04480089044984
:1027300008804FF0D840A0F8802030BDEE04002083
:102740007E00006C2DE9FC4F05460E461746984664
:10275000DDF82C90002001902748808846F604017F
:10276000884229D124488079012825D1AB463546B5
:1027700021480088C01B401E86B247461E4800887C
:10278000A0EB0B00401E1FFA80F800201A49887148
:102790002A2048812B20888143463A4631462846E4
:1027A000CDF80090FFF7CEFF0120134988712B2050
:1027B00048812A2088811DE0781B401C80B201904E
:1027C000344615E02146284600F0E6FA00F08CFC7D
:1027D0004FF0000A07E04FF0D840A0F880900AF1CF
:1027E00001001FFA80FA01988245F4DB601C84B274
:1027F0004445E7DDBDE8FC8FEE04002000B5A1B044
:102800000020209001217A2000F0EAFF01210846F3
:1028100000F0F6FF4FF400401E9001208DF87C0080
:1028200000208DF87E0002208DF87D0001208DF8BB
:102830007F001EA9FE48FFF7D7FB4CF233701E90B5
:1028400002208DF87C0000208DF87E0003208DF89A
:102850007D0001208DF87F001EA9F648FFF7C4FB1C
:102860004FF680701E9002208DF87C0000208DF8BD
:102870007E0003208DF87D0001208DF87F001EA9C9
:10288000ED48FFF7B1FB4FF480501E9002208DF809
:102890007C0000208DF87E0003208DF87D00012053
:1028A0008DF87F001EA9E548FFF79EFB4FF480508E
:1028B0001E9002208DF87C0000208DF87E00032001
:1028C0008DF87D0001208DF87F001EA9DC48FFF700
:1028D0008BFB0C220021D748FFF7CEFB0C220121F5
:1028E000D448FFF7C9FB0C220421D248FFF7C4FBF0
:1028F0000C220521CF48FFF7BFFB0C220821CD4851
:10290000FFF7BAFB0C220921CA48FFF7B5FB0C22DE
:102910000A21C848FFF7B0FB0C220E21C548FFF77B
:10292000ABFB0C220F21C348FFF7A6FB0C220721AB
:10293000C148FFF7A1FB0C220821BF48FFF79CFB11
:102940000C220921BC48FFF797FB0C220A21BA4848
:10295000FFF792FB0C220B21B748FFF78DFB0C22EF
:102960001146B548FFF788FB0C220D21B248FFF74E
:1029700083FB0C220E21B048FFF77EFB0C220F21B7
:10298000AD48FFF779FB0C221146AC48FFF774FB0A
:102990000C221146AA48FFF76FFB0F200890002079
:1029A00009903C200A9000200B900C900D900E9006
:1029B000092001900020029008200390002004903C
:1029C00005900690079006200F900020109011901F
:1029D00010201290002013901590149016901790CC
:1029E0004FF480501890002019904FF480401A90B6
:1029F00000201B9008A81C9001A81D900FA8FFF7AD
:102A0000B5F901210620FFF797F9322002F09AFD6F
:102A10000121002000F072FB322002F093FD002023
:102A200000F054F987498880D32000F051FB00F072
:102A300043F98449888000F03FF98249888000F09A
:102A40003BF980498880084680884FF6FF7101EA8B
:102A500000207C49888000F02FF97A498988084352
:102A6000784988800846808849F2884188421CD18C
:102A70007548006820F00F004FF02041C1F81C019C
:102A80000846D0F81C0120F47060C1F81C0108460B
:102A9000D0F81C0140F00300C1F81C010846D0F832
:102AA0001C0140F40070C1F81C016648818867A0D1
:102AB000FDF7FCFB6348808849F2884188427CD15D
:102AC000E02000F005FB002000F0F6FA072000F0FF
:102AD000F3FA102000F0F0FA092000F0EDFA1720C8
:102AE00000F0EAFA0B2000F0E7FA412000F0E4FAE7
:102AF000892000F0E1FA4B2000F0DEFA0A2000F015
:102B0000DBFA0C2000F0D8FA0E2000F0D5FA1820DD
:102B100000F0D2FA1B2000F0CFFA0F2000F0CCFA20
:102B2000E12000F0D5FA002000F0C6FA172000F0EE
:102B3000C3FA1A2000F0C0FA042000F0BDFA0E20FB
:102B400000F0BAFA062000F0B7FA2F2000F0B4FA2D
:102B5000452000F0B1FA432000F0AEFA022000F068
:102B6000ABFA0A2000F0A8FA092000F0A5FA3220FA
:102B700000F0A2FA362000F09FFA0F2000F09CFA35
:102B8000C02000F0A5FA112000F096FA092000F00C
:102B900093FAC12000F09CFA412000F08DFAC52084
:102BA00000F096FA002000F087FA0A2000F084FA7C
:102BB000802000F081FA362000E063E000F088FA1F
:102BC000482000F079FA3A2000F082FA552000F00F
:102BD00073FAB02000F07CFA002000F06DFAB1200A
:102BE00000F076FAB02000F067FA112000F064FAE5
:102BF000B42000F06DFA022000F05EFAB62000F07A
:102C000067FA022000F058FA222000F055FAE92075
:102C100000F05EFA002000F04FFAF72000F058FABA
:102C2000A92000F049FA512000F046FA2C2015E0C6
:102C300000040240000C0240001002400014024058
:102C400000180240EE0400201C0100A0204C434468
:102C50002049443A25780D0A0000000000F02CFAC3
:102C6000822000F029FA212000F032FA112000F031
:102C70002FFA782002F066FC292000F029FA2C2097
:102C800000F026FA0020FFF717FD01200349086035
:102C90004FF6FF70FFF7DAFC21B000BDBC82404266
:102CA00010B50246012000E050430B00A1F10104E1
:102CB000E1B2F9D110BD000008B5034800880090CA
:102CC000BDF8000008BD00008000006C10B504468F
:102CD000204600F0FDF9052002F050FCFFF7ECFF64
:102CE00010BD000070B5054600240026082D1AD23C
:102CF000DFE805F00406090C0F12151800BF12E0FA
:102D000044F080040FE044F040040CE044F0C004C0
:102D100009E044F0200406E044F0600403E044F0DD
:102D2000A00400E000BF00BF36261A49488900F021
:102D3000CFF9002000F0C0F9002000F0BDF91549DE
:102D40000988491EC1F30F2000F0B6F9114909782E
:102D5000491EC8B200F0B0F90E49888900F0B8F9F0
:102D6000002000F0A9F9002000F0A6F909494988DF
:102D7000491EC1F30F2000F09FF906498978491ECA
:102D8000C8B200F099F944F480542146304600F06E
:102D9000B5F970BDEE04002010B502460C460D4991
:102DA000488900F095F9082A01DD012100E00021A1
:102DB000084600F081F9D0B200F07EF90549888913
:102DC00000F086F9201200F077F9E0B200F074F913
:102DD00010BD0000EE0400202DE9F84F80460E469D
:102DE00017461C46B3462046E31704EB5373DB102B
:102DF00021464FEAE47C04EB5C7C4FEAEC0CA4EB4C
:102E0000CC0CBCF1000F02D04FF0010C01E04FF0F0
:102E1000000C6344224604EBD27C4FEA6C0C03FBAB
:102E20000CF3DBB20093A7F12000C7B2002556E0F7
:102E30000C2C07D107EB47002B4901EB800010F861
:102E4000059013E0102C05D1284800EB071010F86E
:102E500005900BE0182C07D107EBC700244901EBC4
:102E6000800010F8059001E0BDE8F88F4FF0000AEF
:102E70002FE009F0800030B11E48028831464046FC
:102E8000FFF730FC07E00A9828B91B480288314652
:102E90004046FFF727FC4FEA49604FEA1069701C73
:102EA00086B216484088B04200DCDDE7A6EB0B0096
:102EB000A0420AD15E4608F101001FFA80F80F48CF
:102EC0000088404500DCCFE706E00AF1010000F091
:102ED000FF0ABAF1080FCCDB00BF681CC5B200982E
:102EE0008542A5DB00BFBFE7546A0008C86E000832
:102EF000B87400082C0000202E000020EE040020F2
:102F00002DE9FF4F81B0074691461E460E9D4FF0BA
:102F1000000A002439E0301B401EC1B20A20FFF72E
:102F2000BFFEB9FBF0F00A21B0FBF1F201FB120881
:102F3000BAF1000F16D1701EA04213DDB8F1000FD8
:102F40000ED10020AB4605EBDB71491001FB04718B
:102F5000009088B22B4620220299FFF73DFF12E035
:102F60004FF0010A0020AB4605EBDB71491001FB75
:102F70000471009088B208F13001CAB22B46029960
:102F8000FFF72AFF00BF601CC4B2B442C3DB05B028
:102F9000BDE8F08F2DE9F84704460D469046994666
:102FA000DDE9096704F0FF0A08EB04001FFA80F866
:102FB00009EB05001FFA80F916E0444502DB544690
:102FC000A81985B24D4500DB14E0002000903A7846
:102FD000334629462046FFF7FFFE304606EBD07108
:102FE00004EB61018CB27F1C38787E2802DC3878D3
:102FF0002028E2DA00BFBDE8F8872DE9FF4F82B054
:10300000064692461F46DDE90F4800200190002544
:103010004DE0781B401EC1B20A20FFF741FEBAFB0B
:10302000F0F00A21B0FBF1F201FB1209019850BB4C
:10303000781EA84227DDB9F1000F22D108F08000E8
:1030400078B108F00100A34604EBDB71491001FBE5
:103050000561009088B2234630220399FFF7BCFE39
:103060000EE008F00100A34604EBDB71491001FB00
:103070000561009088B2234620220399FFF7ACFE39
:1030800013E00120019008F00100A34604EBDB717E
:10309000491001FB0561009088B209F13001CAB204
:1030A00023460399FFF798FE00BF681CC5B2BD42D6
:1030B000AFDB06B0BDE8F08F01B5BDF800000090B1
:1030C000BDF800000149088008BD00008000006CC8
:1030D00001B5BDF800000090BDF80000014908806E
:1030E00008BD00007E00006C02480089024908808B
:1030F00070470000EE0400207E00006C034A108040
:103100004FF0D842A2F88010704700007E00006C9B
:103110001CB50121202000F063FB4FF4C06000903B
:1031200001208DF8040000208DF8060003208DF8A2
:10313000050001208DF8070069460448FEF754FF9A
:103140004FF4C0610148FEF7C3FF1CBD00140240EC
:1031500000BFFEE70246134610E010782A2805D08B
:103160001078202802DB10787A2801DDFF207047D4
:1031700010782C2801D1481EC1B2521C0029ECD174
:10318000D01AC0B2F3E70000F8B505460F4616A105
:103190003846FDF747FA064606213046FFF7DAFFC4
:1031A0000446FF2C05D03019694600F05AFA85F81C
:1031B0004E0007213046FFF7CDFF0446FF2C05D017
:1031C0003019694600F04DFA85F84F000921304664
:1031D000FFF7C0FF0446FF2C05D03019694600F008
:1031E00040FAC5F86300F8BD244750474741000046
:1031F0002DE9F8430546884629A14046FDF712FA15
:10320000064602213046FFF7A5FF0446FF2C05D0F5
:103210003019694600F025FA85F85C00002713E0B4
:10322000F81CC1B23046FFF795FF0446FF2C08D0CA
:103230003019694600F015FAC1B205F15000C155C8
:1032400000E003E0781CC7B20C2FE9DB00BF0F21C0
:103250003046FFF77FFF0446FF2C05D03019694642
:1032600000F0FFF9A5F85D0010213046FFF772FF6E
:103270000446FF2C05D03019694600F0F2F9A5F894
:103280005F0011213046FFF765FF0446FF2C05D093
:103290003019694600F0E5F9A5F86100BDE8F8834A
:1032A00024475047534100002DE9FC5F07468A46FA
:1032B0004FF00008CDF804A044A10198FDF7B2F941
:1032C0000646F079303800F0FF0B03213046FFF757
:1032D00041FF0546FF2D04D07019694600F0C1F981
:1032E00038704FF000096CE038A10198FDF79AF9A9
:1032F000064600245CE0042000EB8400C1B23046A6
:10330000FFF728FF0546FF2D09D07019694600F028
:10331000A8F9C1B208EB8802781C815400E049E0AA
:10332000052000EB8400C1B23046FFF713FF0546CD
:10333000FF2D0AD07019694600F093F9C1B208EB6D
:103340008802781C1044417000E033E0062000EB56
:103350008400C1B23046FFF7FDFE0546FF2D0AD0BE
:103360007019694600F07DF981B208EB8802781C7B
:103370001044418000E01DE0072000EB8400C1B252
:103380003046FFF7E7FE0546FF2D0AD07019694663
:1033900000F067F9C1B208EB8802781C1044017193
:1033A00000E007E008F1010000F0FF08601CC4B273
:1033B000042CA0DB00BF701C019009F1010000F09B
:1033C000FF09D94590DBBDE8FC9F0000244750472A
:1033D000535600002DE9F0432DED028B81B00446D9
:1033E000884681A14046FDF71DF907460121384670
:1033F000FFF7B0FE0546FF2D23D07819694600F08F
:1034000030F981469DF800100A2000F01FF9B9FB41
:10341000F0F642F21070B6FBF0F0C1B24120015557
:103420006420B6FBF0F06421B0FBF1F201FB120165
:10343000422001556420B6FBF0F100FB11614320EE
:10344000015503213846FFF785FE0546FF2D40D084
:103450007819694600F005F906469DF80000801CC1
:10346000C1B20A2000F0F2F8B6FBF0F060649DF8FB
:103470000000801CC1B20A2000F0E8F8B6FBF0F1B1
:1034800000FB116000EE100AB8EE408A05210A2008
:1034900000F0DCF8616C484300EE100AF8EE400AD8
:1034A0009DF80000C0F10500C1B20A2000F0CEF87E
:1034B00000EE100AB8EE400A20EE080A9FED4C1A02
:1034C000C0EE011A30EEA10ABCEEC00A10EE100ADE
:1034D000606404213846FFF73DFE0546FF2D02D00B
:1034E000785D84F8480005213846FFF733FE05462D
:1034F000FF2D44D07819694600F0B3F806469DF8D0
:103500000000801CC1B20A2000F0A0F8B6FBF0F069
:1035100044F8490F9DF80000801CC1B20A2000F059
:1035200095F8B6FBF0F100FB116000EE100AB8EE62
:10353000400AB0EE408A05210A2000F087F8216891
:10354000484300EE100AF8EE400A9DF80000C0F172
:103550000500C1B20A2000F079F800EE100AB8EEBA
:10356000400A20EE080A9FED221AC0EE011A30EE42
:10357000A10ABCEEC00A10EE100A44F8490906215F
:103580003846FFF7E7FD0546FF2D02D0785D84F849
:103590004D0009213846FFF7DDFD0546FF2D1ED001
:1035A0007819694600F05DF8064642F21070B6FBE5
:1035B000F0F0C1B2402001556420B6FBF0F0642168
:1035C000B0FBF1F201FB12013F2001556420B6FB74
:1035D000F0F100FB116000F5FA60A4F83D0001B0C5
:1035E000BDEC028BBDE8F0834750524D4300000014
:1035F00000007042F8B504460D4612A12846FDF7BA
:1036000011F8064607213046FFF7A4FD0746FF2FB5
:1036100016D0F019694600F024F8A4F867009DF868
:10362000000003280CDA9DF80000C0F10300C1B2CD
:103630000A2000F00BF8B4F867104843A4F86700BC
:10364000F8BD0000244750565447000010B502460C
:10365000012000E050430B00A1F10104E1B2F9D1D7
:1036600010BD2DE9F34F81B007463C460020009085
:10367000834681460026804628E020782D2802D106
:1036800048F00208641C20782C2802D020782A28D0
:1036900000D11CE020782E2803D148F00108641CDA
:1036A00009E02078392802DC2078302803DA4FF04E
:1036B000000900260BE008F0010010B1701CC6B232
:1036C00003E009F1010000F0FF09641CD5E700BF29
:1036D00008F0020000B17F1C00250EE0A9F10100F6
:1036E000401BC1B20A20FFF7B1FF795D3039009A63
:1036F00000FB01200090681CC5B24D45EEDB052E95
:1037000000DD05260298067000250EE0701E401BA5
:10371000C1B20A20FFF79AFF09F101012944795C3F
:10372000303900FB01BB681CC5B2B542EEDB314647
:103730000A20FFF78BFF009901FB00BA08F0020096
:1037400008B1CAF1000A5046BDE8FE8F704700007C
:1037500070B5002100230F22C4781CB3174C2468D5
:1037600004F4E064C4F5E064C4F30721C1F1040487
:10377000E3B20A4144789C40E1B28478144021438A
:103780000C07210E0E4C05786155047804F01F05D6
:103790000124AC4005786D11AD0005F1E025C5F8B8
:1037A000004109E0047804F01F050124AC40054DF8
:1037B0000678761145F8264070BD00000CED00E05B
:1037C00000E400E080E100E002490143024A1160A8
:1037D000704700000000FA050CED00E070470000A3
:1037E00029B1064A12680243044B1A6004E0034AF6
:1037F00012688243014B1A60704700003038024063
:1038000029B1064A12680243044B1A6004E0034AD5
:1038100012688243014B1A6070470000383802403A
:1038200029B1064A12680243044B1A6004E0034AB5
:1038300012688243014B1A60704700004038024012
:1038400029B1064A12680243044B1A6004E0034A95
:1038500012688243014B1A60704700002038024012
:1038600029B1064A12680243044B1A6004E0034A75
:1038700012688243014B1A607047000044380240CE
:1038800029B1064A12680243044B1A6004E0034A55
:1038900012688243014B1A607047000024380240CE
:1038A000F0B5002100220024022500260223324F19
:1038B0003F6807F00C0121B1042905D0082937D150
:1038C00005E02E4F076036E02D4F076033E02A4FAA
:1038D0003F1F3F68C7F38056274F3F1F3F6807F0E1
:1038E0003F036EB1264FB7FBF3F7DFF88CC0ACF1A6
:1038F000040CDCF800C0CCF3881C07FB0CF40CE0D3
:103900001E4FB7FBF3F7DFF870C0ACF1040CDCF826
:1039100000C0CCF3881C07FB0CF4174F3F1F3F6817
:10392000C7F301477F1C7D00B4FBF5F7076002E099
:10393000124F076000BF00BF0F4F3F6807F0F00154
:103940000909104F7A5C0768D74047600A4F3F6803
:1039500007F4E051890A0B4F7A5C4768D7408760CB
:10396000054F3F6807F46041490B064F7A5C476892
:10397000D740C760F0BD0000083802400024F400C2
:1039800000127A001000002010B54FF4807000F093
:1039900021F8012805D1000200F00EF803A0FCF781
:1039A00085FC4FF40030FEF7C1F910BD414C415287
:1039B0004D2041210D0A000081B241F08001044AEE
:1039C000126802F0800262EA0101014A1160704748
:1039D0000C28004010B5014600200022054B1B6852
:1039E000054C03EA040202EA01030BB1012000E0E6
:1039F000002010BD0C2800407F3F010010B54FF49F
:103A00008060FFF7E7FF01280AD18002FFF7D4FFAB
:103A10000648006808B9012000E00020034908605A
:103A20004FF48000FEF782F910BD0000A8824242E8
:103A30007CB50546002400200090019000260DB1C1
:103A4000022600E000262248006800F0007008B15D
:103A50000E207CBD1F49098888B26946FEF7FAF935
:103A600004460CB12046F4E7019800F4802060B3CE
:103A70001848008800041849086037204860402032
:103A800088600020C8604FF480600861084600F03C
:103A90009BF83720FDF766FF04460CB12046D8E7B7
:103AA0000D48066006200C494860402088600020D0
:103AB000C8604FF480600861084600F085F8062071
:103AC000FDF750FF04462046C3E72520C1E700006C
:103AD000142C014034000020180500200149086022
:103AE00070470000382C01400146034A106820F05E
:103AF000FF00084310607047042C014000210B4B6D
:103B000002681A601B1D42681A601A1D116821F0B4
:103B1000F701D0E902231A4303691A4343691A43A0
:103B20001143024A0832116070470000242C014002
:103B300001460020034A12680A400AB1012000E051
:103B400000207047342C01400248006800F0030058
:103B500070470000002C014010B500F08BFC10BD38
:103B600000210A4A116847F6FF629143027D83688B
:103B70001A4343681A43C3681A4303681A43036924
:103B80001A431143014A116070470000042C0140A0
:103B900000200B490860091D0860091D0860091D07
:103BA0000860074924310860091D0860091D086084
:103BB00004480349383108600020091D0860704737
:103BC000002C0140FF07C0000021094B02681A6069
:103BD0001A1D11686FF30A01D0E901231A43C36863
:103BE0001A4303691A431143014A121D11607047B9
:103BF000082C01400149086070470000002C01407A
:103C000070B590B004460E46154600BF1A48FEF740
:103C100054F80028FAD11848FDF798FF4FF00060DB
:103C20000190164802900394049500200590069098
:103C30004FF4806007908000089080000990002079
:103C40000A904FF440300B9004200C9003200D900C
:103C50004FF400000E9080100F9001A90648FEF767
:103C600037F820210448FEF71DF801210248FDF72E
:103C700061FF10B070BD000058640240802C01400C
:103C800070B50446002516480078032802D1272580
:103C9000284670BD1248007838B1114800780128D4
:103CA00003D00F480078022817D1B4F5805F02D105
:103CB00027252846EDE7E0B2FFF7BAFE054665B9CD
:103CC0000848006820F4C0500649086008460068AB
:103CD000204308600846006808602846D9E70000CD
:103CE00030000020042C0140F0B5014600200022E5
:103CF000BE4B1B7881F85630BD4B1B88A1F8543061
:103D0000BC4B1B681A0E93090B70C2F383034B70F4
:103D100002F003038B70B74B1B68C3F30742CA70F2
:103D2000B44B1B88C3F307220A71B24B1A784A714D
:103D30005B681A0E1301CB80AE4B5B68C3F307427E
:103D4000CB8843EA1213CB8002F00F030B72A94B0E
:103D50009B88C3F30722D3094B72C2F380138B7283
:103D6000C2F34013CB72C2F300130B7300234B73E7
:103D70009E4B1B783BB19D4B1B78012B03D09B4B7B
:103D80001B78032B4FD193071B0D0B61994B1A79AD
:103D90000B6943EA82030B61964B9B681A0E0B6911
:103DA00043EA92130B61C2F3C2030B7502F00703DF
:103DB0004B75904B9B68C3F3074253098B75C2F355
:103DC0008203CB7593075B0F0B768A4B1B89C3F37A
:103DD00007220B7E43EAD2130B760B695B1C00248F
:103DE000C1E912340B7E9B1C012404FA03F3DC1797
:103DF000D1E91256A5FB037C06FB03C305FB043384
:103E0000C1E912730C7A0123A3400B650024D1E9A8
:103E100012650B6DA6FB037C05FB03C306FB043395
:103E2000C1E912732EE0714B1B78022B2AD1714B22
:103E30001A7993069B0A0B616E4B9B681A0E0B69ED
:103E400043EA02230B616B4B9B68C3F307420B6988
:103E500013430B61674B1B89C3F307220B695B1C80
:103E60004FF40074A3FB04464FF480630025A4FBC9
:103E7000037C06FB03C304FB0533C1E912734FF453
:103E800000730B65C2F3801301F8193F93065B0EB4
:103E90004B70584B1A7A4B7843EAD2134B7002F0AE
:103EA0007F038B70534BDB681A0ED309CB70C2F3C0
:103EB00041130B71C2F382034B7193071B0F8B717C
:103EC0004C4BDB68C3F307428B7943EA92138B7147
:103ED000C2F34013CB7100230B7202F001034B724B
:103EE000444B9B89C3F30722D3098B72C2F380131F
:103EF000CB72C2F340130B73C2F300134B73C2F3C4
:103F000081038B7302F00303CB733A4B1A7B530884
:103F10000B7401234B74384B1B681A0ECA74193981
:103F2000354B1B68C3F307421402CC85324B1B8808
:103F3000C3F30722CB8D1343CB852F4B1A7814067E
:103F40000C635B681A0E0B6B43EA02440C632A4B4A
:103F50005B68C3F307420B6B43EA02240C63264BF6
:103F60009B88C3F307220B6B13430B63224B1A7915
:103F700034235A54204B9B681A0E35235A541E4B37
:103F80009B68C3F3074214068C631B4B1B89C3F366
:103F900007228B6B43EA02448C63174B1A7A8B6BB4
:103FA00043EA02248C63144BDB681A0E8B6B1343B9
:103FB0008B63114BDB68C3F307423C235B5C43EA32
:103FC00012143C235C5413071C0DCC870A4B9B89AD
:103FD000C3F30722CB8F1343CB87074B1A7B5408BD
:103FE00040235C54012441235C54F0BD3000002088
:103FF0003400002044050020540500203EB5002474
:10400000002501214448FFF7EBFB0121C802FFF71F
:1040100027FC0121C802FFF733FC4FF4F850019050
:1040200002208DF808008DF8090000208DF80A00A4
:1040300001208DF80B0001A93848FDF7D5FF0420B9
:10404000019001A93648FDF7CFFF0C220821334823
:10405000FEF712F80C2209213048FEF70DF80C2269
:104060000A212E48FEF708F80C220B212B48FEF7F8
:1040700003F80C2211462948FDF7FEFF0C2202210D
:104080002748FDF7F9FF00214FF40060FFF7F8FB28
:10409000FFF77EFD31208DF8000000208DF8010033
:1040A0008DF8020001208DF803006846FFF750FBF1
:1040B00000F0EEF8044614B900F038F804461CB9D4
:1040C0001848FFF711FE044634B91649B1F85410E8
:1040D000080400F073FD044624B94FF40060FFF7B4
:1040E000CFFD04461CB110480078032812D10D48BA
:1040F00090F8560020B10B4890F85600012801D1E5
:10410000022500E000252846FFF7EEFC002000F025
:104110006DFD044620463EBD0C00400000080240F4
:10412000000C0240680500203000002038B5002453
:1041300001200090FFF708FD10B92524204638BD66
:104140004D480078042824D000204C490860022003
:104150004860C02088600020C8604FF4806008611B
:104160000846FFF731FDFDF72FFC04460CB1204651
:10417000E5E743480068434908604148001D00687E
:1041800048603F480830006888603D480C3000684F
:10419000C8603948007858B137480078012807D0FE
:1041A00035480078062803D033480078022816D115
:1041B00000203249086003204860402088600020C9
:1041C000C8604FF4806008610846FFF7FDFC69464F
:1041D0000320FDF73FFC04460CB12046AFE726481C
:1041E0000078032816D1BDF80000000423490860B8
:1041F00003204860402088600020C8604FF4806041
:1042000008610846FFF7E0FCFDF7DEFB04460CB151
:10421000204694E71848007804282AD0BDF800000A
:1042200019490860BDF8000000041449086009201D
:104230004860C02088600020C8604FF4806008613A
:104240000846FFF7C1FCFDF7BFFB04460CB1204652
:1042500075E70B4800680D4908600948001D0068B3
:104260004860074808300068886005480C300068DE
:10427000C860002063E7000030000020180500201F
:10428000142C014054050020340000204405002077
:104290002DE9F0470027002400260025A046A1466E
:1042A00076206E4908750020086048608860C86004
:1042B00008610846FFF754FC0320FFF79BFC6848A1
:1042C000006840F480706649086000BF12E000207A
:1042D0006449086048608860C8604FF48060086185
:1042E0000846FFF771FCFDF725FB044604B903E01F
:1042F000781CC7B24A2FEADB00BF14B12046BDE8E4
:10430000F0874FF4D5705749086008204860402076
:1043100088600020C8604FF4806008610846FFF79D
:1043200053FCFDF7E1FB044624B901204E49087017
:104330004FF0804900204B490860372048604020FA
:1043400088600020C8604FF4806008610846FFF76D
:104350003BFC3720FDF706FB0446002C4CD135E032
:1043600000204049086037204860402088600020D5
:10437000C8604FF4806008610846FFF725FC3720CD
:10438000FDF7F0FA04460CB12046B8E7374849EA91
:1043900000003449086029204860402088600020DF
:1043A000C8604FF4806008610846FFF70DFCFDF718
:1043B00035FB04460CB12046A1E7294810300668B9
:1043C000012080EAD67080F001086D1CB8F1000F62
:1043D00003D14FF6FF708542C2D34FF6FF7085427E
:1043E00002D31B2420468AE706F08040060033D023
:1043F00002201D4908702FE01DE01D481949086082
:1044000001204860402088600020C8604FF4806030
:1044100008610846FFF7D8FBFDF700FB04460CB126
:1044200020466CE70E4810300668012080EAD670FE
:1044300080F001086D1CB8F1000F03D14FF6FF703A
:104440008542DAD34FF6FF70854202D31B24204603
:1044500055E7032004490870204650E70005002076
:10446000042C0140180500203000002000001080BE
:104470000080FF8010B54FF48070FFF759FB78B3D0
:104480004C480078012814D100204B4908600C20CA
:104490004860402088600020C8604FF48060086158
:1044A0000846FFF791FB0C20FDF75CFA43490870C2
:1044B00002E00020414908704148006840F48070E3
:1044C0003F490860081D00684CF23A3188433C4976
:1044D000091D086001203B4908703848007810BD6C
:1044E000FFE70220FFF724FB78B10220FFF7F6FA7E
:1044F0003348001D00684CF23A3188433049091DA9
:10450000086002202D490870E9E70820FFF710FB3A
:1045100078B10820FFF7E2FA2948001D00684CF244
:104520003A3188432649091D086004202349087050
:10453000D5E72020FFF7FCFA78B12020FFF7CEFA6C
:104540001F48001D00684CF23A3188431C49091D80
:104550000860062019490870C1E71020FFF7E8FA43
:1045600078B11020FFF7BAFA1548001D00684CF228
:104570003A3188431249091D086005200F49087027
:10458000ADE74FF40070FFF7D3FA80B14FF400703D
:10459000FFF7A4FA0A48001D00684CF23A3188433C
:1045A0000749091D086007200449087097E70020A3
:1045B00095E7000039000020180500203A0000208F
:1045C000382C01403B0000202DE9F84F814617466A
:1045D00098460A9C4FF0000AD3464D464FF0FF36EE
:1045E000B9F1000F02D12620BDE8F88F00208649DE
:1045F000086086480078022805D10402780A40EA5B
:10460000C8574FEA68280020814988604860401EEA
:104610000860012048610020C86008610846FFF773
:104620006DFA79481838006800F0007008B10E2063
:10463000DAE7002C21DDB4F5006F1EDC601E20409F
:10464000D8B9204600F056FF009072480460102050
:1046500070494860402088600020C8604FF4806046
:1046600008610846FFF7B0FA1020FDF77BF9824693
:10467000BAF1000F03D05046B6E72620B4E7009801
:10468000000163498860084644604FF0FF300860CD
:10469000012048610220C860002008610846FFF739
:1046A0002DFA5C48076011205A4948604020886014
:1046B0000020C8604FF4806008610846FFF784FA64
:1046C0001120FDF74FF98246BAF1000F01D0504694
:1046D0008AE75148007800285CD1FBF7BEFD18E05E
:1046E0004FF40040FFF724FA78B14FF0000B06E0DA
:1046F00045485430006845F82B000BF1010BBBF125
:10470000080FF5D32035454E03E00EB904206BE7C2
:10471000761E3D480830006840F22A6108400028B3
:10472000DED00820FFF704FA20B10820FFF7D6F901
:10473000042059E70220FFF7FBF920B10220FFF720
:10474000CDF9022050E72020FFF7F2F920B1202018
:10475000FFF7C4F9062047E74FF40070FFF7E8F9C8
:1047600028B14FF40070FFF7B9F907203CE704E0E7
:1047700025485430006828602D1D4FF40010FFF7C5
:10478000D7F90028F4D1FBF76AFD40F2FF50FFF79C
:10479000A5F936E020480078012832D100202049D0
:1047A00008702049087020490870174810300068C8
:1047B00040F22A3108431449103108601248006859
:1047C00040F0080010490860002221464846FFF7E3
:1047D00017FA00E0761E1548006800F0006038B94E
:1047E0001148007820B90E48007808B9002EF1D1A0
:1047F0000EB90420F8E60A48007810B1084890F88D
:1048000000A05046F0E600002C2C014030000020B3
:104810002C0500201805002038000020FFFF7F0035
:104820003A000020390000203B00002000640240D4
:104830002DE9FE4F83460C4691460020029000264B
:1048400025462C46700240EAD5566D020BF0030057
:10485000F0B14FF0000A18E04FF4007000904FEAFA
:104860004A20471946EBE0733A461648FFF7ACFE7C
:1048700002904FF4007213495846FBF7E5FE0BF522
:10488000007B0AF1010000F0FF0ACA45E4DB16E0F4
:10489000B9F1010F09D14FF400702A463346009058
:1048A0005846FFF791FE029009E04FF400702A4647
:1048B0003346CDE90009584600F006F80290029808
:1048C000BDE8FE8FC00500202DE9FF5F1746984622
:1048D000DDE90E464FF00009CA464FF0FF35AC49FE
:1048E000009808600020AB490860AB4800780228B7
:1048F00005D10402780A40EAC8574FEA6828002028
:10490000A64988604860401E086001204861002078
:10491000C86008610846FFF7F1F89E48183800683B
:1049200000F0007018B10E2004B0BDE8F09F002C1C
:1049300021DDB4F5006F1EDC601E2040D8B9204692
:1049400000F0D8FD834696480460102094494860E2
:10495000402088600020C8604FF4806008610846ED
:10496000FFF732F91020FCF7FDFF8146B9F1000F87
:1049700003D04846D8E72620D6E7012E71D906FB9A
:1049800004F0B0F1007F01D32620CDE74FEA0B10F1
:104990008249886006FB04F048604FF0FF300860F1
:1049A000012048610220C860002008610846FFF726
:1049B000A5F87B480760122079494860402088604C
:1049C0000020C8604FF4806008610846FFF7FCF8DB
:1049D0001220FCF7C7FF8146B9F1000F01D048460D
:1049E000A2E77048007800287ED1FBF736FC1EE075
:1049F0004FF40040FFF79CF8A8B14FF0000A08E020
:104A00006448543000686249096841F82A000AF194
:104A1000010ABAF1080FF3D35D48006820305C4901
:104A20000860614D03E00DB904207DE76D1E594813
:104A30000830006840F22A3108400028D8D0082009
:104A4000FFF776F820B10820FFF748F804206BE75D
:104A50000220FFF76DF828B10220FFF73FF802208F
:104A600062E792E02020FFF763F820B12020FFF7F3
:104A700035F8062058E74FF40070FFF759F828B1D1
:104A80004FF40070FFF72AF807204DE70AE041488D
:104A9000543000683E49096808603D480068001DC0
:104AA0003B4908604FF40010FFF742F80028EED1B0
:104AB0004FF48070FFF73CF820B33748007838B1E6
:104AC00035480078012803D033480078022819D1EE
:104AD0000020334908600C20486040208860002096
:104AE000C8604FF4806000E013E008610846FFF7FB
:104AF0006BF80C20FCF736FF8146B9F1000F01D0AE
:104B0000484611E7FBF7ABFB40F2FF50FEF7E6FF2C
:104B10003BE024480078012837D100202349087061
:104B200001202349087000202249087019481030DC
:104B3000006840F22A3108431649103108601548D0
:104B4000006840F008001349086006FB04F10022E9
:104B50000098FFF755F800E06D1E1748006800F058
:104B6000006008B9002DF7D10DB90420DCE600BFC4
:104B70001048007818B90D4800780028F8D00B4884
:104B8000007810B1094890F800904846CCE6000043
:104B90003C0000202C2C0140300000202C0500207F
:104BA0001805002038000020FFFF7F003A00002099
:104BB000390000203B0000200064024010B504468C
:104BC00009480460072008494860402088600020A8
:104BD000C8604FF4806008610846FEF7F5FF0720C3
:104BE000FCF7C0FE10BD00001805002001460020A3
:104BF000012900D011B9024B197000E0262070473E
:104C000038000020704700000CB500200190009093
:104C10003448006840F480303249086000BF3148B1
:104C2000006800F4003000900198401C019000984A
:104C300018B90198B0F5A04FF1D12A48006800F4E6
:104C4000003010B10120009001E000200090009899
:104C5000012846D123484030006840F08050214967
:104C6000403108602048006840F440401E49086018
:104C70001C48083000681B49083108600846006875
:104C800040F4004008600846006840F4A050086006
:104C90001648091F0860081F006840F08070091F4F
:104CA000086000BF0F48006800F000700028F9D0CD
:104CB00040F205700E4908600A480830006820F08C
:104CC00003000849083108600846006840F0020007
:104CD000086000BF03480830006800F00C00082896
:104CE000F8D10CBD00380240007000400854400765
:104CF000003C0240042808D14FF0E021096941F04E
:104D000004014FF0E022116107E04FF0E021096952
:104D100021F004014FF0E02211617047704700005C
:104D200010B51548006840F4700013490860134836
:104D3000006840F001001149086000200F49083167
:104D400008600E4800680E4908400C4908600D488C
:104D5000091D0860081F006820F48020091F0860F2
:104D6000002006490C310860FFF74EFF4FF000604D
:104D700001498039086010BD88ED00E0003802402C
:104D8000FFFFF6FE1030002410B50121094800F0A5
:104D900052F868B10848008840F40040064908808D
:104DA0000121044800F038F80021024800F037F8EB
:104DB00010BD000000140040400000207FB50546F3
:104DC0000C4601212020FEF72BFD0195ADF8004097
:104DD0000020ADF80800ADF8020069460D4800F06B
:104DE00047F8012211460B4800F036F80121094826
:104DF00000F015F837208DF80C0000208DF80D001C
:104E000002208DF80E0001208DF80F0003A8FEF798
:104E10009FFC7FBD00140040CA430282704721B14D
:104E2000028842F00102028004E002884FF6FE731D
:104E30001A400280704730B502460020002300244B
:104E4000158A05EA0103958905EA010413B10CB13D
:104E5000012000E0002030BD1AB183890B4383811B
:104E600002E083898B438381704741627047000071
:104E700000220288184B98420ED0184B98420BD053
:104E8000B0F1804F08D0164B984205D0154B984290
:104E900002D0154B984204D14FF68F731A404B88BD
:104EA0001A43124B984207D0114B984204D04FF648
:104EB000FF431A400B891A4302804B68C3620B8878
:104EC0000385054B984202D0044B984201D18B7A5E
:104ED00003860123838270470000014000040140E3
:104EE0000004004000080040000C0040001000409A
:104EF0000014004010B540F225511D4800F0FAF8AA
:104F000010B31B4800F0B0F9C4B21A48008800F48E
:104F10000040C8B91748008800F4804060B10A2CEE
:104F200003D000201349088020E01248008840F494
:104F300000401049088019E00D2C06D10D4800886A
:104F400040F480400B49088010E00A480088C0F314
:104F50000D0009490C5407480088401C0549088089
:104F600008460088C72801DD0020088010BD000029
:104F700000100140280000202604002010B540F257
:104F80002551164800F0B6F8F8B1144800F06CF955
:104F9000C4B21348008800F40040B0B9104800883B
:104FA000B0F5487F12DA00210E48FFF75EFF0C488B
:104FB000008818B901210B48FFF731FF084908881C
:104FC000411C074A118008490C5405E00448008838
:104FD00040F400400249088010BD00000048004035
:104FE0004000002000140040E00A002021B1828926
:104FF00042F40052828104E082894DF6FF731A4028
:105000008281704710B504463248844208D101219C
:105010001020FEF735FC00211020FEF731FC57E090
:105020002D48844209D101214804FEF709FC0021E2
:105030004FF40030FEF704FC4AE02848844209D1CE
:1050400001218804FEF7FCFB00214FF48020FEF7CD
:10505000F7FB3DE02248844209D10121C804FEF754
:10506000EFFB00214FF40020FEF7EAFB30E01D4883
:10507000844209D101210805FEF7E2FB00214FF42B
:105080008010FEF7DDFB23E01748844208D10121A0
:105090002020FEF7F5FB00212020FEF7F1FB17E0B2
:1050A0001248844209D101218807FEF7C9FB00217B
:1050B0004FF08040FEF7C4FB0AE00D48844207D160
:1050C00001214005FEF7BCFB00216005FEF7B8FB9F
:1050D00010BD0000001001400044004000480040A6
:1050E000004C004000500040001401400078004097
:1050F000007C004070B502460024002300250020FB
:1051000040F66A16B14200D100BFC1F3421501F06A
:105110001F03012606FA03F3012D02D196893340BD
:1051200006E0022D02D1168A334001E0968A334010
:105130000C12012606FA04F41688344013B10CB19F
:10514000012000E0002070BDF0B5034600240026D9
:105150000025002040F66A17B94200D100BF18466A
:10516000C1F3421401F01F06012707FA06F5012CCE
:1051700001D10C3004E0022C01D1103000E01430D9
:105180001AB107682F43076002E00768AF43076062
:10519000F0BD00002DE9FF4705460E460024A1465C
:1051A00000BFA046B08900B100BF2C8A24F440544F
:1051B000F08804432C82AC8941F20C608443B088AF
:1051C00031890843718908430443AC81AC8A24F4D3
:1051D0004074B0890443AC826846FEF761FB204806
:1051E000854202D01F48854202D1DDF80C9001E0D3
:1051F000DDF80890A88900F4004040B109EBC9002F
:1052000000EB091031684900B0FBF1F707E009EB4A
:10521000C90000EB091031688900B0FBF1F7642088
:10522000B7FBF0F004012009642101FB1078A88984
:1052300000F4004040B1322000EBC800B0FBF1F0B8
:1052400000F00700044308E0322000EB081064215E
:10525000B0FBF1F000F00F0004432C81BDE8FF87A4
:10526000001001400014014001468888C0F3080086
:105270007047000070B50025002604E0681C85B268
:10528000052000F05FF91548008800F4004008B9D7
:10529000642DF3DBFA2D1BDA10480088C0F30E05ED
:1052A000002406E00E48005DB52800D103E0601C34
:1052B00084B2AC42F6DB00BFAC4201D1022608E06A
:1052C0000749E01C085C08B9032602E0002600E05C
:1052D0000126002001490880304670BD40000020B2
:1052E000E00A002070B5184C46F2B520208040F648
:1052F000061060800D20A0800020C4F806004FF644
:10530000FF70C4F80A000020C4F80E000420A07446
:1053100004F114035A1E1121A01C00F09DF8152160
:10532000204600F0ADF8002505E0FFF7A3FF00B927
:1053300003E0681CC5B2062DF7DB00BF062D01D1C6
:10534000012070BD0020FCE7C007002070B50546B5
:10535000164C46F2B5202080062060801420A080E4
:105360000120A0710020E07120814FF40D60C4F88D
:105370000A00C4F80E5007206082A0820020E0825C
:10538000208304F11B035A1E1821A01C00F064F8AE
:105390001C21204600F074F8C82000F0D3F82846FD
:1053A00000F048FEFFF766FF70BD0000C007002058
:1053B00070B505460E460F4CC82D01DA012070BDB0
:1053C00046F2B520208040F6060060800620A080CE
:1053D000E58001202081668104F10D035A1E0A2117
:1053E000A01C00F039F80E21204600F049F8FFF724
:1053F00041FFE4E7C00700202DE9F04105460E46D5
:105400001746144C46F2B520208040F206706080AA
:105410001420A080C4F80650C4F80A60A7730020C6
:10542000E073207460744FF44D7060820020A0829D
:10543000C4F8160004F11B035A1E1821A01C00F02A
:105440000BF81C21204600F01BF8FFF713FFBDE806
:10545000F0810000C007002070B5044600251570DB
:105460001D70002009E01578265C354415701D7804
:10547000167835441D70451CA8B28842F3DB70BD18
:1054800010B5024600200CE000BF074B1B8803F05C
:105490004003002BF9D0135C034C241D2380431CD4
:1054A00098B28842F0DB10BD0048004000BFFEE724
:1054B00003B401984100009850EAC12018BF0420AD
:1054C0004A0D18BF40F0010040F2FF72B2EB515F8D
:1054D00008BF40F00200012808BF052002B0704755
:1054E00030380A2801D20120704700207047014659
:1054F00000BF70470146002002E04910421CD0B2B4
:105500000129FAD17047000010B504466FF004007D
:10551000FFF7F0FBE11704EB5171C1F3C701074A34
:1055200011701046007800EB4001C1EBC0104FF63F
:10553000FF7101EAC0000249088010BD2000002070
:105540002200002070B504464FF4077094FBF0F081
:10555000C6B24FF4077094FBF0F100FB114085B226
:1055600005E04FF4077000F02FF8701EC6B2002E51
:10557000F7D115B1284600F027F870BD0146114A51
:1055800012784A434FF0E0235A6100229A611A468A
:10559000126942F001021A6100BF4FF0E022106967
:1055A00000F001021AB100F48032002AF5D04FF069
:1055B000E022126922F001024FF0E0231A6100227A
:1055C0009A617047200000200146114A12884A4320
:1055D0004FF0E0235A6100229A611A46126942F0A4
:1055E00001021A6100BF4FF0E022106900F00102D1
:1055F0001AB100F48032002AF5D04FF0E02212698F
:1056000022F001024FF0E0231A6100229A617047F4
:105610002200002000BF054A128802F04002002A42
:10562000F9D0C2B2014B9A807047000000100140CF
:1056300088B000254FF0FF09AA464FF4A060FEF79E
:10564000C3F8A820FFF760FF4FF4E13000F09CFCA6
:105650004FF4164000F0EEFCFDF75AFDFDF7CEF8D2
:10566000FCF714F9FCF76CFF002000F02FFB022080
:1056700000F02CFB4FF47840FB490880FB488288FF
:10568000FBA104A8FAF71EFEE6E20C2D41D2DFE8EA
:1056900005F0060B0F13181D22272C31363B4FF651
:1056A000FF70FCF7D3FF34E00020FCF7CFFF30E0C1
:1056B0001F20FCF7CBFF2CE04FF47840FCF7C6FF2F
:1056C00027E04FF61F00FCF7C1FF22E04FF4FC601B
:1056D000FCF7BCFF1DE047F6FF70FCF7B7FF18E0D2
:1056E0004FF6E070FCF7B2FF13E04FF60740FCF70F
:1056F000ADFF0EE048F23040FCF7A8FF09E04CF2A5
:105700001860FCF7A3FF04E04BF64040FCF79EFF57
:1057100000BF00BF4FF47840D3490880D7A01821BC
:105720000B46D222CDE9001014211E20FDF732FCD9
:10573000D5A010210B46C822CDE9001032211E2031
:10574000FDF728FC04A810210B46C822CDE9001063
:1057500046211E20FDF71EFCCEA010210B46C822BC
:10576000CDE900105A211E20FDF714FCD0A0102115
:105770000B46C822CDE900106E211E20FDF70AFC61
:10578000D1A010210B46C822CDE9001096211E2081
:10579000FDF700FC23E0D1A010210B46C822CDE983
:1057A000001096211E20FDF7F5FB4FF4FA70FFF76D
:1057B000C9FECEA010210B46C822CDE900109621CB
:1057C0001E20FDF7E7FB4FF4FA70FFF7BBFECB4856
:1057D000006808B9012000E00020C8490860FEF711
:1057E0000DFC0028D7D100F037FB1F209E49088010
:1057F000C3A010210B46C822CDE90010AA211E200B
:10580000FDF7C8FBC2A010210B46C822CDE900104D
:10581000BE211E20FDF7BEFB10200090C248D0E93B
:105820001210030343EA11520523BE218620FDF71F
:1058300067FB681CC5B20C2D00D100BF1F208A4930
:105840000880BAA010210B46C822CDE900108221A1
:105850001E20FDF79FFB01214FF47A70FFF7A8FD92
:1058600000283ED0B6A010210B46C822CDE900107A
:10587000E6211E20FDF78EFB13E04FF4165000F0DA
:10588000D9FB4FF41640FFF761FD4FF4164000F0CE
:10589000D1FB0122AF49B048FFF7AEFDFFF722FD73
:1058A000814601214FF47A70FFF782FD10B1B9F102
:1058B000000FE2D1A9A010210B46C822CDE90010AB
:1058C000E6211E20FDF766FB4FF4FA70FFF73AFE63
:1058D0004FF6FF708823E622114600901E20FCF749
:1058E00031FFB8E1FCF73EFC0646002E0CDA7042B0
:1058F00006B29FA010210B460A46CDE90010822176
:105900006E20FDF747FB09E09AA010210B460A46DE
:10591000CDE9001082216E20FDF73CFB642096FB50
:10592000F0F00021039010200223CDE90001822134
:105930007620039AFDF761FB642096FBF0F100FBF3
:1059400011600021039010200223CDE90001822183
:105950008E20039AFDF751FB0020FCF713FE8146D1
:10596000B9F1010F37D14FF40071002000F056FA61
:105970000746012200213846FEF75AFF002826D1AB
:105980007DA010210B46C822CDE90010E6211E2083
:10599000FDF700FB7EA0FAF789FC4FF0000806E057
:1059A00017F808107FA0FAF781FC08F10108B8F594
:1059B000007FF5D37CA0FAF779FC7FA010210B467D
:1059C000C822CDE90010E6211E20FDF7E3FA394692
:1059D000002000F011FA0120FFF7B4FD7C48008898
:1059E00000F40040F0B17A480088C0F30E0B0024A8
:1059F00005E07848005D78490855601C84B25C4534
:105A0000F7DB002072490880734908557348FCF79A
:105A100061FBFCF701FCBAF1000F03D06E4970A0E6
:105A2000FAF744FC0020FCF7ADFD8146B9F1020F06
:105A300017D1BAF1000F01D1012000E00020824609
:105A40004FF4784008490880BAF1000F0AD066A0E8
:105A500010210B46C822CDE9001096211E20FDF72B
:105A600099FAD8E0CCE000002C000020EE040020E1
:105A70004C43442049443A25303458004C5A432082
:105A800053544D33324634005446544C434420540E
:105A9000455354004B4559313A55706C6F61642041
:105AA0004E4D454120446174612053570000000071
:105AB0004E4D454120446174612055706C6F6164A6
:105AC0003A4F4646000000004B4559303A52656156
:105AD0006420536563746F72203000005344204388
