:020000040800F2
:100000008810002045070008190500081B05000896
:100010001F05000823050008270500080000000050
:100020000000000000000000000000002B05000898
:100030002D050008000000002F050008310500080C
:100040005F0700085F0700085F0700084D560008BB
:100050005F0700085F0700085F0700085F070008E8
:100060005F0700085F0700085F0700085F070008D8
:100070005F0700085F0700085F0700085F070008C8
:100080005F0700085F0700085F0700085F070008B8
:100090005F0700085F0700085F0700085F070008A8
:1000A0005F0700085F0700085F0700085F07000898
:1000B0005F0700085F0700085F0700085F07000888
:1000C0005F0700085F0700085F0700085F07000878
:1000D0005F070008A54300085F070008F1730008E8
:1000E0005F070008295600085F0700085F0700083F
:1000F0005F0700085F0700085F0700085F07000848
:100100005F070008317200085F0700085F070008FA
:100110005F0700085F0700085F07000871750008A7
:100120005F0700085F0700085F0700085F07000817
:100130005F0700085F0700085F0700085F07000807
:100140005F0700085F0700085F0700085F070008F7
:100150005F0700085F0700085F0700085F070008E7
:100160005F0700085F0700085F0700085F070008D7
:100170005F0700085F0700085F0700085F070008C7
:100180005F0700085F07000800F002F800F092F82F
:100190000AA090E8000C82448344AAF10107DA45E2
:1001A00001D100F087F8AFF2090EBAE80F0013F0A2
:1001B000010F18BFFB1A43F00103184714AE0000EB
:1001C00034AE0000103A24BF78C878C1FAD852077C
:1001D00024BF30C830C144BF04680C6070470000C1
:1001E0000023002400250026103A28BF78C1FBD840
:1001F000520728BF30C148BF0B6070476E2907F017
:10020000A184702907F09782662909F08582652903
:1002100009F08282672909F07F826129AFF30080AB
:1002200003681B0A28BF41F08001692907F04E844A
:10023000642907F04B84752907F048846F2907F07B
:100240008385782907F06382E92907F01D85E42971
:1002500007F01A85F52907F01785EF2907F0808543
:10026000F82907F062820368DB0928BF41F08001AA
:10027000632908F00D80732908F01280E32908F043
:100280001D80F32908F02280002070471FB509F077
:100290003EFA08F071F804000020002108F058FD33
:1002A000401C60600020002108F03CFDE0601FBDA4
:1002B00010B510BD08F032F81146FFF7E7FF00F067
:1002C00011F808F00BF903B4FFF7F2FF03BC04F0D8
:1002D00009F8000030BF72B6704762B6704780F30D
:1002E0000888704786B000244FF4A06000F04AFAF6
:1002F000A82003F075FF4FF4E13004F001F804F09A
:1003000097F804F0A4FA04F0C9FF4FF47840694963
:1003100008806948828869A103A807F08FF9C8E0BE
:100320000C2C41D2DFE804F0060B0F13181D222716
:100330002C31363B4FF6FF7004F056FA34E00020C3
:1003400004F052FA30E01F2004F04EFA2CE04FF493
:10035000784004F049FA27E04FF61F0004F044FA11
:1003600022E04FF4FC6004F03FFA1DE047F6FF7016
:1003700004F03AFA18E04FF6E07004F035FA13E0B2
:100380004FF6074004F030FA0EE048F2304004F037
:100390002BFA09E04CF2186004F026FA04E04BF660
:1003A000404004F021FA00BF00BF4FF478404149BB
:1003B000088045A018210B46D222CDE90010282143
:1003C0001E2004F037FF45A010210B46C822CDE9BE
:1003D000001046211E2004F02DFF43A010210B46E3
:1003E000C822CDE900105A211E2004F023FF03A8E3
:1003F00010210B46C822CDE900106E211E2004F00A
:1004000019FF601CC4B20C2C00D100BF1F20294969
:10041000088039A010210B46C822CDE900108C219C
:100420001E2004F007FF43E004F0B2FF0546002D54
:100430000CDA684205B235A010210B460A46CDE918
:1004400000108C216E2004F0F5FE09E030A0102190
:100450000B460A46CDE900108C216E2004F0EAFE1E
:10046000642095FBF0F60020102102233246CDE9EE
:1004700000108C21762004F07EFE642095FBF0F1C4
:1004800000FB11560020102102233246CDE9001056
:100490008C218E2004F06FFE1E48006808B90120F0
:1004A00000E000201B4908604FF47A7003F0FAFE68
:1004B000BAE735E72E000020140100204C43442009
:1004C00049443A25303458004578706C6F72657233
:1004D0002053544D33324634000000005446544CEF
:1004E000434420544553540041544F4D40414C49DE
:1004F000454E54454B00000054454D504552415423
:10050000453A2030302E3030430000002D000000EE
:1005100020000000A4824242704700BFFEE700BFF7
:10052000FEE700BFFEE700BFFEE770477047704779
:10053000704700000CB500200190009076480068DC
:1005400040F480307449086000BF7348006800F4CC
:10055000003000900198401C0190009818B9019853
:10056000B0F5A04FF1D16C48006800F4003010B134
:100570000120009001E0002000900098012846D161
:1005800065484030006840F0805063494031086061
:100590006248006840F44040604908605E480830A6
:1005A00000685D49083108600846006840F4004072
:1005B00008600846006840F4A05008605848091FC9
:1005C0000860081F006840F08070091F086000BFC5
:1005D0005148006800F000700028F9D040F2057022
:1005E000504908604C480830006820F003004A4930
:1005F000083108600846006840F00200086000BF4B
:1006000045480830006800F00C000828F8D10CBDFF
:1006100010B54548006840F47000434908603E4802
:10062000006840F001003C49086000203A49083168
:100630000860394800683D490840374908603C482F
:10064000091D0860081F006820F48020091F086049
:10065000002031490C310860FFF76CFF4FF000605B
:1006600031498039086010BD70B500200022022396
:1006700000240221284D08352D6805F00C0020B11A
:10068000042806D0082834D107E02A4D2A4E3560C8
:1006900033E02A4D284E35602FE01F4D2D1D2D686B
:1006A000C5F380541C4D2D1D2D6805F03F0154B13C
:1006B000224DB5FBF1F5184E361D3668C6F3881687
:1006C00005FB06F209E01B4DB5FBF1F5124E361D98
:1006D0003668C6F3881605FB06F20F4D2D1D2D68F2
:1006E000C5F301456D1C6B00B2FBF3F5124E35608E
:1006F00003E0104D104E356000BF00BF064D0835B9
:100700002D68C5F303150E4E705D0B4D2D68C54069
:10071000094E356070BD0000003802400070004096
:1007200008544007003C024088ED00E0FFFFF6FE61
:10073000103000240024F4000000002000127A0091
:10074000040000200948804709480047FEE7FEE70B
:10075000FEE7FEE7FEE7FEE7FEE7FEE7FEE7FEE771
:1007600004480549054A064B704700001106000879
:1007700089010008880A002088100020880C0020C9
:10078000880C002032490143324A1160704770B52D
:10079000002100230F22C4781CB32E4C246804F4DB
:1007A000E064C4F5E064C4F30721C1F10404E3B2DA
:1007B0000A4144789C40E1B28478144021430C07FC
:1007C000210E254C05786155047804F01F0501249D
:1007D000AC4005786D11AD0005F1E025C5F800418C
:1007E00009E0047804F01F050124AC401B4D067895
:1007F000761145F8264070BD194A0A400243154B50
:100800001B1F1A60704739B1124A121D1268024349
:10081000104B1B1D1A6006E00E4A121D126882431F
:100820000C4B1B1D1A607047042808D14FF0E021C3
:10083000096941F004014FF0E022116107E04FF037
:10084000E021096921F004014FF0E02211617047B5
:100850000000FA050CED00E000E400E080E100E0BB
:1008600080FFFF1F10B50121080201F0F6FB0021F7
:100870004FF4807001F0F1FB10BD30B5024600204E
:1008800000235068F84C20400D790C6844EA052498
:10089000204350609068F54C2040D1E903542C432C
:1008A0008D682C434D7944EA450420439060D06A1A
:1008B00020F470000C7D641EE4B2234340EA035030
:1008C000D06230BD00210160017141718160C16061
:1008D00001610121017570470021E54A1168E54A6F
:1008E0001140D0E900231A4383681A43C3681A43AE
:1008F0001143E14AC2F804137047002101604160CE
:100900008160C160704721B1826842F0010282605B
:1009100003E0826822F00102826070470A460021EB
:100920004168D64B19401143416070474162826271
:1009300070470A460021416821F01F0111434160C0
:10094000704738B1CA49096841F40001CA4AC2F87F
:10095000041306E0C649096821F40001C64AC2F83A
:100960000413704738B1C249096841F48001C24A92
:10097000C2F8041306E0BE49096821F48001BE4AAA
:10098000C2F804137047F0B504460D46002000215C
:10099000092D11DDE068A5F10A0606EB46070726DA
:1009A00006FA07F18843A5F10A0606EB460603FAA4
:1009B00006F10843E0600CE0206905EB45070726D7
:1009C00006FA07F1884305EB450603FA06F10843EA
:1009D0002061072A0FDA606B561E06EB86071F267A
:1009E00006FA07F18843561E06EB860605FA06F15D
:1009F0000843606322E00D2A0FDA206BD61F06EB56
:100A000086071F2606FA07F18843D61F06EB8606DF
:100A100005FA06F10843206310E0E06AA2F10D0632
:100A200006EB86071F2606FA07F18843A2F10D069A
:100A300006EB860605FA06F10843E062F0BD816820
:100A400041F0804181607047014600208A6802F0D1
:100A500080420AB1012000E00020704721B1826885
:100A600042F48062826003E0826822F480628260E5
:100A7000704721B1826842F00202826003E082681E
:100A800022F002028260704710B50A46002100235E
:100A9000416821F46041531E41EA4331416010BD79
:100AA00021B1426842F40062426003E0426822F4ED
:100AB0000062426070470146C86C80B270476C4863
:100AC000001D0068704721B1826842F48072826024
:100AD00003E0826822F480728260704721B18268EC
:100AE00042F40072826003E0826822F40072826045
:100AF000704738B15E49096841F400515E4AC2F856
:100B0000041306E05A49096821F400515A4AC2F810
:100B100004137047F0B50446154600200022002655
:100B2000092911DDE068A1F10A0707EB470C072747
:100B300007FA0CF29043A1F10A0707EB470703FA03
:100B400007F21043E0600CE0206901EB410C07273D
:100B500007FA0CF2904301EB410703FA07F2104346
:100B60002061A06BC0F30156EF1C06F1010CA7EB4E
:100B70000C0707EB870C1F2707FA0CF29043EF1CBA
:100B800006F1010CA7EB0C0707EB870701FA07F248
:100B90001043A063F0BD10B50A4600210023816B0D
:100BA00021F44011531E41EA0351816310BD08B581
:100BB000002300930090009B0B440093009B1A605D
:100BC00008BD0A460021816821F47021114381602B
:100BD00070470A460021816821F440111143816069
:100BE0007047816841F480018160704701460020B0
:100BF0008A6802F480020AB1012000E000207047F8
:100C000021B1426842F48062426003E0426822F40B
:100C100080624260704721B1426842F48052426073
:100C200003E0426822F480524260704708B50246F1
:100C300000200090009201F12800009B18440090D1
:100C40000098006880B208BD10B50B460021D9B2EB
:100C5000012404FA01F11AB144680C43446002E033
:100C600044688C43446010BDFFFEFFFCFDF7FFC0ED
:100C700004230140E030FCFF00200140FFFD3FFF66
:100C80000246002013680B400BB1012000E0002059
:100C90007047CA430260704770B5024600200023C7
:100CA00000240B12556801268E4005EA06041568DB
:100CB0001D4015B10CB1012000E0002070BD0022E4
:100CC0000A12D34303607047016821F001010160FB
:100CD0000021016041608160C160016121214161A9
:100CE000DB49884204D13D21D94A103A91608CE019
:100CF000D7491831884205D14FF47461D44A103A6B
:100D0000916082E0D2493031884205D14FF47411AC
:100D1000CF4A103A916078E0CD494831884205D1F8
:100D20004FF07461CA4A103A91606EE0C849603170
:100D3000884204D1C749C64A103AD16065E0C44927
:100D40007831884204D1C449C14A103AD1605CE08C
:100D5000BF499031884204D1C049BD4A103AD160A0
:100D600053E0BB49A831884205D14FF03D51B84A04
:100D7000103AD16049E0BA49884204D13D21B84ACD
:100D8000083A116041E0B6491831884205D14FF464
:100D90007461B34A083A116037E0B1493031884292
:100DA00005D14FF47411AE4A083A11602DE0AC49F8
:100DB0004831884205D14FF07461A94A083A116060
:100DC00023E0A7496031884204D1A249A44A121FF6
:100DD00011601AE0A2497831884204D19E49A04AA4
:100DE000121F116011E09E499031884204D19B4945
:100DF0009B4A121F116008E09949A831884204D12A
:100E00004FF03D51964A121F1160704710B50022F5
:100E10000268944B1A40CC680B6823434C69234307
:100E20008C692343CC6923430C6A23434C6A2343D4
:100E30008C6A23434C6B23438C6B23431A4302601D
:100E4000426922F00702D1E90B3423431A4342617D
:100E50000B6943604B6883608B68C36010BD0021E1
:100E6000016041608160C160016141618161C16176
:100E7000016241628162C1620163416381637047C3
:100E800021B1026842F00102026003E0026822F030
:100E900001020260704721B1026842F40042026020
:100EA00003E0026822F400420260704721B1026848
:100EB00042F02002026003E0026822F02002026099
:100EC0007047416070470146486880B2704722B160
:100ED000036843F40023036003E0036823F4002362
:100EE00003600161704721B1026842F48022026010
:100EF00003E0026822F48022026070470AB10161B7
:100F000000E0C1607047014600200A6802F4002238
:100F10000AB1012000E000207047014600200A6865
:100F200002F001020AB1012000E0002070470146F2
:100F300000204A6902F03800704730B503460A467F
:100F400000200024464DAB4202D24149103901E055
:100F50004349103902F000550DB14C6800E00C68AF
:100F6000414D2C4004EA02050DB1012000E00020B3
:100F700030BD02463A4B9A4202D23548103801E061
:100F80003748103801F000531BB1374B0B40C3609A
:100F900002E0354B0B408360704710B501F08003D1
:100FA0004BB122B1436943F08003436103E04369DD
:100FB00023F08003436180290BD02AB1036801F03C
:100FC0001E042343036004E0036801F01E04A343EE
:100FD000036010BD70B50246002000240025204E9D
:100FE000B24202D21A4B103B01E01D4B103B1F4E88
:100FF0000E4036B11E2606EAD124166806EA04051C
:1010000002E0566906F0800501F000560EB15C68FA
:1010100000E01C68144E344004EA010616B10DB11C
:10102000012000E0002070BD02460D4B9A4202D222
:101030000748103801E00A48103801F000531BB18E
:10104000094B0B40C36002E0074B0B4083607047C5
:10105000106002403D000020400F002000003D20B5
:10106000106402403F801CF07D0F7D0F3C0F3C0F51
:10107000002041490860091D0860091D0860091D1C
:1010800008603E483C4914310860704700213A49E5
:101090008279002A3AD00A46126803689A430B46BE
:1010A0001A600A1D126803689A430B1D1A600279C0
:1010B00011440A6803681A430A602F4A083212680A
:1010C00003689A432C4B08331A601A1D1268036890
:1010D0009A43294B0C331A604279102A0ED11A1FF9
:1010E000126803681A43244B08331A601A1D1268E9
:1010F00003681A43204B0C331A600DE01E494279F5
:1011000011440A6803681A430A6005E00279114431
:101110000A6803689A430A60704700210160017100
:101120000C21417100218171704713491031096808
:101130000143114A103211607047014600200E4AE7
:10114000143212680A400AB1012000E00020704702
:10115000094914310860704701460020064A1432DC
:1011600012680A400AB1012000E0002070470249DD
:101170001431086070470000003C0140FFFF7F0011
:1011800030B943F2DB028100A1F1C0410A6005E001
:1011900043F2D2028100A1F1C0410A606FF07042B7
:1011A000411C8900A1F1C0410A608100A1F1C04148
:1011B000C1F804217047D0E901121143C2681143FC
:1011C000026911434269114382691143C2691143A3
:1011D000026A1143426A1143826A1143C26A11438F
:1011E000026B114302689200A2F1C0421160816853
:1011F00008290BD101688900A1F1C041096841F0BB
:10120000400201688900A1F1C0410A60416B096890
:10121000426B526841EA0211426B926841EA022134
:10122000426B928941EA0241426B128A41EA0251C1
:10123000426B127D41EA0261426B9269114302687E
:10124000521C9200A2F1C0421160C16AB1F5804FF8
:101250001BD1816B0968826B526841EA0211826B73
:10126000926841EA0221826B128A41EA0251826B42
:10127000127D41EA0261826B926911430268920019
:10128000A2F1C042C2F8041107E06FF07042016899
:101290008900A1F1C041C1F804217047002101601B
:1012A0000221416000218160C16001614161816171
:1012B000C16101624FF480514162490081620021A5
:1012C000C1620163F84941638163704751B1820093
:1012D000A2F1C042126842F001038200A2F1C042B2
:1012E000136009E08200A2F1C0421268EF4B1A407D
:1012F0008300A3F1C0431A60704710280AD1182157
:101300004FF020421166402151664FF0FC3191664A
:10131000D16610E01821E64A116040214FF02042CA
:10132000C2F884104FF0FC31E14A083211604FF0EE
:101330002042C2F88C10704730B5002100220023F3
:10134000446844F0080485682C43C5682C4305694B
:101350002C43456944EA4524856944EA4531C4691A
:101360002468C5696D6844EA0524C5692D8944EA85
:101370000544C5692D7B44EA0562046A2468056A50
:101380006D6844EA0524056A2D8944EA0544056A26
:101390002D7B44EA05630468102C05D14FF02044EE
:1013A0002166A266E36608E0C14C21604FF020444C
:1013B000C4F88820BE4C0C34236030BD102101607D
:1013C000002141608160C160016141618161FC2156
:1013D000C2691160C2695160C2699160C269D1601D
:1013E000026A1160026A5160026A9160026AD16009
:1013F000704799B1102808D14FF02042126E42F088
:1014000004024FF020431A661DE0A94A126842F018
:1014100004024FF02043C3F8802014E0102809D1C3
:101420004FF02042126EA14BDB1E1A404FF02043BA
:101430001A6608E09E4A12689C4BDB1E1A404FF069
:101440002043C3F88020704799B1102808D14FF08D
:101450002042126E42F040024FF020431A661DE017
:10146000934A126842F040024FF02043C3F88020B4
:1014700014E0102809D14FF02042126E8B4B3F3BF5
:101480001A404FF020431A6608E0894A1268874BD9
:101490003F3B1A404FF02043C3F88020704701467D
:1014A0000020102903D14FF02042506F02E0804A03
:1014B00014321068704718207D49203108600020E0
:1014C0000906C1F8A4004FF0FC30794928310860C2
:1014D000091D0860091D08607047016841F010018E
:1014E000426841EA4221826841EA4231704A203230
:1014F0001160C1680968C268526841EA0221C26885
:10150000128941EA0241C268127B41EA0261684ADB
:1015100028321160016909680269526841EA0221B2
:101520000269128941EA02410269127B41EA0261C1
:101530005F4A2C321160416909684269526841EA88
:1015400002214269128941EA02414269127B41EA61
:1015500002614FF02042C2F8B010704700210160D4
:1015600041608160FC21C2681160C2685160C2683C
:101570009160C268D16002691160026951600269BC
:1015800091600269D16042691160426951604269AB
:1015900091604269D160704748B14549203109687E
:1015A00041F004014FF02042C2F8A01009E0404988
:1015B000203109683D4AD21E11404FF02042C2F846
:1015C000A010704710B5F2B1102807D14FF020439A
:1015D0005B6E0B434FF02044636632E0B0F5807FD2
:1015E00008D1334B1B1D1B680B434FF02044C4F83C
:1015F000843026E02E4B24331B680B434FF02044ED
:10160000C4F8A4301DE0102807D14FF020435B6ED2
:101610008B434FF02044636613E0B0F5807F08D120
:10162000234B1B1D1B688B434FF02044C4F88430B0
:1016300007E01F4B24331B688B434FF02044C4F852
:10164000A43010BD10B5024600200023102A03D19B
:101650004FF02044636E09E0B2F5807F03D1144C53
:10166000241D236802E0124C2434236803EA010499
:101670000CB1012000E0002010BD102807D14FF070
:101680002042526E8A434FF020435A6619E0B0F56B
:10169000807F0FD1064A121D12688A434FF0204303
:1016A000C3F884200DE000001C970008FEFF0F0027
:1016B000800000A0234A12688A434FF02043C3F8F9
:1016C000A420704770B502460020002300240025A6
:1016D000102A03D14FF02046736E08E0B2F5807FE8
:1016E00003D1184E203E336801E0164E336803EAFA
:1016F000010403EAD10514B10DB1012000E000207E
:1017000070BD102808D14FF02042526E22EAD1025B
:101710004FF020435A6614E0B0F5807F09D1094AA2
:10172000203A126822EAD1024FF02043C3F8842005
:1017300007E0044A126822EAD1024FF02043C3F8BE
:10174000A4207047A40000A010B504469848844225
:1017500008D10121084600F03CFC0021012000F0E6
:1017600038FC76E09348844208D10121022000F041
:1017700030FC0021022000F02CFC6AE08E488442FC
:1017800008D10121042000F024FC0021042000F0F5
:1017900020FC5EE08948844208D10121082000F045
:1017A00018FC0021082000F014FC52E08448844218
:1017B00008D10121102000F00CFC0021102000F0C5
:1017C00008FC46E07F48844208D10121202000F037
:1017D00000FC0021202000F0FCFB3AE07A48844223
:1017E00008D10121402000F0F4FB0021402000F04E
:1017F000F0FB2EE07548844208D10121802000F0E2
:10180000E8FB0021802000F0E4FB22E070488442E5
:1018100008D10121801500F0DCFB0021A01500F0AB
:10182000D8FB16E06B48844208D10121401500F036
:10183000D0FB0021601500F0CCFB0AE06648844232
:1018400007D10121001500F0C4FB0021201500F094
:10185000C0FB10BDF0B50A4600210023002400BFE4
:101860003DE0012505FA01F3156805EA03049C42F1
:1018700034D105684F000326BE40B5430560157995
:101880004E00B5400668354305601579012D02D03C
:101890001579022D16D185684F000326BE40B54349
:1018A000856055794E00B54086683543856045684A
:1018B00001268E40B5434560456896798E40B6B2A4
:1018C00035434560C5684F000326BE40B543C5603B
:1018D000D5794E00B540C6683543C560491C10290E
:1018E000BFD3F0BD4FF6FF7101600021017141715E
:1018F0008171C171704708B54FF480320092009A2F
:101900000A430092009AC261C161009AC261C26931
:101910000092C269009208BD0246002013690B4084
:101920000BB1012000E0002070470146086980B239
:1019300070470246002053690B400BB1012000E0C4
:10194000002070470146486980B2704701837047A4
:10195000418370470AB1018300E0418370474161D0
:10196000704742694A4042617047F0B50023002445
:101970004D07ED0E02FA05F3CE1000F1200555F8E3
:1019800026504E07F70E0F26BE40B543CF1000F18C
:10199000200646F82750CE1000F1200555F82650B5
:1019A00045EA0304CE1000F1200545F82640F0BDBD
:1019B000000002400004024000080240000C024007
:1019C000001002400014024000180240001C0240B7
:1019D00000200240002402400028024010B50121EE
:1019E000080700F029FB00214FF0805000F024FB95
:1019F00010BD52490862704701460020504A1068E5
:101A000020F0E0000843106070474C4908617047BF
:101A10004A49A031086070474849A43108607047BE
:101A200001460020464A106820F4404008431060F8
:101A3000704742490864704740494864704730B174
:101A40003F49096841F440213D4A116005E03C49A5
:101A5000096821F440213A4A1160704718B1012108
:101A6000364AD16202E00021344AD162704718B18F
:101A70000121324A916202E00021304A91627047AE
:101A80002E494862704710B5024600202C4B18685A
:101A900040F6034398431043294B1860294B1B68B9
:101AA00043F00403274C2360012901D130BF00E03B
:101AB00020BF244B1B6823F00403224C236010BD7D
:101AC00010B5024600201E4B186840F603439843A9
:101AD00010431B4B18601B4B1B6843F00403194C4D
:101AE0002360012901D130BF00E020BF154B1B68E6
:101AF00023F00403134C236010BD1148006840F02C
:101B000002000F4908600F48006840F004000D49CA
:101B1000086000BF00BF30BF704701460020084A80
:101B200052680A400AB1012000E0002070470449D1
:101B3000096841EA8001024A1160704700000E42C4
:101B40000070004010ED00E0F948006840F001002E
:101B5000F74908600020F64908310860F448006839
:101B6000F4490840F2490860F348091D0860F34849
:101B7000EF4984310860F0481038091D0860EC48CE
:101B8000006820F48020EA4908600020E8490C3110
:101B90000860E7498C31086070470021E44A921CD4
:101BA000117011460870704710B5014600220023DD
:101BB00000204A11012A02D1DD4C236808E0022AE4
:101BC00003D1DB4C7034236802E0D94C74342368B1
:101BD00001F01F02012494401C400CB1012000E0E0
:101BE000002010BD38B5002000900024002500BF63
:101BF0003120FFF7D9FF05460098401C009000985F
:101C0000B0F5A04F01D0002DF2D03120FFF7CCFF6E
:101C100008B1012400E00024204638BD0146002020
:101C2000C34A106820F0F80040EAC1001060704715
:101C3000C349086070470021BD4A703211701170AD
:101C4000012802D004280AD104E00121B84A7032E8
:101C5000117005E00521B64A7032117000E000BF36
:101C600000BF7047B7490860704770B5049C41EAEF
:101C700082150126C6EB530645EA0645054345EAAB
:101C80000465AB4E361D356070BDAD4908667047C2
:101C9000820142EA0172A64B84331A607047A84958
:101CA0008866704710B5830143EA016343EA027313
:101CB0009F4C8834236010BDA14908677047A04934
:101CC000C864704702460020994B0833186820F01A
:101CD000EC6042EA01031843954B083318607047E3
:101CE00002460020924B0833186820F0784042EA00
:101CF000010318438E4B08331860704701460020DB
:101D00008B4A0832106820F00300084310607047C7
:101D100087480830006800F00C007047014600203A
:101D2000834A0832106820F0F000084310607047C2
:101D3000014600207E4A0832106820F4E050084333
:101D40001060704701460020794A0832106820F47C
:101D5000604040EAC10010607047F0B500210022E9
:101D60000024022500260223714F08373F6807F040
:101D70000C0121B1042905D0082937D105E0724FA3
:101D8000076036E0714F076033E0694F3F1D3F68E1
:101D9000C7F38056664F3F1D3F6807F03F036EB1A3
:101DA0006A4FB7FBF3F7DFF888C10CF1040CDCF8DD
:101DB00000C0CCF3881C07FB0CF40CE0624FB7FBAF
:101DC000F3F7DFF86CC10CF1040CDCF800C0CCF3C5
:101DD000881C07FB0CF4564F3F1D3F68C7F30147B3
:101DE0007F1C7D00B4FBF5F7076002E0564F0760EB
:101DF00000BF00BF4E4F08373F6807F0F0010909E8
:101E0000534F7A5C0768D7404760494F08373F68AF
:101E100007F4E051890A4E4F7A5C4768D7408760E3
:101E2000434F08373F6807F46041490B484F7A5CDD
:101E30004768D740C760F0BD002100F44072B2F59A
:101E4000407F0AD13A4A0832116821F4F811414A18
:101E500002401143364A08321160354A7032126826
:101E6000C0F30B031A43324B70331A607047354985
:101E70004439086070473349403908607047364933
:101E80000860704701460020294A8C32106820F013
:101E90001F004A1E1043264A8C32106070470146CC
:101EA0000020234A8C32106820F4F8504A1E40EA81
:101EB00002201F4A8C3210607047014600201C4AE5
:101EC0008C32106820F440100843106070470146BF
:101ED0000020174A8C32106820F44000084310603C
:101EE000704701460020124A8C32106820F44030BE
:101EF00008431060704719490860704739B10C4AAF
:101F00003032126802430A4B30331A6006E0084A46
:101F1000303212688243064B30331A607047F9B191
:101F2000034A343212680243014B34331A601CE016
:101F300000380240FFFFF6EA103000240030002095
:101F400000004742800E47420024F40000127A004D
:101F500014000020FFFCFF0F5C014742E0114742E4
:101F60008F4A126882438E4B1A60704739B18C4A8F
:101F7000121D126802438A4B1B1D1A6006E0884A34
:101F8000121D12688243864B1B1D1A60704739B1BF
:101F9000834A0C3212680243814B0C331A6006E00C
:101FA0007F4A0C32126882437D4B0C331A607047B3
:101FB00039B17B4A103212680243794B10331A60F0
:101FC00006E0774A103212688243754B10331A606C
:101FD000704739B1724A243A12680243704B243B6D
:101FE0001A6006E06E4A243A126882436C4B243B26
:101FF0001A60704739B16A4A203A12680243684B46
:10200000203B1A6006E0664A203A12688243644B1D
:10201000203B1A60704739B1614A1C3A126802438A
:102020005F4B1C3B1A6006E05D4A1C3A1268824313
:102030005B4B1C3B1A60704739B1594A143A12681D
:102040000243574B143B1A6006E0554A143A126893
:102050008243534B143B1A60704739B1504A103ACF
:10206000126802434E4B103B1A6006E04C4A103A8D
:10207000126882434A4B103B1A60704739B1484A94
:102080001C3212680243464B1C331A6006E0444A75
:102090001C3212688243424B1C331A60704739B1BC
:1020A0003F4A2032126802433D4B20331A6006E05B
:1020B0003B4A203212688243394B20331A60704702
:1020C00039B1374A243212680243354B24331A603F
:1020D00006E0334A243212688243314B24331A60BB
:1020E000704739B12E4A2C32126802432C4B2C33E4
:1020F0001A6006E02A4A2C3212688243284B2C339D
:102100001A60704739B1264A303212680243244BB4
:1021100030331A6006E0224A303212688243204B84
:1021200030331A607047012808D11D493C310968D5
:1021300041F008011A4A3C32116007E018493C316D
:10214000096821F00801164A3C321160704739B124
:10215000134A273A12780243114B273B1A7006E0C4
:102160000F4A273A127882430D4B273B1A7070476B
:102170000B484030006840F08070094940310860E9
:10218000704701460020064A283A12680A400AB100
:10219000012000E00020704701492639087070478F
:1021A0003438024008B50022009200200021CA22E3
:1021B000F94B1A6053221A60F74A183A126822F053
:1021C000A002F54B183B1A6000BFF34A183A126898
:1021D00002F02001009A521C0092009AB2F5003FD2
:1021E00001D00029F1D0EC4A183A126802F020021E
:1021F0000AB1012000E00020FF22E74B1A6008BD71
:1022000008B50022009200200021E34A183A126823
:1022100002F04002E2B9421EDF4B183B1A6000BFD9
:10222000DD4A183A126802F04001009A521C0092EE
:10223000009AB2F5803F01D00029F1D0D64A183A71
:10224000126802F040020AB1012002E0002000E022
:10225000012008BD38B50020009000240025CA20C8
:10226000CD49086053200860FFF7CAFF00B952E06B
:102270000020C9492439086042F20110091D086094
:10228000081D006800F00700091D086000BFC24873
:102290001838006800F004040098401C0090009872
:1022A000B0F5803F01D0002CF1D0BB481838006851
:1022B00000F0040008B900252DE0B7481C3800687C
:1022C0000020B5491C3908604FF6FF70B24910393B
:1022D0000860B248091F08600020AF490C39086047
:1022E000091D0860091D0860AB4908310860AA494A
:1022F00018310860A84920310860091D0860A64906
:1023000018390860A4491C310860FFF74BFF08B971
:10231000002500E00125FF209F490860284638BDC0
:102320009D481838006820F080009B4918390860E3
:10233000704730B504460025CA20974908605320ED
:102340000860FFF75DFF00B91DE093481C38006886
:1023500020F0400090491C39086008460068216858
:1023600008438D491C3908608B491439A0680860FE
:1023700008460068A18840EA01408749143908608E
:10238000FFF7CEFF0125FF2083490860284630BDB6
:10239000002101607F214160FF218160704718B1F9
:1023A000FF217D4A116004E0CA217B4A116053215C
:1023B0001160704730B504460025CA207649086090
:1023C00053200860FFF71CFF00B914E044B17248C5
:1023D0001C38006840F010006F491C39086007E0A5
:1023E0006D481C38006820F010006B491C390860EB
:1023F000FFF796FF0125FF2067490860284630BD9A
:10240000CA21654A11605321116040B162491C39EB
:10241000096841F02001604A1C3A116007E05E49FA
:102420001C39096801F0DF015B4A1C3A1160FF2189
:10243000594A116070470146002204E0501CC2B2A4
:10244000A1F10A00C1B20A29F8DA100741EA1060C6
:102450007047014600BF080900EB8000420001F010
:102460000F001044C0B270472DE9F04105460C46FC
:102470000026002755B948481C38006800F0400085
:1024800000B102E00020E07000BF0EE042481C38BE
:10249000006800F0400020B12078FFF7DAFF064620
:1024A00002E00020E07000BF00BF55B120780004BA
:1024B000617840EA0120A1780843E17840EA0146CA
:1024C00011E02078FFF7B7FF4FEA00486078FFF788
:1024D000B2FF48EA0028A078FFF7ADFF48EA0008FD
:1024E000E07848EA0046CA202B490860532008607B
:1024F000FFF786FE08B9002714E029483040264936
:1025000024390860FFF70CFF23481C38006800F0EE
:10251000200030B9FFF746FE08B9002702E0012786
:1025200000E00127FF201C4908603846BDE8F08123
:102530000021C170017041708170704770B506460E
:102540000C460025144824380068154900EA0105A6
:10255000C5F305402070C5F30620607005F07F00CC
:10256000A07005F48000000CE0705EB92078FFF7E1
:1025700070FF20706078FFF76CFF6070A078FFF745
:1025800068FFA07070BD00200349091D086802495A
:10259000203909687047000024280040FF007F00B0
:1025A0007F7F7F002DE9F04105460C46002600277D
:1025B0004DB9607800F01000102804D1607820F048
:1025C00010000A30607005B908E06078FFF741FF3D
:1025D0000646A078FFF73DFF064600BF55B1E078FC
:1025E0000004617840EA0120A1780843217840EA9C
:1025F000413611E0E078FFF71EFF4FEA00486078AF
:10260000FFF719FF48EA0028A078FFF714FF48EA0F
:102610000008207848EA4036CA20FE490860532066
:102620000860FFF7EDFD08B9002714E0FA483040D4
:10263000F84920390860FFF773FEF6481C38006837
:1026400000F0200030B9FFF7ADFD08B9002702E027
:10265000012700E00127FF20EE4908603846BDE869
:10266000F08101210170817041700021C1707047BB
:1026700070B506460C460025E64820380068E64955
:1026800000EA0105280CE070C5F30420607005F035
:102690003F00A070C5F3423020705EB9E078FFF7CC
:1026A000D8FEE0706078FFF7D4FE6070A078FFF786
:1026B000D0FEA07070BD2DE9F04105460E461446CF
:1026C00000276DB9D3481C38006800F0400000B105
:1026D00002E00020E07000BFA06800B91AE019E035
:1026E000CC481C38006800F0400020B12078FFF78B
:1026F000B0FE074602E00020E07000BFA06820B9ED
:10270000207BFFF7A6FE074604E0207BFFF7A1FE33
:10271000074600BF95B120780004617840EA0120A7
:10272000A1780843E17840EA0140217B40EA01605A
:10273000A1680843616840EA01071BE02078FFF7C1
:102740007AFE4FEA00486078FFF775FE48EA0028F5
:10275000A078FFF770FE48EA0008E07848EA0048F1
:10276000207BFFF768FE48EA0060A16808436168C3
:1027700040EA0107CA20A749086053200860B6F55F
:10278000807F03D1A3480838076002E0A148001FFA
:102790000760FF209F490860BDE8F0810021C170FB
:1027A00001704170817081600121017300214160DD
:1027B00070472DE9F04106460F4614460025B7F54F
:1027C000807F03D193480838056802E09148001FD4
:1027D0000568C5F305402070C5F30620607005F05C
:1027E0007F00A07005F48000000CE070C5F3056068
:1027F000207305F08040A06005F0803060607EB9F5
:102800002078FFF726FE20706078FFF722FE6070C8
:10281000A078FFF71EFEA070207BFFF71AFE207342
:10282000BDE8F08138B50246002400940023002062
:10283000CA24784D2C6053242C6041B1754C1C3C4B
:1028400024681443734D1C3D2C6001201EE0714C24
:102850001C3C246894436F4D1C3D2C6000BF6D4CA4
:10286000183C246804EA1223009C641C0094009C19
:10287000B4F5803F01D0002BF1D0664C183C2468A1
:1028800004EA12240CB9002000E00120FF24614D6D
:102890002C6038BD30B50023CA245E4D2C60532413
:1028A0002C6041EA0203B0F5807F03D1594C2034FB
:1028B000236002E0574C24342360FF24554D2C60E4
:1028C00030BD01460020B1F5807F05D1514A20324C
:1028D0001268C2F30E0004E04E4A24321268C2F3BA
:1028E0000E007047CA214B4A1160532111604949BB
:1028F0001C39096821F00701464A1C3A116011464B
:10290000096801431160FF21424A11607047CA21E2
:10291000404A1160532111603E4910390860FF217F
:10292000116070473B481038006880B2704718B596
:1029300001460023009300220020CA23354C236067
:102940005323236049B1334B1C3B1B6843F4806322
:10295000304C1C3C236001201FE02E4B1C3B1B68AD
:1029600023F480632B4C1C3C236000BF294B183B95
:102970001B6803F00402009B5B1C0093009BB3F5F3
:10298000803F01D0002AF1D0224B183B1B6803F096
:1029900004030BB9002000E00120FF231D4C23603D
:1029A00018BDCA221B4B1A6053221A60194A1C3ADE
:1029B000126822F48022174B1C3B1A601A461268D8
:1029C00040EA01031A43134B1C3B1A60FF22114BD0
:1029D0001A6070470F481C38006800F48020704768
:1029E000CA220C4B1A6053221A600A4A1C3A126817
:1029F00022F4E002074B1C3B1A601A46126840EAB8
:102A000001031A43034B1C3B1A60FF22014B1A605F
:102A100070470000242800403FFFFF0070B50446C7
:102A20000D460026CA20F649086053200860FFF7CB
:102A3000E7FB00B907E044EA0500F1490C390860FA
:102A4000FFF76EFC0126FF20ED490860304670BD9F
:102A500030B504460025CA20E949086053200860C3
:102A6000FFF7CEFB00B914E044B1E5481C3800681C
:102A700040F08000E2491C39086007E0E0481C385B
:102A8000006820F08000DE491C390860FFF748FC30
:102A90000125FF20DA490860284630BDCA21D84AFE
:102AA00011605321116040B1D5491C39096841F4C6
:102AB0000001D34A1C3A116007E0D1491C3909686A
:102AC00021F40001CE4A1C3A1160FF21CC4A11606A
:102AD0007047CA21CA4A116053211160C8491C3984
:102AE000096821F40021C64A1C3A116011460968A0
:102AF00001431160FF21C24A1160704770B503465F
:102B000000200024CA25BE4E356053253560BC4DDB
:102B1000183D2D6805F4803555B100E0641CB84DB2
:102B2000183D2D6805F4803515B1B4F5003FF5D199
:102B3000B34D183D2D6805F480353DB943EA0105D4
:102B40001543AF4E18363560012000E00020FF2508
:102B5000AB4E356070BD10B50A460021A84B1C3B3A
:102B60001B6840F6080423EA04011AB140F400632C
:102B7000194300E00143CA23A14C2360532323607F
:102B80009F4B1C3B1960FF23236010BD2DE9F041D2
:102B900080460C4615460026002799480C300068F0
:102BA000984900EA0106964810300068964900EA04
:102BB0000107C6F305402070C6F30620607006F0DA
:102BC0007F00A07006F48000000CE0700020E87028
:102BD000C7F30420687007F03F00A870C7F34230C5
:102BE0002870B8F1000F17D12078FFF732FC207061
:102BF0006078FFF72EFC6070A078FFF72AFCA070C9
:102C00006878FFF726FC6870A878FFF722FCA870A8
:102C10002878FFF71EFC2870BDE8F0817848143052
:102C20000068704741B9764A1C32126822EA4002B5
:102C3000734B1C331A6007E0714A1C32126842EA77
:102C400040026F4B1C331A60704739B16C4A1C321A
:102C5000126802436A4B1C331A6006E0684A1C3251
:102C600012688243664B1C331A60704764491C31FA
:102C7000096821F4C051624A1C321160114609688A
:102C80000143116070475E491C31096821F4E0611D
:102C90005B4A1C321160114609680143116070479C
:102CA00057491C31096821F4C041554A1C32116052
:102CB0001146096801431160704740B150491C3109
:102CC000096841F080014E4A1C32116007E04C490E
:102CD0001C31096821F08001494A1C32116070479B
:102CE00040B147491C31096821F40041444A1C3273
:102CF000116007E042491C31096841F40041404A33
:102D00001C321160704708B5002200923C4A2C32F8
:102D10000092009A02EB80020092009A116008BDB6
:102D200008B501460020009035482C3000900098EE
:102D300000EB810000900098006808BD30491C310C
:102D4000096821F480312E4A1C321160114609684D
:102D50000143116070472A491C31096821F4003190
:102D6000274A1C32116011460968014311607047FF
:102D700023491C31096821F48021214A1C32116049
:102D800011460968014311607047F0B504460D46CD
:102D900000270026CA201A490860532008601848F6
:102DA0001838006800F0080050B100E0761C1448A4
:102DB0001838006800F0080010B1B6F5805FF5D152
:102DC0000F481838006800F0080098B90C481C3803
:102DD000006800F0100058B945EA040008490831BD
:102DE0000860FFF7DFF908B9002704E0012702E0D7
:102DF000002700E00027FF20014908603846F0BDA9
:102E0000242800407F7F7F003FFFFF00CA223D4B08
:102E10001A6053221A6091B13A4A1C3A126820F0A3
:102E200004031A43374B1C3B1A60364A1C321268A3
:102E300000F004031A43334B1C331A6011E0314A8B
:102E40001C3A126820F004039A432E4B1C3B1A6074
:102E50002C4A1C32126800F004039A43294B1C339D
:102E60001A60FF22274B1A60704710B501460020F8
:102E70000022244B183B1B68234C03EA040202EA9D
:102E800001030BB1012000E0002010BD81B241F030
:102E900080011C4A183A126802F0800262EA0101BD
:102EA000184A183A1160704730B5014600200022D8
:102EB0000023144C1C34246804F00402114C1C3C04
:102EC00024680C4002EAD13544EA05030D4C183C55
:102ED000246804EA11121BB194B20CB1012000E085
:102EE000002030BD002101098AB242F08002054B6A
:102EF000183B1B6803F0800363EA0202014B183B96
:102F00001A607047242800407F3F010010B501215E
:102F1000C802FFF7A2F800214FF40060FFF79DF808
:102F200010BD00216C4A116847F6FF629143027D93
:102F300083681A4343681A43C3681A4303681A43F1
:102F400003691A431143644A1160704700210175F7
:102F5000016041608160C160016170475F49086044
:102F600070475D49091F086070475B48001F006893
:102F700000F0030070470021574B1B1D02681A60C8
:102F80001A1D11686FF30A01D0E901231A43C368BF
:102F90001A4303691A4311434F4A083211607047BC
:102FA0000021016041608160C160016170474A4851
:102FB0000C300068C0B2704708B501460020009090
:102FC00045481030084400900098006808BD002172
:102FD000414B203302681A601B1D42681A601A1D9B
:102FE000116821F0F701D0E902231A4303691A435B
:102FF00043691A431143384A2832116070474FF031
:10300000FF310160002141608160C1600161416167
:10301000704731482C30006870472F487C3000687A
:1030200070472D497C31086070472B484430006858
:1030300070472B49086070472949091D086070478F
:10304000274908310860704725490C3108607047EE
:103050002449086070472349091D08607047012111
:103060008143204A0832116070471E490C310860C4
:1030700070471B4914390860704739B1164A383215
:1030800012680243144B38331A6006E0124A383291
:1030900012688243104B38331A6070470146002093
:1030A0000D4A303212680A400AB1012000E00020C7
:1030B0007047094934310860704701460020064ACC
:1030C000303212680A400AB1012000E00020704747
:1030D0000149343108607047042C0140A08025422A
:1030E000A0852542AC81254210B50446FE488442A5
:1030F00008D101210846FEF7B0FF00210120FEF7AC
:10310000ACFF9DE0B4F1804F08D101210846FEF7E5
:1031100093FF00210120FEF78FFF91E0F3488442E6
:1031200008D101210220FEF787FF00210220FEF7CF
:1031300083FF85E0EE48844208D101210420FEF798
:103140007BFF00210420FEF777FF79E0E948844205
:1031500008D101210820FEF76FFF00210820FEF7AB
:103160006BFF6DE0E448844208D101211020FEF796
:1031700063FF00211020FEF75FFF61E0DF4884421B
:1031800008D101212020FEF757FF00212020FEF763
:1031900053FF55E0DA48844208D101210220FEF7AE
:1031A0005CFF00210220FEF758FF49E0D548844229
:1031B00009D101210804FEF750FF00214FF48030AF
:1031C000FEF74BFF3CE0D048844209D1012148047E
:1031D000FEF743FF00214FF40030FEF73EFF2FE0E3
:1031E000CA48844209D101218804FEF736FF002134
:1031F0004FF48020FEF731FF22E0C548844208D119
:1032000001214020FEF718FF00214020FEF714FFA7
:1032100016E0C048844208D101218020FEF70CFF4F
:1032200000218020FEF708FF0AE0BB48844207D156
:1032300001218015FEF700FF0021A015FEF7FCFE1E
:1032400010BD00220288A84B98420ED0AC4B984289
:103250000BD0B0F1804F08D0A44B984205D0A44BBE
:10326000984202D0A34B984204D14FF68F731A4074
:103270004B881A43A04B984207D0A04B984204D0E9
:103280004FF6FF431A400B891A4302804B68C36212
:103290000B880385944B984202D0994B984201D1F8
:1032A0008B7A03860123838270474FF0FF314160A0
:1032B00000210180018141808172704701858282F5
:1032C00070470A46002101884FF68F731940114359
:1032D0000180704741627047C16270470146486A89
:1032E00070470146088D704721B1028842F0020202
:1032F000028004E002884FF6FD731A400280704796
:1033000021B1028842F00402028004E002884FF6F4
:10331000FB731A400280704721B1028842F080029C
:10332000028004E002884FF67F731A4002807047E3
:1033300002884FF6F7731A40028002880A4302801F
:10334000704702884FF6FF431A40028002880A4302
:103350000280704721B1028842F00102028004E03D
:1033600002884FF6FE731A400280704770B5002441
:1033700000220023058C4FF6FE7635400584028C32
:103380008388048B4FF68F752C40B51E2C400D881A
:103390002C43751E2A408D892A434D882A43524D5D
:1033A000A84202D0564DA84213D14FF6F7752A40D5
:1033B000CD892A434FF6FB752A408D882A434FF664
:1033C000FF652B404FF6FF552B400D8A2B434D8A4E
:1033D0002B43838004838D684563028470BD70B580
:1033E000002400220023058C4FF6EF76354005843B
:1033F000028C8388048B48F6FF752C404FF6FF45FE
:103400002C400D884FF6FF7606EA05252C434FF633
:10341000DF752A408D8906EA05152A434D8806EA9C
:1034200005152A43304DA84202D0354DA8421DD182
:103430004FF67F752A40CD894FF6FF7606EA0515CF
:103440002A434FF6BF752A408D8806EA05152A43A0
:103450004FF6FF352B404FF2FF752B400D8A06EAE1
:1034600085052B434D8A06EA85052B43838004831B
:103470008D688563028470BD70B50024002200232E
:10348000058C4FF6FF6635400584028C8388848B5B
:103490004FF68F752C404FF6FC752C400D882C4351
:1034A0004FF6FF552A408D894FF6FF7606EA05252F
:1034B0002A434D8806EA05252A430B4DA84202D02F
:1034C0000F4DA84238D14FF2FF752A40CD894FF6F3
:1034D000FF7606EA05252A434FF6FF352A408D88F8
:1034E00006EA05252A4319E00000014000040040D7
:1034F00000080040000C0040001000400014004094
:1035000000040140004001400044014000480140E7
:1035100000180040001C0040002000404EF6FF75DF
:103520002B404DF6FF752B400D8A06EA05152B43FF
:103530004D8A06EA05152B43838084838D68C56315
:10354000028470BD70B5002200230024058C4EF665
:10355000FF7635400584038C8488828B48F6FF759E
:103560002A404FF6FF452A400D884FF6FF7606EABF
:1035700005252A434DF6FF752B408D8906EA053552
:103580002B434D8806EA05352B43FE4DA84202D059
:10359000FD4DA84208D14BF6FF752C400D8A4FF621
:1035A000FF7606EA85152C43848082838D68056446
:1035B000038470BD00210180418081808160818110
:1035C000C18101824182704770B50346002000240A
:1035D0001846183001258D40ACB21D8CA5431D84C2
:1035E00009B108290AD100EB610005684FF68F7612
:1035F000354005600568154305600FE00D1FC5F3F4
:103600004E052844056848F6FF7635400560056894
:103610004FF6FF7606EA02263543056070BD41632A
:10362000704781637047C1637047016470470A4601
:103630000021018B4FF68F731940114301837047AE
:103640000A460021018B48F6FF7319404FF6FF73BD
:1036500003EA02231943018370470A460021818B44
:103660004FF68F7319401143818370470A4600213A
:10367000818B48F6FF7319404FF6FF7303EA02236C
:103680001943818370470A460021018B4FF6F77377
:1036900019401143018370470A460021018B4FF204
:1036A000FF7319404FF6FF7303EA022319430183A6
:1036B00070470A460021818B4FF6F773194011437A
:1036C000818370470A460021818B4FF2FF731940B6
:1036D0004FF6FF7303EA02231943818370470A46BA
:1036E0000021018B4FF6FB73194011430183704792
:1036F0000A460021018B4FF6FF3319404FF6FF7346
:1037000003EA02231943018370470A460021818B93
:103710004FF6FB7319401143818370470A4600211D
:10372000818B4FF6FF3319404FF6FF7303EA0223F4
:103730001943818370470A460021018B4FF67F733E
:1037400019401143018370470A460021018BC1F3E0
:103750000E014FF6FF7303EA0223194301837047FA
:103760000A460021818B4FF67F73194011438183F4
:1037700070470A460021818BC1F30E014FF6FF739B
:1037800003EA02231943818370470A460021018C12
:103790004FF6FD7319401143018470470A4600211A
:1037A000018C4FF6F77319401143018470470A46A4
:1037B0000021018C4FF6DF7319404FF6FF7303EAC7
:1037C00002131943018470470A460021018C4FF609
:1037D0007F7319404FF6FF7303EA02131943018404
:1037E00070470A460021018C4FF6FF5319404FF6EF
:1037F000FF7303EA02231943018470470A4600213C
:10380000018C4FF2FF7319404FF6FF7303EA022356
:103810001943018470470A460021018C4DF6FF735D
:1038200019404FF6FF7303EA0233194301847047CE
:1038300030B5002301248C40A3B2048C9C43048443
:10384000048C02FA01F5ADB22C43048430BD30B5CE
:10385000002304248C40A3B2048C9C430484048C75
:1038600002FA01F5ADB22C43048430BD828B4FF2D5
:10387000FF331A408283828B4FF6FF7303EA0123E2
:103880001A4382837047F0B50C461546002100228A
:103890000026078C4EF6FF7C07EA0C070784818B15
:1038A000028C4FF6FF7707EA043640F6FF473940AF
:1038B0004FF6FF7707EA052739434FF6FF7707EA08
:1038C0000337394345F6FF773A4046F480573A4389
:1038D00081830284F0BD828B4FF6F3731A4082839A
:1038E000828B0A4382837047F0B50C46154600214F
:1038F00000220026078C4FF6FF6C07EA0C070784AE
:10390000818B028C4FF6FF7707EA04264FF60C777F
:1039100039404FF6FF7707EA03172F4339434FF239
:10392000FF573A4046F480773A4381830284F0BDE2
:10393000028B4FF2FF331A400283028B4FF6FF7364
:1039400003EA01231A4302837047F0B50C4615467B
:10395000002100220026078C4FF6EF7C07EA0C07B7
:103960000784018B028C4FF6FF7707EA041640F6B6
:10397000FF4739404FF6FF7707EA033739434FF6E1
:10398000FF7703E0000001400004014007EA05273B
:1039900039434FF65F773A4046F010073A430183C8
:1039A0000284F0BD028B4FF6F3731A400283028B40
:1039B0000A4302837047F0B50C46154600210022E9
:1039C000068C4FF6FE773E400684018B028C4FF644
:1039D0000C7631407E1C06EA03162E4331434FF627
:1039E000F576324044F00106324301830284F0BD93
:1039F00070B505460C46208850B92389A288618895
:103A00002846FFF7D8FFE1882846FFF7CBFF25E0DF
:103A1000208804280AD12389A28861882846FFF7D4
:103A200094FFE1882846FFF783FF17E020880828E5
:103A30000AD12389A28861882846FFF755FFE188CB
:103A40002846FFF748FF09E02389A28861882846B5
:103A5000FFF719FFE1882846FFF708FF70BD002136
:103A600001804180012181800021C1800181704756
:103A70002DE9F04105460C4600260127608808B96B
:103A8000022600E00026A088012801D1022700E0DC
:103A900001272088A0B92389A28861882846FFF7DA
:103AA0008AFFE1882846FFF77DFF23893A463146A1
:103AB0002846FFF74AFFE1882846FFF739FF13E061
:103AC0002389A28861882846FFF73FFFE1882846BE
:103AD000FFF72EFF23893A4631462846FFF76BFF52
:103AE000E1882846FFF75EFFBDE8F0810146486B9C
:103AF00070470146886B70470146C86B70470146A6
:103B0000086C70470A884B881A438B881A43CB8805
:103B10001A430B891A434B891A438B891A43A0F81D
:103B2000442070470021018041808180C180018153
:103B300041818181704731B1B0F8442042F40042A4
:103B4000A0F8442005E0B0F84420C2F30E02A0F82B
:103B50004420704721B1828842F00402828004E050
:103B600082884FF6FB731A408280704721B18288A9
:103B700042F00102828004E082884FF6FE731A4010
:103B8000828070471AB183890B43838102E0838965
:103B90008B43838170478182704702460020138ADD
:103BA0000B400BB1012000E000207047CA430282A5
:103BB000704730B50246002000230024158A05EA2C
:103BC0000103958905EA010413B10CB1012000E05D
:103BD000002030BDCA430282704741EA0203A0F8C8
:103BE000483070471AB183890B43838102E083898F
:103BF0008B438381704721B1828842F00802828022
:103C000004E082884FF6F7731A408280704701897A
:103C10004FF6F8721140018170470A460021018970
:103C20004FF68F73194011430181704730B5044638
:103C30000D4629462046FFF7F0FF208940F0070097
:103C4000208130BD2DE9F04104460D4616461F4641
:103C5000602D06D13B46012231462046FFF775FE16
:103C600005E03B46012231462046FFF7A4FE2946E7
:103C70002046FFF7D2FF208940F007002081BDE8F1
:103C8000F08130B50C4600210189C9B24FF6FF75AD
:103C900005EA0325154325432943018130BD2DE95C
:103CA000F04105460E4617469846002443463A46DC
:103CB00031462846FFF7E5FF2C894FF6F87004409F
:103CC00044F007044FF68F70044044F070042C81D8
:103CD000BDE8F081F0B504460D4616461F463B464A
:103CE000324629462046FFF7CCFF208940F4804029
:103CF0002081F0BD82884FF68F731A4082808288BF
:103D00000A438280704702894FF6F8731A40028195
:103D100002890A430281704702894FF67F731A4075
:103D2000028102890A4302817047F0B50C461546AC
:103D30001E460021002200230189028B038C4FF6CE
:103D4000F877394021434FF6FC473A4040F20117DB
:103D50003A434FF6DD773B404FF6FF7707EA061709
:103D60002F433B43018102830384F0BD21B182884C
:103D700042F08002828004E082884FF67F731A400E
:103D800082807047A0F850107047000010B50446BC
:103D9000FA48844208D101211020FEF75EF9002183
:103DA0001020FEF75AF957E0F548844209D1012165
:103DB0004804FEF741F900214FF40030FEF73CF9CA
:103DC0004AE0F048844209D101218804FEF734F921
:103DD00000214FF48020FEF72FF93DE0EA488442AD
:103DE00009D10121C804FEF727F900214FF4002072
:103DF000FEF722F930E0E548844209D101210805A7
:103E0000FEF71AF900214FF48010FEF715F923E0B0
:103E1000DF48844208D101212020FEF71EF900214D
:103E20002020FEF71AF917E0DA48844209D101216F
:103E30008807FEF701F900214FF08040FEF7FCF8FB
:103E40000AE0D548844207D101214005FEF7F4F885
:103E500000216005FEF7F0F810BD2DE9FF4705468B
:103E60000E460024A14600BFA046B08900B100BFA5
:103E70002C8A24F44054F08804432C82AC8941F20B
:103E80000C608443B0883189084371890843044336
:103E9000AC81AC8A24F44074B0890443AC82684697
:103EA000FDF75BFFB548854202D0B948854202D193
:103EB000DDF80C9001E0DDF80890A88900F40040DE
:103EC00040B109EBC90000EB091031684900B0FBB3
:103ED000F1F707E009EBC90000EB09103168890030
:103EE000B0FBF1F76420B7FBF0F004012009642176
:103EF00001FB1078A88900F4004040B1322000EBAB
:103F0000C800B0FBF1F000F00700044308E03220E5
:103F100000EB08106421B0FBF1F000F00F00044347
:103F20002C81BDE8FF874FF416510160002181808C
:103F3000C18001810C21418100218181704710B530
:103F400002460020108A20F470600B884C882343BE
:103F50008C882343CC8823431843108210BD002152
:103F6000018041808180C180704721B1828942F403
:103F70000052828104E082894DF6FF731A408281EB
:103F80007047028B02F47F420283028B0A43028352
:103F9000704721B1828942F40042828103E0828924
:103FA000C2F30E028281704721B1828A42F400621C
:103FB000828204E0828A4FF2FF731A408282704745
:103FC000C1F308028280704701468888C0F3080068
:103FD0007047028A4FF6F0731A400282028A0A433F
:103FE0000282704721B1828942F00202828104E09C
:103FF00082894FF6FD731A408281704782894FF2A1
:10400000FF731A40828182890A4382817047028A43
:104010004FF6DF731A400282028A0A430282704717
:1040200021B1028A42F48042028204E0028A4BF605
:10403000FF731A4002827047818941F0010181813A
:10404000704721B1828A42F00802828204E0828AAB
:104050004FF6F7731A4082827047028BD2B2028306
:10406000028B42EA01220283704721B1828A42F028
:104070002002828204E0828A4FF6DF731A40828235
:10408000704721B1828A42F01002828204E0828A63
:104090004FF6EF731A4082827047828A4FF6FB73A5
:1040A0001A408282828A0A438282704721B1828AC0
:1040B00042F00202828204E0828A4FF6FD731A40C7
:1040C000828270471AB1838A0B43838202E0838A1B
:1040D0008B4383827047F0B50346002400260025F9
:1040E000002040F66A17B94200D100BF1846C1F35C
:1040F000421401F01F06012707FA06F5012C01D131
:104100000C3004E0022C01D1103000E014301AB160
:1041100007682F43076002E00768AF430760F0BD00
:1041200002460020B1F5007F00D100BF13880B408C
:104130000BB1012000E00020704701F40072B2F5DD
:10414000007F00D100BFCA430280704770B50246AD
:10415000002400230025002040F66A16B14200D159
:1041600000BFC1F3421501F01F03012606FA03F355
:10417000012D13D19689334017E000000010014053
:104180000044004000480040004C00400050004007
:104190000014014000780040007C0040022D02D154
:1041A000168A334001E0968A33400C12012606FA43
:1041B00004F41688344013B10CB1012000E0002053
:1041C00070BD10B50022002340F66A14A14200D150
:1041D00000BF0A1201249440A3B2DC43048010BD46
:1041E00010B504466FF00400FCF71EFBE11704EB6A
:1041F0005171C1F3C701394A11701046007800EBC4
:104200004001C1EBC0104FF6FF7101EAC000344914
:10421000088010BD0146314A12784A434FF0E0232E
:104220005A6100229A611A46126942F001021A612B
:1042300000BF4FF0E022106900F001021AB100F453
:104240008032002AF5D04FF0E022126922F00102FC
:104250004FF0E0231A6100229A6170470146204A1C
:1042600012884A434FF0E0235A6100229A611A46AD
:10427000126942F001021A6100BF4FF0E02210699A
:1042800000F001021AB100F48032002AF5D04FF09C
:10429000E022126922F001024FF0E0231A610022AD
:1042A0009A61704770B504464FF4077094FBF0F0C4
:1042B000C6B24FF4077094FBF0F100FB114085B2D9
:1042C00005E04FF40770FFF7C9FF701EC6B2002E5D
:1042D000F7D115B12846FFF7C1FF70BD24000020BB
:1042E00026000020014600BF704700BF4C4A1288DC
:1042F00002F04002002AF9D0C2B2494B9A807047BE
:1043000010B588B0044601210846FDF7F7FD0121EC
:104310001020FDF74DFE072209214248FDF725FB3D
:1043200007220A213F48FDF720FB4FF4C0600690AA
:1043300002208DF81C008DF81D0000208DF81E0055
:1043400001208DF81F0006A93648FDF783FA029474
:104350000020ADF80C00ADF80E00ADF81000ADF87F
:1043600014000C20ADF8120002A92D48FFF775FDCE
:1043700001212B48FFF7F9FD012240F22551284881
:10438000FFF7A9FE25208DF8040003208DF8050015
:104390008DF8060001208DF8070001A8FCF7F7F959
:1043A00008B010BD10B540F225511D48FFF7CEFEF4
:1043B00010B31B48FFF708FEC4B21B48008800F486
:1043C0000040C8B91848008800F4804060B10A2C49
:1043D00003D000201449088020E01348008840F4EE
:1043E00000401149088019E00D2C06D10E480088C4
:1043F00040F480400C49088010E00B480088C0F36E
:104400000D000A490C5408480088401C06490880E1
:1044100008460088C72801DD0020088010BD000084
:1044200000100140000002402C0000204C00002041
:104430001CB501212020FDF761FD4FF4C060009004
:1044400001208DF8040000208DF8060003208DF86F
:10445000050001208DF8070069460448FDF7FAF9C8
:104460004FF4C0610148FDF771FA1CBD0014024011
:1044700001B5BDF800000090BDF80000FE490880BD
:1044800008BD01B5BDF800000090BDF80000FA4974
:10449000891C088008BD08B5F748801C008800907A
:1044A000BDF8000008BDF44A10804FF0D842A2F8D1
:1044B0008010704710B504462046FFF7D9FF05204D
:1044C000FFF7A8FEFFF7E7FF10BDEC480089EA49B7
:1044D00008807047E849891C0880704730B501465C
:1044E00001F01F04C1F34513CA0AE50205EB4315A9
:1044F0001544A8B230BD00BF0100A0F10102D0B246
:10450000FAD1704710B502460C46DC494889FFF7DE
:10451000AFFF082A01DD012100E000210846FFF776
:10452000B0FFD0B2FFF7ADFFD4498889FFF7A0FFF5
:104530002012FFF7A6FFE0B2FFF7A3FF10BDF0B512
:1045400004460D4600260027CC480088A04203DD23
:10455000CA484088A84201DC0020F0BD2946204618
:10456000FFF7D0FF2E20FFF783FFF7B24FF6FF7063
:1045700000EA07273046F0E700B52920FFF778FF6B
:1045800000BD00B52820FFF773FF00BD70B50546DC
:1045900000240026082D1AD2DFE805F00406090CD5
:1045A0000F12151800BF12E044F080040FE044F031
:1045B00040040CE044F0C00409E044F0200406E0AC
:1045C00044F0600403E044F0A00400E000BF00BF3A
:1045D0003626AA494889FFF74BFF0020FFF751FF15
:1045E0000020FFF74EFFA5490988491EC1F30F209F
:1045F000FFF747FFA1490978491EC8B2FFF741FFFD
:104600009E498889FFF734FF0020FFF73AFF00201A
:10461000FFF737FF99494988491EC1F30F20FFF77B
:1046200030FF96498978491EC8B2FFF72AFF44F443
:10463000805421463046FFF736FF70BD30B5044642
:104640000D4629462046FFF75DFF2C20FFF710FF9F
:10465000FFF73BFF8A4800888749891C088030BDE6
:1046600030B504460D4685494889FFF701FF201201
:10467000FFF707FFE0B2FFF704FF2012FFF701FF8B
:10468000E0B2FFF7FEFE7D498889FFF7F1FE2812B0
:10469000FFF7F7FEE8B2FFF7F4FE2812FFF7F1FE8E
:1046A000E8B2FFF7EEFE75480089734908804FF0C5
:1046B000D840A0F8802030BD70B52DED048B0446A5
:1046C000BE20FFF7D5FE0520FFF7DBFE204604F0F5
:1046D000B2FD41EC190B9FED6B0B53EC102B04F06A
:1046E000BDFD41EC180B04F079FD85B22846FFF7BB
:1046F000C8FE0120FFF7C5FEFF20FFF7C2FE002025
:10470000FFF7BFFE0020FFF7BCFEBDEC048B70BDC1
:1047100010B504462C20594908812A2048812B20B5
:1047200088814FF4A07008804FF4F070488000201A
:10473000FFF72CFF10BD2DE9F04F86B004460D4663
:1047400016461F46A019401E1FFA80F8E819401EA1
:104750001FFA80F949494889FFF78AFE2012FFF7BE
:1047600090FEE0B2FFF78DFE4FEA2820FFF789FEAA
:1047700008F0FF00FFF785FE40498889FFF778FEC3
:104780002812FFF77EFEE8B2FFF77BFE4FEA2920F2
:10479000FFF777FE09F0FF00FFF773FE4FF0500AB6
:1047A0004FF0510B5220059053200490504603992E
:1047B000FFF779FE58460299FFF775FE01990598B3
:1047C000FFF771FE00990498FFF76DFE2946204619
:1047D000FFF798FE4FF4A070284908804FF4F0705E
:1047E000488006B0BDE8F08F70B504460026234827
:1047F0000588408845432148808846F60401884260
:1048000016D11E488079012812D100201B498871D9
:104810002A2048812B20888100210846FFF772FE5C
:104820000120164988712B2048812A20888103E0C5
:1048300000210846FFF766FEFFF747FE002603E06B
:104840000D48801C0480761CAE42F9D370BD00B5C3
:10485000A1B00020209001217A20FDF74FFB01211B
:104860000846FDF783FB4FF400401E9001208DF8B1
:104870007C0000200AE000007E00006C1401002093
:104880002E00002066666666666604408DF87E002F
:1048900002208DF87D0001208DF87F001EA9FE48C2
:1048A000FCF7D8FF4CF233701E9002208DF87C008C
:1048B00000208DF87E0003208DF87D0001208DF80A
:1048C0007F001EA9F548FCF7C5FF4FF680701E90CB
:1048D00002208DF87C0000208DF87E0003208DF8EA
:1048E0007D0001208DF87F001EA9ED48FCF7B2FF86
:1048F0004FF480501E9002208DF87C0000208DF82F
:104900007E0003208DF87D0001208DF87F001EA918
:10491000E448FCF79FFF4FF480501E9002208DF872
:104920007C0000208DF87E0003208DF87D000120A2
:104930008DF87F001EA9DC48FCF78CFF0C220021BB
:10494000D648FDF712F80C220121D448FDF70DF8E6
:104950000C220421D148FDF708F80C220521CF488C
:10496000FDF703F80C220821CC48FCF7FEFF0C22CF
:104970000921CA48FCF7F9FF0C220A21C748FCF7B5
:10498000F4FF0C220E21C548FCF7EFFF0C220F218B
:10499000C248FCF7EAFF0C220721C148FCF7E5FFFB
:1049A0000C220821BE48FCF7E0FF0C220921BC487C
:1049B000FCF7DBFF0C220A21B948FCF7D6FF0C22DA
:1049C0000B21B748FCF7D1FF0C221146B448FCF785
:1049D000CCFF0C220D21B248FCF7C7FF0C220E21A0
:1049E000AF48FCF7C2FF0C220F21AD48FCF7BDFF1A
:1049F0000C221146AB48FCF7B8FF0C221146AA481E
:104A0000FCF7B3FF0F200890002009903C200A908B
:104A100000200B900C900D900E900920019000202A
:104A200002900820039000200490059006900790C3
:104A300006200F900020109011901020129000205E
:104A4000139015901490169017904FF48050189072
:104A5000002019904FF480401A9000201B9008A865
:104A60001C9001A81D900FA8FCF7A5FB01210620B2
:104A7000FCF72CFC3220FFF715FC01210020FFF78A
:104A800012FD3220FFF70EFC0020FFF713FD8749CF
:104A90008880D320FFF7ECFCFFF7FDFC834988807A
:104AA000FFF7F9FC81498880FFF7F5FC7F49888092
:104AB000084680884FF6FF7101EA00207B49888014
:104AC000FFF7E9FC794989880843784988800846D6
:104AD000808849F2884188421CD17548006820F0DE
:104AE0000F004FF02041C1F81C010846D0F81C010E
:104AF00020F47060C1F81C010846D0F81C0140F099
:104B00000300C1F81C010846D0F81C0140F40070F5
:104B1000C1F81C016548818866A002F083FD6348E6
:104B2000808849F2884188427ED1E020FFF7A0FCCE
:104B30000020FFF7A6FC0720FFF7A3FC1020FFF7DB
:104B4000A0FC0920FFF79DFC1720FFF79AFC0B2023
:104B5000FFF797FC4120FFF794FC8920FFF791FCB9
:104B60004B20FFF78EFC0A20FFF78BFC0C20FFF791
:104B700088FC0E20FFF785FC1820FFF782FC1B2025
:104B8000FFF77FFC0F20FFF77CFCE120FFF770FCB4
:104B90000020FFF776FC1720FFF773FC1A20FFF7C1
:104BA00070FC0420FFF76DFC0E20FFF76AFC062066
:104BB000FFF767FC2F20FFF764FC4520FFF761FC3F
:104BC0004320FFF75EFC0220FFF75BFC0A20FFF7A3
:104BD00058FC0920FFF755FC3220FFF752FC362025
:104BE000FFF74FFC0F20FFF74CFCC020FFF740FC05
:104BF0001120FFF746FC0920FFF743FCC120FFF717
:104C000037FC4120FFF73DFCC520FFF731FC0020B9
:104C1000FFF737FC0A20FFF734FC8020FFF731FC58
:104C20003620FFF725FC00E061E04820FFF729FC73
:104C30003A20FFF71DFC5520FFF723FCB020FFF7BB
:104C400017FC0020FFF71DFCB120FFF711FCB0207E
:104C5000FFF717FC1120FFF714FCB420FFF708FC46
:104C60000220FFF70EFCB620FFF702FC0220FFF740
:104C700008FC2220FFF705FCE920FFF7F9FB0020E4
:104C8000FFF7FFFBF720FFF7F3FBA920FFF7F9FB86
:104C90005120FFF7F6FB15E000040240000C024033
:104CA00000100240001402400018024014010020CD
:104CB0001C0100A0204C43442049443A25780D0AA9
:104CC000000000002C20FFF7DCFB8220FFF7D9FB5F
:104CD0002120FFF7CDFB1120FFF7CAFB7820FFF75B
:104CE000E1FA2920FFF7C4FB2C20FFF7C1FB0020CD
:104CF000FFF70EFD0120F84908604FF6FF70FFF73F
:104D000073FD21B000BD2DE9FC4F05460E46174648
:104D10009846DDF82C9000200190F048808846F6F7
:104D20000401884229D1ED488079012825D1AB467C
:104D30003546EA480088C01B401E86B24746E74811
:104D40000088A0EB0B00401E1FFA80F80020E3490A
:104D500088712A2048812B20888143463A46314673
:104D60002846CDF80090FFF7CEFF0120DB4988717F
:104D70002B2048812A2088811DE0781B401C80B2AE
:104D80000190344615E021462846FFF7BBFBFFF7AC
:104D90009CFB4FF0000A07E04FF0D840A0F880904D
:104DA0000AF101001FFA80FA01988245F4DB601CC9
:104DB00084B24445E7DDBDE8FC8F2DE9F84F074696
:104DC0000D4690469946DDF828B0A8EB0700401C38
:104DD0001FFA80FAA9EB0500401C80B20090002465
:104DE00014E0281981B23846FFF78CFBFFF76DFB02
:104DF000002607E004FB0A603BF81000B849088071
:104E0000701C86B25645F5DB601C84B20098844263
:104E1000E7DBBDE8F88F2DE9FF4F84B081468A4675
:104E20000020039002900698A0EB09050798A0EBDC
:104E30000A06CDF80490CDF800A0002D01DD012771
:104E400005E00DB9002702E04FF0FF376D42002E5C
:104E500002DD4FF0010806E016B94FF0000802E04D
:104E60004FF0FF387642B54201DD2C4600E0344673
:104E70004FF0000B21E0009A91B2019A90B2FFF737
:104E8000DDFB039828440390029830440290039875
:104E9000A04205DD0398001B03900198384401905F
:104EA0000298A04205DD0298001B02900098404441
:104EB00000900BF101001FFA80FB601C8345DADDD6
:104EC00008B0BDE8F08FF0B504460D4616461F4603
:104ED0002B46324629462046FFF79DFF3B46224699
:104EE00029462046FFF797FF3B4632463946204683
:104EF000FFF791FF3B46324629463046FFF78BFFCE
:104F0000F0BD2DE9F04306460F4690460024454685
:104F10000320A0EB48093CE07A1B91B2321990B211
:104F2000FFF78CFB3A1B91B2721990B2FFF786FB28
:104F30003A1991B2721990B2FFF780FB7A1991B2C7
:104F4000321990B2FFF77AFB7A1991B2321B90B204
:104F5000FFF774FB3A1991B2721B90B2FFF76EFB28
:104F60007A1B91B2321B90B2FFF768FB3A1B91B2E9
:104F7000721B90B2FFF762FB641CB9F1000F03DAF9
:104F8000A000801D814404E0601B80000A30814441
:104F90006D1EAC42C0DDBDE8F0832DE9F84F8046C0
:104FA0000E4617461C46B3462046E31704EB5373E0
:104FB000DB1021464FEAE47C04EB5C7C4FEAEC0C0E
:104FC000A4EBCC0CBCF1000F02D04FF0010C01E0BF
:104FD0004FF0000C6344224604EBD27C4FEA6C0C89
:104FE00003FB0CF3DBB20093A7F12000C7B200254E
:104FF00056E00C2C07D107EB47003A4901EB800043
:1050000010F8059013E0102C05D1374800EB07107D
:1050100010F805900BE0182C07D107EBC7003349B7
:1050200001EB800010F8059001E0BDE8F88F4FF02B
:10503000000A2FE009F0800030B12D480288314687
:105040004046FFF70DFB07E00A9828B92948028877
:1050500031464046FFF704FB4FEA49604FEA1069CA
:10506000701C86B21D484088B04200DCDDE7A6EB2C
:105070000B00A0420AD15E4608F101001FFA80F839
:1050800016480088404500DCCFE706E00AF1010041
:1050900000F0FF0ABAF1080FCCDB00BF681CC5B2F4
:1050A00000988542A5DB00BFBFE710B5024601208E
:1050B00000E050430B00A1F10104E1B2F9D110BDB1
:1050C0002DE9FF4F81B0074691461E460E9D4FF0D9
:1050D000000A00244AE00000BC8240421401002083
:1050E0008000006C38970008AC9B00089CA1000869
:1050F0002E00002030000020301B401EC1B20A20CC
:10510000FFF7D3FFB9FBF0F00A21B0FBF1F201FB8E
:105110001208BAF1000F16D1701EA04213DDB8F1CB
:10512000000F0ED10020AB4605EBDB71491001FBEF
:105130000471009088B22B4620220299FFF72DFFC0
:1051400012E04FF0010A0020AB4605EBDB7149107D
:1051500001FB0471009088B208F13001CAB22B46FD
:105160000299FFF71AFF00BF601CC4B2B442C3DB50
:1051700005B0BDE8F08F2DE9FF4F82B0064692469C
:105180001F46DDE90F480020019000254DE0781B07
:10519000401EC1B20A20FFF788FFBAFBF0F00A21D7
:1051A000B0FBF1F201FB1209019850BB781EA84236
:1051B00027DDB9F1000F22D108F0800078B108F0A6
:1051C0000100A34604EBDB71491001FB056100906F
:1051D00088B2234630220399FFF7DFFE0EE008F085
:1051E0000100A34604EBDB71491001FB056100904F
:1051F00088B2234620220399FFF7CFFE13E0012057
:10520000019008F00100A34604EBDB71491001FB9B
:105210000561009088B209F13001CAB223460399B2
:10522000FFF7BBFE00BF681CC5B2BD42AFDB06B0D6
:10523000BDE8F08F2DE9F84704460D4690469946A3
:10524000DDE9096704F0FF0A08EB04001FFA80F8A3
:1052500009EB05001FFA80F916E0444502DB5446CD
:10526000A81985B24D4500DB14E0002000903A7883
:10527000334629462046FFF790FE304606EBD071B4
:1052800004EB61018CB27F1C38787E2802DC387810
:105290002028E2DA00BFBDE8F887000000B58DB035
:1052A00001210846FCF72AFE01210802FCF780FED6
:1052B00020200B9003208DF8300001208DF8330062
:1052C0000BA95648FCF7C6FA01210802FCF7C5FEF7
:1052D00000214FF48070FCF7C0FE0120FBF731FB8A
:1052E000002007900A9009904FF48030089007A89A
:1052F000FBF7F2FA002001908DF808008DF8090004
:105300000390059001208DF8180001A94448FBF78F
:10531000B4FA0723012205214148FBF734FB072398
:10532000012210213E48FBF72EFB01213C48FBF7F0
:10533000EAFA0DB000BD10B504460723012221464C
:105340003748FBF720FB3648FBF779FB00BF02210B
:105350003348FBF795FC0028F9D03148FBF7ABFB4D
:1053600010BD2DE9F04107460C460025002608E057
:105370003846FFF7E0FF05440520FEF793FF701C59
:10538000C6B2A642F4DBB5FBF4F080B2BDE8F08112
:1053900010B52DED088B0A211020FFF7E2FF08EE73
:1053A000100AB8EE480A10EE100A04F03FF941EC7A
:1053B0001A0B9FED1C0B53EC102B03F04FFF41EC2D
:1053C000190B9FED1A0B53EC102B51EC190B04F039
:1053D00043F841EC1B0B9FED170B53EC102B03F024
:1053E00075FD41EC1A0B9FED150B53EC102B03F0E0
:1053F000C5FC41EC190B9FED130B53EC102B51EC3A
:10540000190B03F02BFF41EC190B41EC1A0B03F0C5
:10541000B5FE04B22046BDEC088B10BD0000024072
:10542000002001406666666666664A3F52B81E8581
:10543000EB51E83F7B14AE47E17A643F0000000087
:10544000000039400000000000005940F8B5044653
:105450000D4617461E468DF800408DF801508DF818
:1054600002708DF8036069460020FCF7FDFFF8BD6F
:10547000F8B504460D4617461E468DF802708DF8A5
:1054800001508DF800608DF8034069460020FDF75B
:1054900089F8F8BD3EB541F6FF7401210807FCF715
:1054A00076FD0120FCF7A5FA0020FDF739FC45F256
:1054B0005001884231D00120FCF7BDFB04E0601CA4
:1054C00084B20A20FEF7EEFE4120FCF76DFB0028B7
:1054D000F5D00CB901203EBD4FF48070FCF7ACFC58
:1054E0000120FCF7C4FC7F200190FF2002900020E7
:1054F00000906846FCF71DFF002338223B2117204F
:10550000FFF7A4FF0223062203211220FFF7B0FFBA
:1055100045F250010020FDF7F6FB0020DBE7F0B577
:1055200087B004460D4616461F4600214FF4807092
:10553000FDF778F98DF800508DF801608DF8027054
:1055400000208DF803008DF810404FF0804003904C
:10555000002002900098019001AA4FF48071002071
:10556000FDF7A9F84FF48050FDF7BCFC4FF4003074
:10557000FBF7FDFD01210803FDF748FC01210802AE
:10558000FDF750F94FF40030059000208DF8180019
:1055900008208DF8190001208DF81A0005A8FBF7E6
:1055A00075FD292035490870022048708870012057
:1055B000C8700846FBF7EBF807B0F0BD7CB50546B0
:1055C0000C460020FDF7B3F92846FDF78BF920467D
:1055D000FDF79DF94FF48040FDF784FC4FF4800007
:1055E000FBF7C5FD01218803FDF710FC0120FDF745
:1055F0009EF94FF48000009000208DF804000820F0
:105600008DF8050001208DF806006846FBF73EFD89
:1056100003201A4908700220487088700120C87061
:105620000846FBF7B4F87CBD10B54FF48070FDF769
:105630001CFC012805D10002FDF728FC10A001F098
:10564000F1FF4FF40030FBF792FD10BD10B54FF4A1
:105650008060FDF70AFC01280AD18002FDF716FCE4
:105660000A48006808B9012000E0002007490860E6
:105670004FF48000FBF77BFD10BD000032000020DE
:10568000414C41524D2041210D0A0000A882424266
:105690000020FE490860091D0860091D0860091DF9
:1056A0000860FA4924310860091D0860091D086076
:1056B000F748F649383108600020091D0860704736
:1056C00001460020012900D011B9F24B197000E009
:1056D000262070470146ED4A121D106820F0FF0099
:1056E00008431060704770B5044606E0E748343060
:1056F000056805F0450000B100E0F7E700BF0420B1
:10570000FDF7CCFC20B10420FDF7D3FC032070BDD5
:105710000120FDF7C3FC20B10120FDF7CAFC0120E8
:10572000F5E7DA4810300068A04201D01020EEE71B
:1057300040F2FF50FDF7BDFCD4481430006808214A
:105740000840C0B2E3E72DE9FC4107460D460026BC
:1057500000240020009001900820CF49086010200C
:105760004860402088600020C8604FF48060086175
:105770000846FDF700FC1020FFF7B5FF044614B102
:105780002046BDE8FC81C54800880004C249086085
:1057900037204860402088600020C8604FF4806057
:1057A00008610846FDF7E7FB3720FFF79CFF04463A
:1057B0000CB12046E5E74FF0FF30B94908600820FA
:1057C0004860302088600220C86000200861012005
:1057D00048610846FDF7FBFB0020AF490860332015
:1057E0004860402088600020C8604FF480600861F5
:1057F0000846FDF7C0FB3320FFF775FF04460CB1E8
:105800002046BEE70DE04FF40010FDF747FC40B125
:105810009E48803000684DF82600761C022E00D38A
:1058200007E09A483430006840F22A6108400028B6
:10583000E9D000BF0820FDF731FC20B10820FDF7BA
:1058400038FC04209DE70220FDF728FC20B102204F
:10585000FDF72FFC022094E72020FDF71FFC20B16C
:105860002020FDF726FC06208BE74FF40070FDF7A3
:1058700015FC28B14FF40070FDF71BFC072080E7F2
:1058800040F2FF50FDF715FC00980006009901F466
:105890007F4140EA0120009901F47F0140EA112094
:1058A000009940EA1160686001980006019901F4CE
:1058B0007F4140EA0120019901F47F0140EA112073
:1058C000019940EA1160286020465AE77CB50546F8
:1058D000002400200090019000260DB1022600E077
:1058E00000266A481430006800F0007008B10E20ED
:1058F0007CBD6A49098888B26946FFF724FF0446DF
:105900000CB12046F4E7019800F4802060B36348AE
:1059100000880004604908603720486040208860A3
:105920000020C8604FF4806008610846FDF723FB43
:105930003720FFF7D8FE04460CB12046D8E756487A
:105940000660062054494860402088600020C860F6
:105950004FF4806008610846FDF70DFB0620FFF755
:10596000C2FE04462046C3E72520C1E770B50446C1
:1059700000254C480078032802D12725284670BD11
:105980004848007838B147480078012803D0454896
:105990000078022819D1B4F5805F02D12725284666
:1059A000EDE7E0B2FFF792FF054675B93748001DF5
:1059B000006820F4C0503549091D08600846006899
:1059C000204308600846006808602846D7E710B5FD
:1059D00004463148046007202F4948604020886011
:1059E0000020C8604FF4806008610846FDF7C3FAE4
:1059F0000720FFF778FE10BDF0B501460020002219
:105A0000284B1B7881F85630244B1B88A1F8543062
:105A1000254B1B681A0E93090B70C2F383034B705E
:105A200002F003038B70204B1B68C3F30742CA705C
:105A30001D4B1B88C3F307220A711B4B1A784A714E
:105A40005B681A0E1301CB80174B5B68C3F30742E8
:105A5000CB8843EA1213CB8002F00F030B72124B78
:105A60009B88C3F30722D3094B72C2F380138B7256
:105A7000C2F34013CB72C2F300130B7300234B73BA
:105A8000084B1B78C3B1074B1B780FE0002C01407B
:105A9000FF07C00040000020400100203C00002023
:105AA00054010020380000206C010020012B03D09D
:105AB000FE4B1B78032B4FD193071B0D0B61FC4B47
:105AC0001A790B6943EA82030B61F94B9B681A0E42
:105AD0000B6943EA92130B61C2F3C2030B7502F028
