:020000040800F2
:1000000070070020910600086504000867040008D6
:100010006B0400086F04000873040008000000006F
:10002000000000000000000000000000770400084D
:1000300079040008000000007B0400087D0400082B
:10004000AB060008AB060008AB06000871430008C9
:10005000AB060008AB060008AB060008AB060008BC
:10006000AB060008AB060008AB060008AB060008AC
:10007000AB060008AB060008AB060008AB0600089C
:10008000AB060008AB060008AB060008AB0600088C
:10009000AB060008AB060008AB060008AB0600087C
:1000A000AB060008AB060008AB060008AB0600086C
:1000B000AB060008AB060008AB060008AB0600085C
:1000C000AB060008AB060008AB060008AB0600084C
:1000D000AB060008C9300008AB060008AB060008F4
:1000E000AB0600084D430008AB060008AB0600084D
:1000F000AB060008AB060008AB060008AB0600081C
:10010000AB060008AB060008AB060008AB0600080B
:10011000AB060008AB060008AB060008AB060008FB
:10012000AB060008AB060008AB060008AB060008EB
:10013000AB060008AB060008AB060008AB060008DB
:10014000AB060008AB060008AB060008AB060008CB
:10015000AB060008AB060008AB060008AB060008BB
:10016000AB060008AB060008AB060008AB060008AB
:10017000AB060008AB060008AB060008AB0600089B
:10018000AB060008AB06000800F002F800F041F8EA
:100190000AA090E8000C82448344AAF10107DA45E2
:1001A00001D100F036F8AFF2090EBAE80F0013F0F3
:1001B000010F18BFFB1A43F00103184764670000E2
:1001C00084670000103A24BF78C878C1FAD8520773
:1001D00024BF30C830C144BF04680C6070470000C1
:1001E0000023002400250026103A28BF78C1FBD840
:1001F000520728BF30C148BF0B607047782904F010
:100200002381002070471FB504F079FF1FBD10B592
:1002100010BD04F073FA1146FFF7F5FF00F008F87F
:1002200004F091FA03B4FFF7F2FF03BC02F0ECFE16
:1002300086B000244FF4A06000F04AFAA82002F033
:1002400061FE4FF4E13002F0EDFE02F083FF03F0B7
:1002500090F903F0B5FE4FF4784069490880694889
:10026000828869A103A804F0B3F8C8E00C2C41D23D
:10027000DFE804F0060B0F13181D22272C31363B44
:100280004FF6FF7003F042F934E0002003F03EF92E
:1002900030E01F2003F03AF92CE04FF4784003F0EF
:1002A00035F927E04FF61F0003F030F922E04FF454
:1002B000FC6003F02BF91DE047F6FF7003F026F910
:1002C00018E04FF6E07003F021F913E04FF6074015
:1002D00003F01CF90EE048F2304003F017F909E092
:1002E0004CF2186003F012F904E04BF6404003F0C2
:1002F0000DF900BF00BF4FF478404149088045A088
:1003000018210B46D222CDE9001028211E2003F02F
:1003100023FE45A010210B46C822CDE9001046213E
:100320001E2003F019FE43A010210B46C822CDE980
:1003300000105A211E2003F00FFE03A810210B46C7
:10034000C822CDE900106E211E2003F005FE601CBE
:10035000C4B20C2C00D100BF1F202949088039A04D
:1003600010210B46C822CDE900108C211E2003F07D
:10037000F3FD43E003F09EFE0546002D0CDA6842D3
:1003800005B235A010210B460A46CDE900108C219C
:100390006E2003F0E1FD09E030A010210B460A4673
:1003A000CDE900108C216E2003F0D6FD642095FB72
:1003B000F0F60020102102233246CDE900108C21F6
:1003C000762003F06AFD642095FBF0F100FB1156E6
:1003D0000020102102233246CDE900108C218E200E
:1003E00003F05BFD1E48006808B9012000E0002012
:1003F0001B4908604FF47A7002F0E6FDBAE735E772
:100400002E000020000100204C43442049443A259E
:10041000303458004578706C6F7265722053544DBB
:1004200033324634000000005446544C43442054B8
:100430004553540041544F4D40414C49454E54455D
:100440004B00000054454D5045524154453A203030
:10045000302E3030430000002D000000200000004E
:10046000A4824242704700BFFEE700BFFEE700BF24
:10047000FEE700BFFEE77047704770477047000017
:100480000CB50020019000907648006840F4803060
:100490007449086000BF7348006800F400300090A1
:1004A0000198401C0190009818B90198B0F5A04F30
:1004B000F1D16C48006800F4003010B101200090C8
:1004C00001E0002000900098012846D165484030A6
:1004D000006840F08050634940310860624800681D
:1004E00040F44040604908605E48083000685D495B
:1004F000083108600846006840F40040086008467B
:10050000006840F4A05008605848091F0860081FA0
:10051000006840F08070091F086000BF5148006803
:1005200000F000700028F9D040F2057050490860D2
:100530004C480830006820F003004A490831086040
:100540000846006840F00200086000BF45480830D7
:10055000006800F00C000828F8D10CBD10B5454823
:10056000006840F47000434908603E48006840F06D
:1005700001003C49086000203A49083108603948C8
:1005800000683D490840374908603C48091D08603B
:10059000081F006820F48020091F086000203149EE
:1005A0000C310860FFF76CFF4FF000603149803973
:1005B000086010BD70B50020002202230024022133
:1005C000284D08352D6805F00C0020B1042806D010
:1005D000082834D107E02A4D2A4E356033E02A4DF1
:1005E000284E35602FE01F4D2D1D2D68C5F380541A
:1005F0001C4D2D1D2D6805F03F0154B1224DB5FB5A
:10060000F1F5184E361D3668C6F3881605FB06F25E
:1006100009E01B4DB5FBF1F5124E361D3668C6F3E9
:10062000881605FB06F20F4D2D1D2D68C5F30145FB
:100630006D1C6B00B2FBF3F5124E356003E0104DFC
:10064000104E356000BF00BF064D08352D68C5F35C
:1006500003150E4E705D0B4D2D68C540094E35607B
:1006600070BD000000380240007000400854400790
:10067000003C024088ED00E0FFFFF6FE1030002451
:100680000024F4000000002000127A000400002082
:100690000948804709480047FEE7FEE7FEE7FEE716
:1006A000FEE7FEE7FEE7FEE7FEE7FEE70448054952
:1006B000054A064B704700005D05000889010008E7
:1006C00070010020700700207003002070030020DC
:1006D00032490143324A1160704770B5002100234E
:1006E0000F22C4781CB32E4C246804F4E064C4F5D3
:1006F000E064C4F30721C1F10404E3B20A41447881
:100700009C40E1B28478144021430C07210E254C13
:1007100005786155047804F01F050124AC40057884
:100720006D11AD0005F1E025C5F8004109E0047840
:1007300004F01F050124AC401B4D0678761145F8E6
:10074000264070BD194A0A400243154B1B1F1A6010
:10075000704739B1124A121D12680243104B1B1D1B
:100760001A6006E00E4A121D126882430C4B1B1DD4
:100770001A607047042808D14FF0E021096941F060
:1007800004014FF0E022116107E04FF0E021096918
:1007900021F004014FF0E022116170470000FA05DA
:1007A0000CED00E000E400E080E100E080FFFF1FCE
:1007B00010B50121080201F022FA00214FF48070E7
:1007C00001F01DFA10BD30B502460020002350682C
:1007D000F84C20400D790C6844EA05242043506011
:1007E0009068F54C2040D1E903542C438D682C438C
:1007F0004D7944EA450420439060D06A20F47000AB
:100800000C7D641EE4B2234340EA0350D06230BD45
:1008100000210160017141718160C16001610121AC
:10082000017570470021E54A1168E54A1140D0E999
:1008300000231A4383681A43C3681A431143E14AE9
:10084000C2F8041370470021016041608160C160FB
:10085000704721B1826842F00102826003E0826841
:1008600022F00102826070470A4600214168D64B9F
:1008700019401143416070474162826270470A46E5
:100880000021416821F01F0111434160704738B1D8
:10089000CA49096841F40001CA4AC2F8041306E0D3
:1008A000C649096821F40001C64AC2F8041370471A
:1008B00038B1C249096841F48001C24AC2F8041340
:1008C00006E0BE49096821F48001BE4AC2F804135B
:1008D0007047F0B504460D4600200021092D11DDBA
:1008E000E068A5F10A0606EB4607072606FA07F1B7
:1008F0008843A5F10A0606EB460603FA06F108430B
:10090000E0600CE0206905EB4507072606FA07F1D1
:10091000884305EB450603FA06F108432061072AE0
:100920000FDA606B561E06EB86071F2606FA07F1E4
:100930008843561E06EB860605FA06F108436063F7
:1009400022E00D2A0FDA206BD61F06EB86071F2642
:1009500006FA07F18843D61F06EB860605FA06F16C
:100960000843206310E0E06AA2F10D0606EB86075B
:100970001F2606FA07F18843A2F10D0606EB86064C
:1009800005FA06F10843E062F0BD816841F080415C
:1009900081607047014600208A6802F080420AB1F7
:1009A000012000E00020704721B1826842F480629B
:1009B000826003E0826822F480628260704721B125
:1009C000826842F00202826003E0826822F0020242
:1009D0008260704710B50A4600210023416821F467
:1009E0006041531E41EA4331416010BD21B142686C
:1009F00042F40062426003E0426822F40062426016
:100A000070470146C86C80B270476C48001D006892
:100A1000704721B1826842F48072826003E082688C
:100A200022F480728260704721B1826842F40072C1
:100A3000826003E0826822F400728260704738B1FD
:100A40005E49096841F400515E4AC2F8041306E0A9
:100A50005A49096821F400515A4AC2F804137047F0
:100A6000F0B504461546002000220026092911DDB4
:100A7000E068A1F10A0707EB470C072707FA0CF219
:100A80009043A1F10A0707EB470703FA07F2104367
:100A9000E0600CE0206901EB410C072707FA0CF23B
:100AA000904301EB410703FA07F210432061A06B6A
:100AB000C0F30156EF1C06F1010CA7EB0C0707EB86
:100AC000870C1F2707FA0CF29043EF1C06F1010C6C
:100AD000A7EB0C0707EB870701FA07F21043A063A7
:100AE000F0BD10B50A4600210023816B21F44011AE
:100AF000531E41EA0351816310BD08B500230093E2
:100B00000090009B0B440093009B1A6008BD0A46AE
:100B10000021816821F470211143816070470A46E9
:100B20000021816821F44011114381607047816880
:100B300041F4800181607047014600208A6802F418
:100B400080020AB1012000E00020704721B1426814
:100B500042F48062426003E0426822F480624260B4
:100B6000704721B1426842F48052426003E042681B
:100B700022F480524260704708B50246002000907F
:100B8000009201F12800009B184400900098006832
:100B900080B208BD10B50B460021D9B2012404FA79
:100BA00001F11AB144680C43446002E044688C438C
:100BB000446010BDFFFEFFFCFDF7FFC004230140B1
:100BC000E030FCFF00200140FFFD3FFF0246002017
:100BD00013680B400BB1012000E000207047CA43AE
:100BE0000260704770B502460020002300240B12FB
:100BF000556801268E4005EA060415681D4015B1AA
:100C00000CB1012000E0002070BD00220A12D34385
:100C100003607047002041490860091D0860091DF4
:100C20000860091D08603E483C491431086070475F
:100C300000213A498279002A3AD00A4612680368AC
:100C40009A430B461A600A1D126803689A430B1DEB
:100C50001A60027911440A6803681A430A602F4A2D
:100C60000832126803689A432C4B08331A601A1D25
:100C7000126803689A43294B0C331A604279102A90
:100C80000ED11A1F126803681A43244B08331A60E6
:100C90001A1D126803681A43204B0C331A600DE0CA
:100CA0001E49427911440A6803681A430A6005E044
:100CB000027911440A6803689A430A607047002168
:100CC000016001710C21417100218171704713494C
:100CD000103109680143114A103211607047014612
:100CE00000200E4A143212680A400AB1012000E0C6
:100CF0000020704709491431086070470146002000
:100D0000064A143212680A400AB1012000E00020AD
:100D1000704702491431086070470000003C0140F0
:100D2000FFFF7F0030B943F2DB028100A1F1C04137
:100D30000A6005E043F2D2028100A1F1C0410A60DD
:100D40006FF07042411C8900A1F1C0410A6081002E
:100D5000A1F1C041C1F804217047D0E9011211434B
:100D6000C268114302691143426911438269114308
:100D7000C2691143026A1143426A1143826A1143F4
:100D8000C26A1143026B114302689200A2F1C04291
:100D90001160816808290BD101688900A1F1C04167
:100DA000096841F0400201688900A1F1C0410A6070
:100DB000416B0968426B526841EA0211426B9268CA
:100DC00041EA0221426B928941EA0241426B128A56
:100DD00041EA0251426B127D41EA0261426B926923
:100DE00011430268521C9200A2F1C0421160C16A14
:100DF000B1F5804F1BD1816B0968826B526841EA63
:100E00000211826B926841EA0221826B128A41EAE6
:100E10000251826B127D41EA0261826B9269114339
:100E200002689200A2F1C042C2F8041107E06FF01C
:100E3000704201688900A1F1C041C1F804217047E6
:100E4000002101600221416000218160C1600161D7
:100E500041618161C16101624FF480514162490089
:100E600081620021C1620163F84941638163704777
:100E700051B18200A2F1C042126842F00103820027
:100E8000A2F1C042136009E08200A2F1C0421268E0
:100E9000EF4B1A408300A3F1C0431A60704710283B
:100EA0000AD118214FF020421166402151664FF0BF
:100EB000FC319166D16610E01821E64A11604021AC
:100EC0004FF02042C2F884104FF0FC31E14A083262
:100ED00011604FF02042C2F88C10704730B50021ED
:100EE00000220023446844F0080485682C43C56848
:100EF0002C4305692C43456944EA4524856944EA45
:100F00004531C4692468C5696D6844EA0524C5692A
:100F10002D8944EA0544C5692D7B44EA0562046ACB
:100F20002468056A6D6844EA0524056A2D8944EA47
:100F30000544056A2D7B44EA05630468102C05D13D
:100F40004FF020442166A266E36608E0C14C2160B0
:100F50004FF02044C4F88820BE4C0C34236030BDD0
:100F600010210160002141608160C1600161416127
:100F70008161FC21C2691160C2695160C2699160DE
:100F8000C269D160026A1160026A5160026A9160AE
:100F9000026AD160704799B1102808D14FF0204201
:100FA000126E42F004024FF020431A661DE0A94A77
:100FB000126842F004024FF02043C3F8802014E08E
:100FC000102809D14FF02042126EA14BDB1E1A40AF
:100FD0004FF020431A6608E09E4A12689C4BDB1EC5
:100FE0001A404FF02043C3F88020704799B1102871
:100FF00008D14FF02042126E42F040024FF02043E1
:101000001A661DE0934A126842F040024FF02043F6
:10101000C3F8802014E0102809D14FF02042126E4E
:101020008B4B3F3B1A404FF020431A6608E0894A39
:101030001268874B3F3B1A404FF02043C3F8802093
:10104000704701460020102903D14FF02042506F15
:1010500002E0804A14321068704718207D49203120
:10106000086000200906C1F8A4004FF0FC3079495F
:1010700028310860091D0860091D08607047016873
:1010800041F01001426841EA4221826841EA42315E
:10109000704A20321160C1680968C268526841EA2A
:1010A0000221C268128941EA0241C268127B41EA08
:1010B0000261684A28321160016909680269526850
:1010C00041EA02210269128941EA02410269127B66
:1010D00041EA02615F4A2C32116041690968426944
:1010E000526841EA02214269128941EA0241426999
:1010F000127B41EA02614FF02042C2F8B010704703
:101100000021016041608160FC21C2681160C268F9
:101110005160C2689160C268D16002691160026961
:101120005160026991600269D1604269116042694F
:101130005160426991604269D160704748B1454948
:101140002031096841F004014FF02042C2F8A0109C
:1011500009E04049203109683D4AD21E11404FF054
:101160002042C2F8A010704710B5F2B1102807D184
:101170004FF020435B6E0B434FF02044636632E038
:10118000B0F5807F08D1334B1B1D1B680B434FF01C
:101190002044C4F8843026E02E4B24331B680B43D4
:1011A0004FF02044C4F8A4301DE0102807D14FF0C0
:1011B00020435B6E8B434FF02044636613E0B0F531
:1011C000807F08D1234B1B1D1B688B434FF02044AD
:1011D000C4F8843007E01F4B24331B688B434FF067
:1011E0002044C4F8A43010BD10B5024600200023EE
:1011F000102A03D14FF02044636E09E0B2F5807FDE
:1012000003D1144C241D236802E0124C24342368BB
:1012100003EA01040CB1012000E0002010BD1028F9
:1012200007D14FF02042526E8A434FF020435A6656
:1012300019E0B0F5807F0FD1064A121D12688A436B
:101240004FF02043C3F884200DE00000085100084F
:10125000FEFF0F00800000A0234A12688A434FF06F
:101260002043C3F8A420704770B502460020002335
:1012700000240025102A03D14FF02046736E08E0A9
:10128000B2F5807F03D1184E203E336801E0164E40
:10129000336803EA010403EAD10514B10DB101205A
:1012A00000E0002070BD102808D14FF02042526E9F
:1012B00022EAD1024FF020435A6614E0B0F5807F55
:1012C00009D1094A203A126822EAD1024FF020439C
:1012D000C3F8842007E0044A126822EAD1024FF0E2
:1012E0002043C3F8A4207047A40000A010B5044612
:1012F0009848844208D10121084600F03CFC0021B6
:10130000012000F038FC76E09348844208D10121A6
:10131000022000F030FC0021022000F02CFC6AE0EA
:101320008E48844208D10121042000F024FC0021D1
:10133000042000F020FC5EE08948844208D10121AD
:10134000082000F018FC0021082000F014FC52E0F6
:101350008448844208D10121102000F00CFC0021B7
:10136000102000F008FC46E07F48844208D10121AB
:10137000202000F000FC0021202000F0FCFB3AE0DF
:101380007A48844208D10121402000F0F4FB00217A
:10139000402000F0F0FB2EE07548844208D1012186
:1013A000802000F0E8FB0021802000F0E4FB22E038
:1013B0007048844208D10121801500F0DCFB002137
:1013C000A01500F0D8FB16E06B48844208D101213B
:1013D000401500F0D0FB0021601500F0CCFB0AE0C6
:1013E0006648844207D10121001500F0C4FB0021AA
:1013F000201500F0C0FB10BDF0B50A460021002307
:10140000002400BF3DE0012505FA01F3156805EA57
:1014100003049C4234D105684F000326BE40B54307
:10142000056015794E00B5400668354305601579AD
:10143000012D02D01579022D16D185684F000326A3
:10144000BE40B543856055794E00B540866835434A
:101450008560456801268E40B543456045689679AC
:101460008E40B6B235434560C5684F000326BE4086
:10147000B543C560D5794E00B540C6683543C560F3
:10148000491C1029BFD3F0BD4FF6FF710160002148
:10149000017141718171C171704708B54FF480329B
:1014A0000092009A0A430092009AC261C161009AB8
:1014B000C261C2690092C269009208BD0246002062
:1014C00013690B400BB1012000E00020704701467A
:1014D000086980B270470246002053690B400BB187
:1014E000012000E0002070470146486980B2704743
:1014F00001837047418370470AB1018300E0418353
:1015000070474161704742694A4042617047F0B597
:10151000002300244D07ED0E02FA05F3CE1000F172
:10152000200555F826504E07F70E0F26BE40B5434E
:10153000CF1000F1200646F82750CE1000F120050C
:1015400055F8265045EA0304CE1000F1200545F871
:101550002640F0BD000002400004024000080240A6
:10156000000C02400010024000140240001802402B
:10157000001C0240002002400024024000280240DB
:1015800010B50121080700F029FB00214FF0805021
:1015900000F024FB10BD524908627047014600204C
:1015A000504A106820F0E0000843106070474C4932
:1015B000086170474A49A031086070474849A43122
:1015C0000860704701460020464A106820F44040F9
:1015D00008431060704742490864704740494864B6
:1015E000704730B13F49096841F440213D4A1160DC
:1015F00005E03C49096821F440213A4A11607047EE
:1016000018B10121364AD16202E00021344AD16288
:10161000704718B10121324A916202E00021304A3C
:10162000916270472E494862704710B5024600200B
:101630002C4B186840F6034398431043294B18601D
:10164000294B1B6843F00403274C2360012901D177
:1016500030BF00E020BF244B1B6823F00403224C62
:10166000236010BD10B5024600201E4B186840F6DE
:101670000343984310431B4B18601B4B1B6843F0FC
:101680000403194C2360012901D130BF00E020BFC1
:10169000154B1B6823F00403134C236010BD114845
:1016A000006840F002000F4908600F48006840F0F1
:1016B00004000D49086000BF00BF30BF70470146FD
:1016C0000020084A52680A400AB1012000E00020C8
:1016D00070470449096841EA8001024A1160704775
:1016E00000000E420070004010ED00E0F948006874
:1016F00040F00100F74908600020F6490831086011
:10170000F4480068F4490840F2490860F348091DAC
:101710000860F348EF4984310860F0481038091D2B
:101720000860EC48006820F48020EA490860002046
:10173000E8490C310860E7498C31086070470021A6
:10174000E44A921C117011460870704710B50146AA
:101750000022002300204A11012A02D1DD4C236817
:1017600008E0022A03D1DB4C7034236802E0D94C34
:101770007434236801F01F02012494401C400CB112
:10178000012000E0002010BD38B5002000900024AA
:10179000002500BF3120FFF7D9FF05460098401C07
:1017A00000900098B0F5A04F01D0002DF2D031206C
:1017B000FFF7CCFF08B1012400E00024204638BD2B
:1017C00001460020C34A106820F0F80040EAC1003A
:1017D00010607047C349086070470021BD4A7032ED
:1017E00011701170012802D004280AD104E00121EF
:1017F000B84A7032117005E00521B64A7032117096
:1018000000E000BF00BF7047B7490860704770B57F
:10181000049C41EA82150126C6EB530645EA0645BB
:10182000054345EA0465AB4E361D356070BDAD49D4
:1018300008667047820142EA0172A64B84331A603F
:101840007047A8498866704710B5830143EA016371
:1018500043EA02739F4C8834236010BDA149086796
:101860007047A049C864704702460020994B08336E
:10187000186820F0EC6042EA01031843954B0833E6
:101880001860704702460020924B0833186820F019
:10189000784042EA010318438E4B083318607047C2
:1018A000014600208B4A0832106820F003000843EC
:1018B0001060704787480830006800F00C007047DF
:1018C00001460020834A0832106820F0F0000843E7
:1018D00010607047014600207E4A0832106820F4EC
:1018E000E05008431060704701460020794A0832F2
:1018F000106820F4604040EAC10010607047F0B505
:10190000002100220024022500260223714F0837FF
:101910003F6807F00C0121B1042905D0082937D10F
:1019200005E0724F076036E0714F076033E0694FA2
:101930003F1D3F68C7F38056664F3F1D3F6807F065
:101940003F036EB16A4FB7FBF3F7DFF888C10CF1C4
:10195000040CDCF800C0CCF3881C07FB0CF40CE092
:10196000624FB7FBF3F7DFF86CC10CF1040CDCF845
:1019700000C0CCF3881C07FB0CF4564F3F1D3F689A
:10198000C7F301477F1C7D00B4FBF5F7076002E059
:10199000564F076000BF00BF4E4F08373F6807F043
:1019A000F0010909534F7A5C0768D7404760494FF7
:1019B00008373F6807F4E051890A4E4F7A5C476860
:1019C000D7408760434F08373F6807F46041490BB1
:1019D000484F7A5C4768D740C760F0BD002100F4EB
:1019E0004072B2F5407F0AD13A4A0832116821F4B8
:1019F000F811414A02401143364A08321160354A13
:101A000070321268C0F30B031A43324B70331A6002
:101A10007047354944390860704733494039086098
:101A2000704736490860704701460020294A8C32C9
:101A3000106820F01F004A1E1043264A8C321060A6
:101A4000704701460020234A8C32106820F4F85079
:101A50004A1E40EA02201F4A8C321060704701463D
:101A600000201C4A8C32106820F44010084310609B
:101A7000704701460020174A8C32106820F440005D
:101A800008431060704701460020124A8C321068EB
:101A900020F44030084310607047194908607047CF
:101AA00039B10C4A3032126802430A4B30331A60A3
:101AB00006E0084A303212688243064B30331A601F
:101AC0007047F9B1034A343212680243014B343390
:101AD0001A601CE000380240FFFFF6EA10300024D4
:101AE0000030002000004742800E47420024F400EE
:101AF00000127A0014000020FFFCFF0F5C01474237
:101B0000E01147428F4A126882438E4B1A60704739
:101B100039B18C4A121D126802438A4B1B1D1A6090
:101B200006E0884A121D12688243864B1B1D1A600C
:101B3000704739B1834A0C3212680243814B0C332F
:101B40001A6006E07F4A0C32126882437D4B0C33E8
:101B50001A60704739B17B4A103212680243794BE0
:101B600010331A6006E0774A103212688243754BD0
:101B700010331A60704739B1724A243A126802432E
:101B8000704B243B1A6006E06E4A243A1268824386
:101B90006C4B243B1A60704739B16A4A203A12688C
:101BA0000243684B203B1A6006E0664A203A1268FE
:101BB0008243644B203B1A60704739B1614A1C3A3A
:101BC000126802435F4B1C3B1A6006E05D4A1C3AF8
:101BD000126882435B4B1C3B1A60704739B1594A0B
:101BE000143A12680243574B143B1A6006E0554AF8
:101BF000143A12688243534B143B1A60704739B150
:101C0000504A103A126802434E4B103B1A6006E0ED
:101C10004C4A103A126882434A4B103B1A60704794
:101C200039B1484A1C3212680243464B1C331A60D1
:101C300006E0444A1C3212688243424B1C331A604D
:101C4000704739B13F4A2032126802433D4B20337E
:101C50001A6006E03B4A203212688243394B203337
:101C60001A60704739B1374A243212680243354B43
:101C700024331A6006E0334A243212688243314B1F
:101C800024331A60704739B12E4A2C32126802434D
:101C90002C4B2C331A6006E02A4A2C3212688243FD
:101CA000284B2C331A60704739B1264A30321268FB
:101CB0000243244B30331A6006E0224A3032126865
:101CC0008243204B30331A607047012808D11D49E8
:101CD0003C31096841F008011A4A3C32116007E0C2
:101CE00018493C31096821F00801164A3C3211605C
:101CF000704739B1134A273A12780243114B273BF8
:101D00001A7006E00F4A273A127882430D4B273BA0
:101D10001A7070470B484030006840F080700949E5
:101D200040310860704701460020064A283A126890
:101D30000A400AB1012000E000207047014926391D
:101D4000087070473438024008B500220092002025
:101D50000021CA22F94B1A6053221A60F74A183A36
:101D6000126822F0A002F54B183B1A6000BFF34A3C
:101D7000183A126802F02001009A521C0092009A50
:101D8000B2F5003F01D00029F1D0EC4A183A1268B0
:101D900002F020020AB1012000E00020FF22E74B00
:101DA0001A6008BD08B50022009200200021E34A15
:101DB000183A126802F04002E2B9421EDF4B183BAB
:101DC0001A6000BFDD4A183A126802F04001009A1A
:101DD000521C0092009AB2F5803F01D00029F1D048
:101DE000D64A183A126802F040020AB1012002E015
:101DF000002000E0012008BD38B50020009000243C
:101E00000025CA20CD49086053200860FFF7CAFFAB
:101E100000B952E00020C9492439086042F201109B
:101E2000091D0860081D006800F00700091D086012
:101E300000BFC2481838006800F004040098401C35
:101E400000900098B0F5803F01D0002CF1D0BB4845
:101E50001838006800F0040008B900252DE0B748E4
:101E60001C3800680020B5491C3908604FF6FF7027
:101E7000B24910390860B248091F08600020AF4914
:101E80000C390860091D0860091D0860AB4908315C
:101E90000860AA4918310860A84920310860091D66
:101EA0000860A64918390860A4491C310860FFF78A
:101EB0004BFF08B9002500E00125FF209F4908607D
:101EC000284638BD9D481838006820F080009B499E
:101ED00018390860704730B504460025CA20974974
:101EE000086053200860FFF75DFF00B91DE09348CC
:101EF0001C38006820F0400090491C3908600846F2
:101F00000068216808438D491C3908608B491439E1
:101F1000A068086008460068A18840EA0140874937
:101F200014390860FFF7CEFF0125FF2083490860C0
:101F3000284630BD002101607F214160FF21816082
:101F4000704718B1FF217D4A116004E0CA217B4A25
:101F5000116053211160704730B504460025CA2036
:101F60007649086053200860FFF71CFF00B914E0B1
:101F700044B172481C38006840F010006F491C39A9
:101F8000086007E06D481C38006820F010006B49BD
:101F90001C390860FFF796FF0125FF20674908609C
:101FA000284630BDCA21654A11605321116040B1F5
:101FB00062491C39096841F02001604A1C3A1160ED
:101FC00007E05E491C39096801F0DF015B4A1C3AF1
:101FD0001160FF21594A116070470146002204E058
:101FE000501CC2B2A1F10A00C1B20A29F8DA1007E6
:101FF00041EA10607047014600BF080900EB80000D
:10200000420001F00F001044C0B270472DE9F041CA
:1020100005460C460026002755B948481C3800687C
:1020200000F0400000B102E00020E07000BF0EE0D0
:1020300042481C38006800F0400020B12078FFF7CB
:10204000DAFF064602E00020E07000BF00BF55B195
:1020500020780004617840EA0120A1780843E17803
:1020600040EA014611E02078FFF7B7FF4FEA004849
:102070006078FFF7B2FF48EA0028A078FFF7ADFFCD
:1020800048EA0008E07848EA0046CA202B49086080
:1020900053200860FFF786FE08B9002714E029489E
:1020A0003040264924390860FFF70CFF23481C38CC
:1020B000006800F0200030B9FFF746FE08B900279D
:1020C00002E0012700E00127FF201C490860384694
:1020D000BDE8F0810021C1700170417081707047CE
:1020E00070B506460C46002514482438006815498A
:1020F00000EA0105C5F305402070C5F306206070B5
:1021000005F07F00A07005F48000000CE0705EB95F
:102110002078FFF770FF20706078FFF76CFF607029
:10212000A078FFF768FFA07070BD00200349091D6B
:1021300008680249203909687047000024280040D7
:10214000FF007F007F7F7F002DE9F04105460C46B0
:10215000002600274DB9607800F01000102804D147
:10216000607820F010000A30607005B908E06078EF
:10217000FFF741FF0646A078FFF73DFF064600BF88
:1021800055B1E0780004617840EA0120A178084365
:10219000217840EA413611E0E078FFF71EFF4FEA70
:1021A00000486078FFF719FF48EA0028A078FFF799
:1021B00014FF48EA0008207848EA4036CA20FE4961
:1021C000086053200860FFF7EDFD08B9002714E010
:1021D000FA483040F84920390860FFF773FEF648A6
:1021E0001C38006800F0200030B9FFF7ADFD08B9D9
:1021F000002702E0012700E00127FF20EE490860E8
:102200003846BDE8F08101210170817041700021E4
:10221000C170704770B506460C460025E648203868
:102220000068E64900EA0105280CE070C5F30420C7
:10223000607005F03F00A070C5F3423020705EB9B9
:10224000E078FFF7D8FEE0706078FFF7D4FE6070AA
:10225000A078FFF7D0FEA07070BD2DE9F0410546D3
:102260000E46144600276DB9D3481C38006800F0AC
:10227000400000B102E00020E07000BFA06800B99B
:102280001AE019E0CC481C38006800F0400020B18A
:102290002078FFF7B0FE074602E00020E07000BFA4
:1022A000A06820B9207BFFF7A6FE074604E0207B4C
:1022B000FFF7A1FE074600BF95B1207800046178C2
:1022C00040EA0120A1780843E17840EA0140217BFF
:1022D00040EA0160A1680843616840EA01071BE029
:1022E0002078FFF77AFE4FEA00486078FFF775FE26
:1022F00048EA0028A078FFF770FE48EA0008E07876
:1023000048EA0048207BFFF768FE48EA0060A168C1
:102310000843616840EA0107CA20A74908605320C2
:102320000860B6F5807F03D1A3480838076002E053
:10233000A148001F0760FF209F490860BDE8F081A9
:102340000021C170017041708170816001210173B1
:102350000021416070472DE9F04106460F461446C2
:102360000025B7F5807F03D193480838056802E05F
:102370009148001F0568C5F305402070C5F306208D
:10238000607005F07F00A07005F48000000CE07024
:10239000C5F30560207305F08040A06005F0803033
:1023A00060607EB92078FFF726FE20706078FFF726
:1023B00022FE6070A078FFF71EFEA070207BFFF762
:1023C0001AFE2073BDE8F08138B50246002400945F
:1023D00000230020CA24784D2C6053242C6041B186
:1023E000754C1C3C24681443734D1C3D2C6001202B
:1023F0001EE0714C1C3C246894436F4D1C3D2C60C6
:1024000000BF6D4C183C246804EA1223009C641C35
:102410000094009CB4F5803F01D0002BF1D0664CB5
:10242000183C246804EA12240CB9002000E00120C2
:10243000FF24614D2C6038BD30B50023CA245E4DA9
:102440002C6053242C6041EA0203B0F5807F03D155
:10245000594C2034236002E0574C24342360FF247D
:10246000554D2C6030BD01460020B1F5807F05D16F
:10247000514A20321268C2F30E0004E04E4A243260
:102480001268C2F30E007047CA214B4A11605321F3
:10249000116049491C39096821F00701464A1C3A74
:1024A00011601146096801431160FF21424A116021
:1024B0007047CA21404A1160532111603E491039CA
:1024C0000860FF21116070473B481038006880B2F7
:1024D000704718B501460023009300220020CA234C
:1024E000354C23605323236049B1334B1C3B1B689D
:1024F00043F48063304C1C3C236001201FE02E4BD2
:102500001C3B1B6823F480632B4C1C3C236000BFE6
:10251000294B183B1B6803F00402009B5B1C0093D3
:10252000009BB3F5803F01D0002AF1D0224B183B2D
:102530001B6803F004030BB9002000E00120FF2317
:102540001D4C236018BDCA221B4B1A6053221A600F
:10255000194A1C3A126822F48022174B1C3B1A605D
:102560001A46126840EA01031A43134B1C3B1A60D7
:10257000FF22114B1A6070470F481C38006800F4A6
:1025800080207047CA220C4B1A6053221A600A4AF4
:102590001C3A126822F4E002074B1C3B1A601A46F0
:1025A000126840EA01031A43034B1C3B1A60FF22E6
:1025B000014B1A6070470000242800403FFFFF00D5
:1025C00070B504460D460026CA20F649086053201F
:1025D0000860FFF7E7FB00B907E044EA0500F149AE
:1025E0000C390860FFF76EFC0126FF20ED490860FA
:1025F000304670BD30B504460025CA20E949086060
:1026000053200860FFF7CEFB00B914E044B1E54861
:102610001C38006840F08000E2491C39086007E07F
:10262000E0481C38006820F08000DE491C39086052
:10263000FFF748FC0125FF20DA490860284630BD35
:10264000CA21D84A11605321116040B1D5491C39C3
:10265000096841F40001D34A1C3A116007E0D149EE
:102660001C39096821F40001CE4A1C3A1160FF218F
:10267000CC4A11607047CA21CA4A116053211160C7
:10268000C8491C39096821F40021C64A1C3A116066
:102690001146096801431160FF21C24A1160704769
:1026A00070B5034600200024CA25BE4E3560532570
:1026B0003560BC4D183D2D6805F4803555B100E0FE
:1026C000641CB84D183D2D6805F4803515B1B4F57E
:1026D000003FF5D1B34D183D2D6805F480353DB967
:1026E00043EA01051543AF4E18363560012000E07E
:1026F0000020FF25AB4E356070BD10B50A460021A5
:10270000A84B1C3B1B6840F6080423EA04011AB1DD
:1027100040F40063194300E00143CA23A14C236045
:10272000532323609F4B1C3B1960FF23236010BD84
:102730002DE9F04180460C461546002600279948B1
:102740000C300068984900EA01069648103000688D
:10275000964900EA0107C6F305402070C6F306203B
:10276000607006F07F00A07006F48000000CE0703E
:102770000020E870C7F30420687007F03F00A870DD
:10278000C7F342302870B8F1000F17D12078FFF757
:1027900032FC20706078FFF72EFC6070A078FFF7A5
:1027A0002AFCA0706878FFF726FC6870A878FFF70D
:1027B00022FCA8702878FFF71EFC2870BDE8F08185
:1027C000784814300068704741B9764A1C32126864
:1027D00022EA4002734B1C331A6007E0714A1C3234
:1027E000126842EA40026F4B1C331A60704739B1DD
:1027F0006C4A1C32126802436A4B1C331A6006E0B2
:10280000684A1C3212688243664B1C331A60704758
:1028100064491C31096821F4C051624A1C321160BC
:10282000114609680143116070475E491C3109680F
:1028300021F4E0615B4A1C321160114609680143D2
:102840001160704757491C31096821F4C041554A4D
:102850001C3211601146096801431160704740B194
:1028600050491C31096841F080014E4A1C32116008
:1028700007E04C491C31096821F08001494A1C32AB
:102880001160704740B147491C31096821F400418B
:10289000444A1C32116007E042491C31096841F486
:1028A0000041404A1C321160704708B50022009276
:1028B0003C4A2C320092009A02EB80020092009A6D
:1028C000116008BD08B501460020009035482C3045
:1028D0000090009800EB810000900098006808BD0F
:1028E00030491C31096821F480312E4A1C321160B4
:1028F000114609680143116070472A491C31096873
:1029000021F40031274A1C32116011460968014345
:102910001160704723491C31096821F48021214A44
:102920001C32116011460968014311607047F0B50F
:1029300004460D4600270026CA201A490860532085
:10294000086018481838006800F0080050B100E02E
:10295000761C14481838006800F0080010B1B6F56D
:10296000805FF5D10F481838006800F0080098B96A
:102970000C481C38006800F0100058B945EA040003
:10298000084908310860FFF7DFF908B9002704E0BB
:10299000012702E0002700E00027FF20014908602E
:1029A0003846F0BD242800407F7F7F003FFFFF00B6
:1029B000CA223D4B1A6053221A6091B13A4A1C3A1E
:1029C000126820F004031A43374B1C3B1A60364A46
:1029D0001C32126800F004031A43334B1C331A6094
:1029E00011E0314A1C3A126820F004039A432E4B3E
:1029F0001C3B1A602C4A1C32126800F004039A43F4
:102A0000294B1C331A60FF22274B1A60704710B500
:102A1000014600200022244B183B1B68234C03EA8C
:102A2000040202EA01030BB1012000E0002010BD06
:102A300081B241F080011C4A183A126802F080020B
:102A400062EA0101184A183A1160704730B5014630
:102A5000002000220023144C1C34246804F00402DB
:102A6000114C1C3C24680C4002EAD13544EA0503B1
:102A70000D4C183C246804EA11121BB194B20CB13D
:102A8000012000E0002030BD002101098AB242F09F
:102A90008002054B183B1B6803F0800363EA0202C7
:102AA000014B183B1A607047242800407F3F01000B
:102AB00010B50446FA48844208D101211020FFF7DE
:102AC0009EF800211020FFF79AF857E0F54884425D
:102AD00009D101214804FFF781F800214FF40030AB
:102AE000FFF77CF84AE0F048844209D101218804CC
:102AF000FFF774F800214FF48020FFF76FF83DE0F6
:102B0000EA48844209D10121C804FFF767F800218F
:102B10004FF40020FFF762F830E0E548844209D125
:102B200001210805FFF75AF800214FF48010FFF744
:102B300055F823E0DF48844208D101212020FFF727
:102B40005EF800212020FFF75AF817E0DA488442A7
:102B500009D101218807FFF741F800214FF080409B
:102B6000FFF73CF80AE0D548844207D1012140052F
:102B7000FFF734F800216005FFF730F810BD2DE9AC
:102B8000FF4705460E460024A14600BFA046B08977
:102B900000B100BF2C8A24F44054F08804432C82F6
:102BA000AC8941F20C608443B08831890843718953
:102BB00008430443AC81AC8A24F44074B0890443D4
:102BC000AC826846FEF79BFEB548854202D0B94804
:102BD000854202D1DDF80C9001E0DDF80890A8896B
:102BE00000F4004040B109EBC90000EB0910316866
:102BF0004900B0FBF1F707E009EBC90000EB091051
:102C000031688900B0FBF1F76420B7FBF0F00401F4
:102C10002009642101FB1078A88900F4004040B12C
:102C2000322000EBC800B0FBF1F000F007000443D5
:102C300008E0322000EB08106421B0FBF1F000F056
:102C40000F0004432C81BDE8FF874FF4165101604B
:102C500000218180C18001810C214181002181817D
:102C6000704710B502460020108A20F470600B886F
:102C70004C8823438C882343CC88234318431082F9
:102C800010BD0021018041808180C180704721B149
:102C9000828942F40052828104E082894DF6FF73FA
:102CA0001A4082817047028B02F47F420283028BBA
:102CB0000A430283704721B1828942F40042828133
:102CC00003E08289C2F30E028281704721B1828AB9
:102CD00042F40062828204E0828A4FF2FF731A405B
:102CE00082827047C1F3080282807047014688885B
:102CF000C0F308007047028A4FF6F0731A40028250
:102D0000028A0A430282704721B1828942F002029C
:102D1000828104E082894FF6FD731A4082817047F8
:102D200082894FF2FF731A40828182890A4382812D
:102D30007047028A4FF6DF731A400282028A0A4302
:102D40000282704721B1028A42F48042028204E08A
:102D5000028A4BF6FF731A4002827047818941F064
:102D600001018181704721B1828A42F0080282828A
:102D700004E0828A4FF6F7731A4082827047028B12
:102D8000D2B20283028B42EA01220283704721B150
:102D9000828A42F02002828204E0828A4FF6DF7348
:102DA0001A408282704721B1828A42F010028282E8
:102DB00004E0828A4FF6EF731A4082827047828A5B
:102DC0004FF6FB731A408282828A0A4382827047DE
:102DD00021B1828A42F00202828204E0828A4FF6A6
:102DE000FD731A40828270471AB1838A0B43838233
:102DF00002E0838A8B4383827047F0B50346002448
:102E000000260025002040F66A17B94200D100BF15
:102E10001846C1F3421401F01F06012707FA06F510
:102E2000012C01D10C3004E0022C01D1103000E063
:102E300014301AB107682F43076002E00768AF43F8
:102E40000760F0BD02460020B1F5007F00D100BF51
:102E500013880B400BB1012000E00020704701F403
:102E60000072B2F5007F00D100BFCA4302807047F4
:102E700070B50246002400230025002040F66A16A3
:102E8000B14200D100BFC1F3421501F01F0301267A
:102E900006FA03F3012D13D19689334017E00000A1
:102EA000001001400044004000480040004C004039
:102EB000005000400014014000780040007C0040B9
:102EC000022D02D1168A334001E0968A33400C125B
:102ED000012606FA04F41688344013B10CB101201F
:102EE00000E0002070BD10B50022002340F66A14F7
:102EF000A14200D100BF0A1201249440A3B2DC43D6
:102F0000048010BD10B504466FF00400FDF732FCDC
:102F1000E11704EB5171C1F3C701394A1170104632
:102F2000007800EB4001C1EBC0104FF6FF7101EAE1
:102F3000C0003449088010BD0146314A12784A4326
:102F40004FF0E0235A6100229A611A46126942F05A
:102F500001021A6100BF4FF0E022106900F0010287
:102F60001AB100F48032002AF5D04FF0E022126945
:102F700022F001024FF0E0231A6100229A617047AB
:102F80000146204A12884A434FF0E0235A6100224A
:102F90009A611A46126942F001021A6100BF4FF0AD
:102FA000E022106900F001021AB100F48032002A18
:102FB000F5D04FF0E022126922F001024FF0E02339
:102FC0001A6100229A61704770B504464FF4077089
:102FD00094FBF0F0C6B24FF4077094FBF0F100FBE5
:102FE000114085B205E04FF40770FFF7C9FF701E6E
:102FF000C6B2002EF7D115B12846FFF7C1FF70BD4C
:103000002400002026000020014600BF704700BFBA
:103010004C4A128802F04002002AF9D0C2B2494B51
:103020009A80704710B588B0044601210846FEF723
:1030300037FD01211020FEF78DFD072209214248AE
:10304000FEF765FA07220A213F48FEF760FA4FF4BF
:10305000C060069002208DF81C008DF81D00002035
:103060008DF81E0001208DF81F0006A93648FEF7D6
:10307000C3F902940020ADF80C00ADF80E00ADF8D5
:103080001000ADF814000C20ADF8120002A92D4874
:10309000FFF775FD01212B48FFF7F9FD012240F2F2
:1030A00025512848FFF7A9FE25208DF804000320AC
:1030B0008DF805008DF8060001208DF8070001A8A5
:1030C000FDF70BFB08B010BD10B540F225511D48AF
:1030D000FFF7CEFE10B31B48FFF708FEC4B21B4833
:1030E000008800F40040C8B91848008800F4804007
:1030F00060B10A2C03D000201449088020E0134856
:10310000008840F400401149088019E00D2C06D1D8
:103110000E48008840F480400C49088010E00B48BD
:103120000088C0F30D000A490C5408480088401C70
:103130000649088008460088C72801DD002008806D
:1031400010BD000000100140000002402C000020D3
:10315000380000201CB501212020FEF7A1FC4FF40F
:10316000C060009001208DF8040000208DF806005A
:1031700003208DF8050001208DF8070069460448FA
:10318000FEF73AF94FF4C0610148FEF7B1F91CBDF2
:103190000014024001B5BDF800000090BDF8000029
:1031A000FE49088008BD01B5BDF800000090BDF8DB
:1031B0000000FA49891C088008BD08B5F748801C42
:1031C00000880090BDF8000008BDF44A10804FF060
:1031D000D842A2F88010704710B504462046FFF789
:1031E000D9FF0520FFF7A8FEFFF7E7FF10BDEC4869
:1031F0000089EA4908807047E849891C08807047BF
:1032000030B5014601F01F04C1F34513CA0AE502B7
:1032100005EB43151544A8B230BD00BF0100A0F175
:103220000102D0B2FAD1704710B502460C46DC4913
:103230004889FFF7AFFF082A01DD012100E00021E6
:103240000846FFF7B0FFD0B2FFF7ADFFD449888939
:10325000FFF7A0FF2012FFF7A6FFE0B2FFF7A3FFE2
:1032600010BDF0B504460D4600260027CC48008866
:10327000A04203DDCA484088A84201DC0020F0BD1E
:1032800029462046FFF7D0FF2E20FFF783FFF7B235
:103290004FF6FF7000EA07273046F0E700B5292017
:1032A000FFF778FF00BD00B52820FFF773FF00BDD2
:1032B00070B5054600240026082D1AD2DFE805F077
:1032C0000406090C0F12151800BF12E044F0800428
:1032D0000FE044F040040CE044F0C00409E044F086
:1032E000200406E044F0600403E044F0A00400E0A1
:1032F00000BF00BF3626AA494889FFF74BFF0020D0
:10330000FFF751FF0020FFF74EFFA5490988491E2E
:10331000C1F30F20FFF747FFA1490978491EC8B242
:10332000FFF741FF9E498889FFF734FF0020FFF730
:103330003AFF0020FFF737FF99494988491EC1F33A
:103340000F20FFF730FF96498978491EC8B2FFF772
:103350002AFF44F4805421463046FFF736FF70BD03
:1033600030B504460D4629462046FFF75DFF2C2068
:10337000FFF710FFFFF73BFF8A4800888749891C49
:10338000088030BD30B504460D4685494889FFF7B1
:1033900001FF2012FFF707FFE0B2FFF704FF201242
:1033A000FFF701FFE0B2FFF7FEFE7D498889FFF7D6
:1033B000F1FE2812FFF7F7FEE8B2FFF7F4FE28123D
:1033C000FFF7F1FEE8B2FFF7EEFE7548008973499A
:1033D00008804FF0D840A0F8802030BD70B52DEDAA
:1033E000048B0446BE20FFF7D5FE0520FFF7DBFE69
:1033F000204601F018FC41EC190B9FED6B0B53ECD0
:10340000102B01F023FC41EC180B01F0DFFB85B21F
:103410002846FFF7C8FE0120FFF7C5FEFF20FFF793
:10342000C2FE0020FFF7BFFE0020FFF7BCFEBDEC90
:10343000048B70BD10B504462C20594908812A2000
:1034400048812B2088814FF4A07008804FF4F070E1
:1034500048800020FFF72CFF10BD2DE9F04F86B00B
:1034600004460D4616461F46A019401E1FFA80F856
:10347000E819401E1FFA80F949494889FFF78AFE7A
:103480002012FFF790FEE0B2FFF78DFE4FEA2820F2
:10349000FFF789FE08F0FF00FFF785FE40498889A5
:1034A000FFF778FE2812FFF77EFEE8B2FFF77BFEFB
:1034B0004FEA2920FFF777FE09F0FF00FFF773FEC0
:1034C0004FF0500A4FF0510B5220059053200490BA
:1034D00050460399FFF779FE58460299FFF775FEAB
:1034E00001990598FFF771FE00990498FFF76DFEAA
:1034F00029462046FFF798FE4FF4A070284908801F
:103500004FF4F070488006B0BDE8F08F70B5044607
:10351000002623480588408845432148808846F690
:103520000401884216D11E488079012812D100205A
:103530001B4988712A2048812B2088810021084658
:10354000FFF772FE0120164988712B2048812A203E
:10355000888103E000210846FFF766FEFFF747FE7B
:10356000002603E00D48801C0480761CAE42F9D38F
:1035700070BD00B5A1B00020209001217A20FEF797
:103580008FFA01210846FEF7C3FA4FF400401E905F
:1035900001208DF87C0000200AE000007E00006C15
:1035A000000100202E000020666666666666044004
:1035B0008DF87E0002208DF87D0001208DF87F00BF
:1035C0001EA9FE48FDF718FF4CF233701E90022032
:1035D0008DF87C0000208DF87E0003208DF87D00A2
:1035E00001208DF87F001EA9F548FDF705FF4FF675
:1035F00080701E9002208DF87C0000208DF87E00E7
:1036000003208DF87D0001208DF87F001EA9ED4874
:10361000FDF7F2FE4FF480501E9002208DF87C00E2
:1036200000208DF87E0003208DF87D0001208DF8AC
:103630007F001EA9E448FDF7DFFE4FF480501E9086
:1036400002208DF87C0000208DF87E0003208DF88C
:103650007D0001208DF87F001EA9DC48FDF7CCFE1F
:103660000C220021D648FDF752FF0C220121D4483C
:10367000FDF74DFF0C220421D148FDF748FF0C2235
:103680000521CF48FDF743FF0C220821CC48FDF768
:103690003EFF0C220921CA48FDF739FF0C220A21FE
:1036A000C748FDF734FF0C220E21C548FDF72FFF58
:1036B0000C220F21C248FDF72AFF0C220721C14826
:1036C000FDF725FF0C220821BE48FDF720FF0C2244
:1036D0000921BC48FDF71BFF0C220A21B948FDF760
:1036E00016FF0C220B21B748FDF711FF0C221146E3
:1036F000B448FDF70CFF0C220D21B248FDF707FF7F
:103700000C220E21AF48FDF702FF0C220F21AD481D
:10371000FDF7FDFE0C221146AB48FDF7F8FE0C222A
:103720001146AA48FDF7F3FE0F20089000200990EB
:103730003C200A9000200B900C900D900E900920D8
:103740000190002002900820039000200490059032
:103750000690079006200F900020109011901020E6
:1037600012900020139015901490169017904FF41B
:1037700080501890002019904FF480401A9000203B
:103780001B9008A81C9001A81D900FA8FDF7E5FA52
:1037900001210620FDF76CFB3220FFF715FC01210B
:1037A0000020FFF712FD3220FFF70EFC0020FFF78C
:1037B00013FD87498880D320FFF7ECFCFFF7FDFC61
:1037C00083498880FFF7F9FC81498880FFF7F5FC81
:1037D0007F498880084680884FF6FF7101EA002003
:1037E0007B498880FFF7E9FC794989880843784953
:1037F00088800846808849F2884188421CD17548F3
:10380000006820F00F004FF02041C1F81C0108466D
:10381000D0F81C0120F47060C1F81C010846D0F8F3
:103820001C0140F00300C1F81C010846D0F81C013F
:1038300040F40070C1F81C016548818866A000F062
:10384000BBFD6348808849F2884188427ED1E020F0
:10385000FFF7A0FC0020FFF7A6FC0720FFF7A3FC62
:103860001020FFF7A0FC0920FFF79DFC1720FFF7B1
:103870009AFC0B20FFF797FC4120FFF794FC89206E
:10388000FFF791FC4B20FFF78EFC0A20FFF78BFC23
:103890000C20FFF788FC0E20FFF785FC1820FFF7AF
:1038A00082FC1B20FFF77FFC0F20FFF77CFCE12050
:1038B000FFF770FC0020FFF776FC1720FFF773FC82
:1038C0001A20FFF770FC0420FFF76DFC0E20FFF7B5
:1038D0006AFC0620FFF767FC2F20FFF764FC4520F9
:1038E000FFF761FC4320FFF75EFC0220FFF75BFC63
:1038F0000A20FFF758FC0920FFF755FC3220FFF79C
:1039000052FC3620FFF74FFC0F20FFF74CFCC02085
:10391000FFF740FC1120FFF746FC0920FFF743FCAE
:10392000C120FFF737FC4120FFF73DFCC520FFF722
:1039300031FC0020FFF737FC0A20FFF734FC802021
:10394000FFF731FC3620FFF725FC00E061E048205E
:10395000FFF729FC3A20FFF71DFC5520FFF723FC59
:10396000B020FFF717FC0020FFF71DFCB120FFF788
:1039700011FCB020FFF717FC1120FFF714FCB42056
:10398000FFF708FC0220FFF70EFCB620FFF702FC51
:103990000220FFF708FC2220FFF705FCE920FFF7D3
:1039A000F9FB0020FFF7FFFBF720FFF7F3FBA9204F
:1039B000FFF7F9FB5120FFF7F6FB15E0000402408A
:1039C000000C0240001002400014024000180240A7
:1039D000000100201C0100A0204C43442049443A2F
:1039E00025780D0A000000002C20FFF7DCFB822068
:1039F000FFF7D9FB2120FFF7CDFB1120FFF7CAFB12
:103A00007820FFF7E1FA2920FFF7C4FB2C20FFF70D
:103A1000C1FB0020FFF70EFD0120F84908604FF6BA
:103A2000FF70FFF773FD21B000BD2DE9FC4F054687
:103A30000E4617469846DDF82C9000200190F0487D
:103A4000808846F60401884229D1ED488079012812
:103A500025D1AB463546EA480088C01B401E86B2D9
:103A60004746E7480088A0EB0B00401E1FFA80F88D
:103A70000020E34988712A2048812B208881434611
:103A80003A4631462846CDF80090FFF7CEFF012098
:103A9000DB4988712B2048812A2088811DE0781B12
:103AA000401C80B20190344615E021462846FFF7BD
:103AB000BBFBFFF79CFB4FF0000A07E04FF0D8403C
:103AC000A0F880900AF101001FFA80FA019882455F
:103AD000F4DB601C84B24445E7DDBDE8FC8F2DE9D2
:103AE000F84F07460D4690469946DDF828B0A8EBFA
:103AF0000700401C1FFA80FAA9EB0500401C80B2A9
:103B00000090002414E0281981B23846FFF78CFB9E
:103B1000FFF76DFB002607E004FB0A603BF810008E
:103B2000B8490880701C86B25645F5DB601C84B22B
:103B300000988442E7DBBDE8F88F2DE9FF4F84B0A1
:103B400081468A460020039002900698A0EB090562
:103B50000798A0EB0A06CDF80490CDF800A0002D40
:103B600001DD012705E00DB9002702E04FF0FF3726
:103B70006D42002E02DD4FF0010806E016B94FF04D
:103B8000000802E04FF0FF387642B54201DD2C46D6
:103B900000E034464FF0000B21E0009A91B2019A08
:103BA00090B2FFF7DDFB039828440390029830445D
:103BB00002900398A04205DD0398001B0390019832
:103BC000384401900298A04205DD0298001B029043
:103BD0000098404400900BF101001FFA80FB601C2C
:103BE0008345DADD08B0BDE8F08FF0B504460D4638
:103BF00016461F462B46324629462046FFF79DFFB4
:103C00003B46224629462046FFF797FF3B46324671
:103C100039462046FFF791FF3B463246294630465B
:103C2000FFF78BFFF0BD2DE9F04306460F469046A7
:103C3000002445460320A0EB48093CE07A1B91B2E2
:103C4000321990B2FFF78CFB3A1B91B2721990B205
:103C5000FFF786FB3A1991B2721990B2FFF780FB19
:103C60007A1991B2321990B2FFF77AFB7A1991B2B0
:103C7000321B90B2FFF774FB3A1991B2721B90B2EB
:103C8000FFF76EFB7A1B91B2321B90B2FFF768FB15
:103C90003A1B91B2721B90B2FFF762FB641CB9F140
:103CA000000F03DAA000801D814404E0601B800047
:103CB0000A3081446D1EAC42C0DDBDE8F0832DE9C1
:103CC000F84F80460E4617461C46B3462046E3177B
:103CD00004EB5373DB1021464FEAE47C04EB5C7C7D
:103CE0004FEAEC0CA4EBCC0CBCF1000F02D04FF06F
:103CF000010C01E04FF0000C6344224604EBD27C3F
:103D00004FEA6C0C03FB0CF3DBB20093A7F120002D
:103D1000C7B2002556E00C2C07D107EB47003A4903
:103D200001EB800010F8059013E0102C05D1374806
:103D300000EB071010F805900BE0182C07D107EBEB
:103D4000C700334901EB800010F8059001E0BDE8A1
:103D5000F88F4FF0000A2FE009F0800030B12D48B5
:103D6000028831464046FFF70DFB07E00A9828B964
:103D70002948028831464046FFF704FB4FEA496074
:103D80004FEA1069701C86B21D484088B04200DCC2
:103D9000DDE7A6EB0B00A0420AD15E4608F1010068
:103DA0001FFA80F816480088404500DCCFE706E09F
:103DB0000AF1010000F0FF0ABAF1080FCCDB00BFE6
:103DC000681CC5B200988542A5DB00BFBFE710B5EF
:103DD0000246012000E050430B00A1F10104E1B2D2
:103DE000F9D110BD2DE9FF4F81B0074691461E461F
:103DF0000E9D4FF0000A00244AE00000BC824042C1
:103E0000000100208000006C245100089855000833
:103E1000885B00082E00002030000020301B401E70
:103E2000C1B20A20FFF7D3FFB9FBF0F00A21B0FBC3
:103E3000F1F201FB1208BAF1000F16D1701EA04278
:103E400013DDB8F1000F0ED10020AB4605EBDB719E
:103E5000491001FB0471009088B22B462022029980
:103E6000FFF72DFF12E04FF0010A0020AB4605EBF3
:103E7000DB71491001FB0471009088B208F1300138
:103E8000CAB22B460299FFF71AFF00BF601CC4B2EA
:103E9000B442C3DB05B0BDE8F08F2DE9FF4F82B01F
:103EA000064692461F46DDE90F4800200190002596
:103EB0004DE0781B401EC1B20A20FFF788FFBAFB15
:103EC000F0F00A21B0FBF1F201FB1209019850BB9E
:103ED000781EA84227DDB9F1000F22D108F080003A
:103EE00078B108F00100A34604EBDB71491001FB37
:103EF0000561009088B2234630220399FFF7DFFE68
:103F00000EE008F00100A34604EBDB71491001FB51
:103F10000561009088B2234620220399FFF7CFFE67
:103F200013E00120019008F00100A34604EBDB71CF
:103F3000491001FB0561009088B209F13001CAB255
:103F400023460399FFF7BBFE00BF681CC5B2BD4204
:103F5000AFDB06B0BDE8F08F2DE9F84704460D460B
:103F600090469946DDE9096704F0FF0A08EB040072
:103F70001FFA80F809EB05001FFA80F916E04445A6
:103F800002DB5446A81985B24D4500DB14E0002041
:103F900000903A78334629462046FFF790FE304697
:103FA00006EBD07104EB61018CB27F1C38787E285F
:103FB00002DC38782028E2DA00BFBDE8F88700008C
:103FC00000B58DB001210846FDF76AFD0121080208
:103FD000FDF7C0FD20200B9003208DF8300001205C
:103FE0008DF833000BA95648FDF706FA01210802A7
:103FF000FDF705FE00214FF48070FDF700FE012063
:10400000FCF745FC002007900A9009904FF480309F
:10401000089007A8FCF706FC002001908DF8080026
:104020008DF809000390059001208DF8180001A972
:104030004448FCF7C8FB0723012205214148FCF74F
:1040400048FC0723012210213E48FCF742FC0121D5
:104050003C48FCF7FEFB0DB000BD10B5044607233D
:10406000012221463748FCF734FC3648FCF78DFC2A
:1040700000BF02213348FCF7A9FD0028F9D03148E0
:10408000FCF7BFFC10BD2DE9F04107460C460025AA
:10409000002608E03846FFF7E0FF05440520FEF75C
:1040A00093FF701CC6B2A642F4DBB5FBF4F080B2FD
:1040B000BDE8F08110B52DED088B0A211020FFF727
:1040C000E2FF08EE100AB8EE480A10EE100A00F0FF
:1040D000A5FF41EC1A0B9FED1C0B53EC102B00F0CD
:1040E000B5FD41EC190B9FED1A0B53EC102B51EC65
:1040F000190B00F0A9FE41EC1B0B9FED170B53ECC5
:10410000102B00F0DBFB41EC1A0B9FED150B53EC71
:10411000102B00F02BFB41EC190B9FED130B53EC14
:10412000102B51EC190B00F091FD41EC190B41ECF7
:104130001A0B00F01BFD04B22046BDEC088B10BD2D
:1041400000000240002001406666666666664A3FDF
:1041500052B81E85EB51E83F7B14AE47E17A643FCD
:10416000000000000000394000000000000059403D
:10417000F8B504460D4617461E468DF800408DF8EA
:1041800001508DF802708DF8036069460020FDF73C
:104190003DFFF8BDF8B504460D4617461E468DF89E
:1041A00002708DF801508DF800608DF8034069466B
:1041B0000020FDF7C9FFF8BD3EB541F6FF740121AF
:1041C0000807FDF7B6FC0120FDF7E5F90020FEF732
:1041D00079FB45F25001884231D00120FDF7FDFA0C
:1041E00004E0601C84B20A20FEF7EEFE4120FDF7D9
:1041F000ADFA0028F5D00CB901203EBD4FF4807017
:10420000FDF7ECFB0120FDF704FC7F200190FF206F
:104210000290002000906846FDF75DFE00233822E2
:104220003B211720FFF7A4FF0223062203211220BF
:10423000FFF7B0FF45F250010020FEF736FB0020EB
:10424000DBE7F0B587B004460D4616461F46002151
:104250004FF48070FEF7B8F88DF800508DF80160CB
:104260008DF8027000208DF803008DF810404FF09B
:1042700080400390002002900098019001AA4FF422
:1042800080710020FDF7E9FF4FF48050FEF7FCFB42
:104290004FF40030FCF73DFD01210803FEF788FBD9
:1042A00001210802FEF790F84FF40030059000203D
:1042B0008DF8180008208DF8190001208DF81A00DB
:1042C00005A8FCF7B5FC2920354908700220487084
:1042D00088700120C8700846FCF7FFF907B0F0BDF0
:1042E0007CB505460C460020FEF7F3F82846FEF79D
:1042F000CBF82046FEF7DDF84FF48040FEF7C4FB14
:104300004FF48000FCF705FD01218803FEF750FB08
:104310000120FEF7DEF84FF48000009000208DF8B9
:10432000040008208DF8050001208DF8060068467D
:10433000FCF77EFC03201A49087002204870887040
:104340000120C8700846FCF7C8F97CBD10B54FF4D1
:104350008070FEF75CFB012805D10002FEF768FBC8
:1043600010A000F029F84FF40030FCF7D2FC10BD8B
:1043700010B54FF48060FEF74AFB01280AD1800295
:10438000FEF756FB0A48006808B9012000E000204B
:10439000074908604FF48000FCF7BBFC10BD00002B
:1043A00032000020414C41524D2041210D0A0000B5
:1043B000A8824242704700000FB4044910B503AA16
:1043C000029800F085F910BC5DF814FB280000206D
:1043D0000FB41CB5074B06AA7B44694600900598AC
:1043E00000F05DF90020694600F06CF91CBC5DF836
:1043F00014FB0000E902000070B5044685690068FE
:10440000C10601D5302600E02026C00707D070BDC8
:10441000D4E9012130469047206A401C20626D1E7D
:10442000F6D570BD70B5044685690078C00707D120
:1044300070BDD4E9012120209047206A401C2062F1
:104440006D1EF6D570BD000070B504460D462146C0
:104450001068AFF300802188090502D50F4A7A441D
:1044600002E00E4A7A440E32002104F1240305E0F2
:1044700000F00F060009965D5E54491C0028F7D134
:1044800020780023000704D5702D02D009B1022343
:1044900011322046BDE8704000F0A2B8822400002E
:1044A0002DE9F05F894604464FF0000ADFF824B199
:1044B000FB44C0F820A02046E168884700287DD052
:1044C000252806D0D4E901219047206A401C2062AB
:1044D000F1E700255F462046E16888472028064628
:1044E00007DB312E05D2B81910F8200C08B10543AE
:1044F000F1E7A80701D525F00405C4F81CA00027A2
:10450000C4F818A02A2E09D0304600F027F938B395
:1045100004EB8708303EC8F8186019E059F8041B0E
:10452000204604EB87029161E1688847012F064627
:1045300018D1E069002820DA25F020051DE0D8F820
:10454000180000EB800006EB40003038C8F8180077
:104550002046E1688847064600F000F90028EED1C1
:10456000012F0AD02E2E08D12046E16888477F1CF3
:104570000646022F45F02005C4DBA069002803DAB7
:10458000404245F00105A061E80701D025F0100583
:10459000A6B1A6F14100192802D8203645F40065DD
:1045A0004A463146204625604D46FBF727FE60B15E
:1045B000012807D0ED1D25F0070000E007E000F11D
:1045C000080978E705F1040975E730467AE7206ABB
:1045D000BDE8F09F5824000070477047704770474F
:1045E0002DE9F0470D4699469246044600F124080D
:1045F0000168880604D5E06921F01001216000E01F
:104600000120A84201DD471B00E00027A1697A19BB
:1046100002EB0900081AA0612078C00602D42046E7
:10462000FFF7EAFE002608E0D4E901211AF80600A7
:104630009047206A401C761C20624E45F4DB2078AF
:10464000C0060AD52046FFF7D7FE06E0D4E90121CF
:1046500030209047206A401C2062381EA7F10107D5
:10466000F4DC07E0D4E9012118F805009047206A3E
:10467000401C2062281EA5F10105F3DC2046FFF74F
:10468000D1FE2078000602D50220BDE8F087012087
:10469000FBE7000001694A1C02610878704700B519
:1046A0008FB0CDE901310021059105497944CDE96B
:1046B000031011466846FFF7F3FE0FB000BD00007F
:1046C000E5FFFFFF0A6802F8010B0A60704700006F
:1046D000074B70B50D467B44FFF7E1FF04462846C3
:1046E00000F008F810B14FF0FF3070BD204670BDEB
:1046F00035E9FFFF007B00F080007047754600F051
:1047000029F8AE4605006946534620F00700854665
:1047100018B020B5FBF7CAFFBDE820404FF00006F7
:104720004FF000074FF000084FF0000B21F0070199
:10473000AC46ACE8C009ACE8C009ACE8C009ACE8DC
:10474000C0098D4670470446AFF300802046FBF752
:1047500069FD0000004870471001002030380A2829
:1047600001D20120704700207047000010B591EA87
:10477000030F48BF83F0004300F16E83841A71EB8E
:10478000030C05D2121943EB0C03001B61EB0C0167
:10479000DFF824E14FEA1154A4EB135C1EEA430F47
:1047A00018BF9EEA445F73D023EA0E03DCF1200EAB
:1047B00021EA045143F4801332D322FA0CFE10EBA9
:1047C0000E0023FA0CFE41EB0E01CCF1200E03FA91
:1047D0000EFE10EB0E0051F10001B1F5801FCCF17F
:1047E000200E32D201EB045112FA0EF2BDE8104055
:1047F00058BF7047401C38BF5FEA420218BF70477D
:10480000002814BF20F0010041F100014FEA4103EC
:1048100013F5001F38BF7047A1F1C04100F00EBB77
:10482000012A43EB0302ACF1200CDCF11F0E32BF76
:104830004FF0000E23FA0CF310EB030041EB045190
:10484000B4EB115FD0D0A1EB045101F58011490800
:104850005FEA300001EB04510ED350F1000038BF85
:1048600012FA0EFE08D1BDE81040C9E7401C38BF5F
:104870005FEA4202CAD1C3E7BDE810404FEA4103F4
:1048800013F5001F38BF7047A1F1C04100F0D6BA40
:104890009EEA445F08D011EA5E0FBDE8104004BFF5
:1048A00001F0004100207047BDE8104070B500F0F5
:1048B00077FA00BF64FBBE3E0000E0FF2DE9C04177
:1048C00030B4DFF8A0C23CEA111418BF3CEA13145C
:1048D00000F0EC8081EA03051CEA111444EAD57467
:1048E00018BF1CEA131500F0C780A4EB05044FF0B5
:1048F000004545EAC12145EAC32341EA505143EA54
:10490000525304F17F74994204F500344FEAC020F9
:104910004FEAC22208BF904200F09C804FEA136524
:104920000FF24016765D4FEA134506FB05F7C7F117
:10493000807706FB07F74FEAD737A7FB0368764275
:10494000C8F58038A7FB06CE38BFA8F1010807FBE1
:1049500008E64FF0000EA6FB028CE6FB03CEDCF16E
:10496000000CCEF1004E38BFAEF1010EA6FB0C5884
:104970004FF000074FF00005E6FB0E87A1FB08C6CD
:10498000A0FB07CE16EB0E0645F10005E1FB07651F
:1049900015F1E04E7EBFA4F580345FEA46066D4116
:1049A00016F1800745F100054FEA17274FEA066622
:1049B00047EA0567A6F1DE46B6F1805F4FEA1525A6
:1049C0001FD9384624F0010C05EBC471BCF1FE6F11
:1049D00001EB0C1102D8F0BCBDE8008124425CBFA1
:1049E00001F5801E9EEAC47F02D4F0BCBDE80081C0
:1049F000244238D4F0BCA1F1C041BDE8004100F030
:104A00001DBA4FEAD22242EA43524FEAD323A7FB10
:104A100002864FEAD02040EA415007FB03661EEAB7
:104A20000E0F4FEAD12105FB026658BFA6EB0056D8
:104A3000B6EB00564FEA520E4EEAC37E18EB0E0E4E
:104A400056EB530EBDD518EB02085E417F1C55F1A5
:104A50000005B6E74FF480154FF000074FF0000651
:104A60004FF00008ADE7F0BC4FF0000001F1C0418D
:104A700001F00041BDE8008111EA0C1F0CEA13159A
:104A800000D00CE013EA0C1F00F025804FF000006E
:104A9000F0BC81EA030101F00041BDE80081F0BCF7
:104AA000BDE8004181EA030100F0C8B9F0BCBDE8EF
:104AB000004170B500F074F9097EFC3E00F007B8C3
:104AC00081EA03014FF0000001F00041704781EAE4
:104AD000030100F0B3B9F0BCBDE800414FF00000A5
:104AE00021497047FFFDFBF9F7F5F4F2F0EEEDEB2D
:104AF000E9E8E6E4E3E1E0DEDDDBDAD8D7D5D4D3DC
:104B0000D1D0CFCDCCCBCAC8C7C6C5C4C2C1C0BF27
:104B1000BEBDBCBBBAB9B8B7B6B5B4B3B2B1B0AF2D
:104B2000AEADACABAAA9A8A8A7A6A5A4A3A3A2A111
:104B3000A09F9F9E9D9C9C9B9A99999897979695CC
:104B400095949393929191908F8F8E8E8D8C8C8B68
:104B50008B8A8989888887878685858484838382F0
:104B6000828181800000FF070000F87F4FEA410347
:104B70004FEA5353A3F58063D3F11E03C8BFD3F1AB
:104B8000210C0CDD4FF0004242EAC12242EA5052B1
:104B900032FA03FC8CEAE17CACEBE1707047102B3D
:104BA000C4BF0020704703F5787CBCF1FF3F04D000
:104BB0006FF0004282EA2100704770B500F0F0F813
:104BC0004992248000207047F2E700004FEA115319
:104BD000A3F58063D3F11E03A8BFD3F1200C08DB3B
:104BE0004FF0004242EAC12252EA505232FA03F038
:104BF000704709420BD4102BC4BF0020704703F547
:104C0000787CBCF1FF3F05D04FF0FF3070474FF08C
:104C10000000704770B500F0C3F800BF49922480CF
:104C200000207047F0E7B0FA80F310FA03F10AD0E1
:104C3000C3F11D0303F580634FEA41504FEA03526D
:104C400002EBD12170474FF000007047DFF848C1F8
:104C500070B51CEA111E1EBF1CEA13159EEA0C0F4C
:104C600095EA0C0F00F06F8081EA030423EA4C13ED
:104C70004EEAD47E21EA4C1141F4801143F48013B2
:104C8000AE44A1FB024CA0FB0365AEF17F7E36195A
:104C900055EB0C05A1FB034C4CF10003A0FB021CDF
:104CA00016EB0C06654153F10003094218BF46F0AC
:104CB000010613F4007F0BD14FEA03314FEA0530B0
:104CC000340341EA155140EA16506FF003020AE03E
:104CD0004FEAC3214FEAC520F40241EA555140EAA8
:104CE00056506FF0020202EB2E4201EB025585EAAC
:104CF000CE710AD05FEA440C18BF24F0004450F192
:104D0000000041F1000120EAD47040F2FE7C6245CF
:104D100000D270BDA84214BF4FF080444FF0404411
:104D2000002E08BF0024BEF1806FA8BFA1F1C041D2
:104D3000BDE8704080F282804FF0000001F1C04178
:104D400001F0004170479EEA0C0F0CEA131518BFE2
:104D500095EA0C0F06D04FF0000081EA030E0EF02A
:104D6000004170BD00F01CF88900013E00F007B85A
:104D700000F009B84FEA430C5FEA5C5C08D081EAB6
:104D8000030100F05BB84FEA410C5FEA5C5CF6D1CE
:104D90004FF00000014970470000FF070000F87F56
:104DA0000EF1020E2EF0030E5EF8046B364205D4AF
:104DB000012A43EB030515F5001F12D8012841EB2A
:104DC000010C1CF5001F0CD80ED14FEAD17C15F553
:104DD000001F0CEB4C0C0CF1020C08BF4CEBD37C0D
:104DE00004E04FF0080C01E04FEAD37C0CEB4C05DB
:104DF00026FA05F606F00706B6F1040C06D20EEB0D
:104E0000860CBDE870404CF0010C6047DFE80CF008
:104E1000090B02024FF000414FF00000A1F5002104
:104E200070BD19461046012851EB010418BFD4F596
:104E3000001484BF002001F0004170BD0808A0F5F7
:104E400000114FEA3101704710B591EA030F48BFD6
:104E500083F000433FF592AC841A71EB030C07D248
:104E600012198CF0004C43EB0C03001B61EB0C019E
:104E7000DFF8A4E14FEA1154A4EB135C1EEA430FE0
:104E800018BF9EEA445F00F0B08023EA6E035242EE
:104E900021EA0451C3EB6E0338BF5B1EDCF1200E28
:104EA00025D322FA0CFE10EB0E0043FA0CFE41EB68
:104EB0000E01CCF1200E03FA0EFE10EB0E0051F1A4
:104EC0000001CCF1200E29D412FA0EF201EB0451AC
:104ED000BDE8104058BF7047401C1CBFB2F1004FE6
:104EE000704700280CBF491C20F00100704712EBEE
:104EF000020E43EB030218BF4FF0010E4EEA4202CE
:104F0000ACF1200CDCF11E0E54D943FA0CFE10EB70
:104F10000E0051F1FF31CCF11E0ED5D50EF1010E70
:104F200012FA0EFE404141EB010101EB445C5FEAE5
:104F30005C5C10D910EBDE7001EB045138BFBEF1A0
:104F4000004FBDE8104018BF704700280CBF491C37
:104F500020F00100704730D24FEAD42C11F5001137
:104F600024F400641BD0B1FA81F20B3AA41AA41EF7
:104F7000D2F12003914030FA03F31943904001EB42
:104F8000CC71002C01EB0451BDE81040A8BF704764
:104F900001F1C0414FF0000001F000417047B0FA4C
:104FA00080F310FA03F100D110BDE41A173C480554
:104FB000C90AE4E701EB045110BD491001EB0451AB
:104FC000BDE810404FEA300002E04FF000017047AA
:104FD0004A0008BF0042F8D0B2F5001F28BF704752
:104FE00001F000414FF0000070479EEA445F07D097
:104FF00011EA5E0FBDE8104004BF00210020704799
:10500000BDE8104070B5FFF7CBFE00BF40DFF63EB5
:1050100083F00041104670470000E0FF43004FEA74
:10502000D30C4FEA3C0C43401FBF40070CF16051CA
:1050300013F0FE4F70471CF0006F03D100200CF0FE
:10504000004170470CF0004343EA507010B540EA4D
:10505000CC0000F00EF800BF000000924FEA000103
:10506000FFF7ECBE4FF000414FF00000A1F500212A
:1050700070470EF1020E2EF0030E5EF8044B244230
:1050800004D44FEA4102B2F17F4F11D84FEA4003F6
:10509000B3F17F4F0CD80ED14FEAD07CB2F17F4FE5
:1050A0000CEB4C0C0CF1020C08BF4CEBD17C04E077
:1050B0004FF0080C01E04FEAD17C0CEB4C0324FAD2
:1050C00003F404F00704B4F1040C06D20EEB840CD4
:1050D000BDE810404CF0010C6047DFE80CF0070819
:1050E00002024FF00040A0F5800010BD08464200CB
:1050F00018BFD2F1807288BF00F0004010BD4FF0A1
:105100004070E1EE100A70470F0000000F00000031
:10511000FF0000000F0000000F0000000F00000063
:10512000000000000000000000000000000000007F
:10513000000000003F4000000000000000003000C0
:10514000400030004000000009000BC03D000BC0D3
:105150003D00090018C024407FE02240318000005B
:10516000180024C01B000D803240018003801C40C9
:1051700027401C8007400040100060000000000035
:10518000000000000000000000001F8020404020C0
:105190000000402020401F800000000009000600A1
:1051A0001F80060009000000040004003F80040086
:1051B000040000000010006000000000000000007B
:1051C000040004000400040004000000000000408B
:1051D0000000000000000000002001C006003800B0
:1051E000400000001F802040204020401F80000021
:1051F000000010403FC000400000000018C02140E7
:1052000022402440184000001080204024402440C8
:105210001B80000002000D0011003FC00140000093
:105220003C80244024402440238000001F802440F0
:1052300024403440038000003000200027C03800A4
:10524000200000001B802440244024401B800000DC
:105250001C0022C0224022401F80000000000000ED
:105260000840000000000000000000000460000092
:1052700000000000000004000A00110020804040EF
:105280000900090009000900090000000000404071
:10529000208011000A000400180020002340240090
:1052A000180000001F802040274029401F400000B8
:1052B000004007C039000F0001C0004020403FC03F
:1052C000244024401B8000001F80204020402040BC
:1052D0003080000020403FC0204020401F80000060
:1052E00020403FC024402E4030C0000020403FC03E
:1052F00024402E00300000000F001080204022408B
:105300003380020020403FC0040004003FC0204022
:10531000204020403FC0204020400000006020206E
:1053200020203FC02000200020403FC024400B0030
:1053300030C0204020403FC020400040004000C01E
:105340003FC03C0003C03C003FC0000020403FC0C5
:105350000C4023003FC020001F8020402040204000
:105360001F80000020403FC024402400180000009F
:105370001F802140214020E01FA0000020403FC0AE
:105380002440260019C0004018C024402440224078
:1053900031800000300020403FC02040300000003D
:1053A00020003F80004000403F80200020003E0061
:1053B00001C0070038002000380007C03C0007C0CB
:1053C00038000000204039C0060039C020400000ED
:1053D0002000384007C0384020000000304021C085
:1053E0002640384020C00000000000007FE0402040
:1053F00040200000000070000C000380004000000E
:105400000000402040207FE000000000000020005D
:1054100040002000000000000010001000100010EC
:10542000001000100000000040000000000000001C
:10543000000002800540054003C0004020003FC03E
:105440000440044003800000000003800440044046
:105450000640000000000380044024403FC000409C
:1054600000000380054005400340000000000440A8
:105470001FC0244024402000000002E005500550D9
:105480000650042020403FC00440040003C00040F8
:105490000000044027C00040000000000010001081
:1054A000041027E00000000020403FC0014007003A
:1054B00004C00440204020403FC0004000400000A5
:1054C00007C0040007C0040003C00000044007C078
:1054D0000440040003C00040000003800440044076
:1054E00003800000041007F0045004400380000013
:1054F000000003800440045007F00010044007C07F
:105500000240040004000000000006400540054081
:1055100004C00000000004001F80044000400000A0
:10552000040007800040044007C00040040007005A
:1055300004C0018006000400060001C0070001C08D
:1055400006000000044006C0010006C00440000040
:105550000410071004E0018006000400000004406D
:1055600005C00640044000000000000004007BE08D
:1055700040200000000000000000FFF000000000DC
:10558000000040207BE0040000000000400080009C
:10559000400020002000400000000000000000004B
:1055A00000000000000000000000000000001FCC10
:1055B000000C000000000000000008003000600047
:1055C0000800300060000000022003FC1E200220C2
:1055D00003FC1E200220000000000E1811043FFFF3
:1055E00010840C78000000000F0010840F3800C0F9
:1055F000077818840078000000780F8410C4112404
:105600000E9800E4008400080800680070000000A4
:10561000000000000000000000000000000007E0A3
:10562000181820044002000000004002200418184E
:1056300007E00000000000000240024001800FF07F
:1056400001800240024000000080008000800FF8CE
:1056500000800080008000000001000D000E0000AE
:1056600000000000000000000000008000800080BA
:1056700000800080008000800000000C000C000012
:10568000000000000000000000000006001800609C
:105690000180060018002000000007F00808100430
:1056A0001004080807F000000000080408041FFCAC
:1056B000000400040000000000000E0C1014102470
:1056C000104411840E0C000000000C18100411048A
:1056D000110412880C700000000000E00320042474
:1056E00008241FFC0024000000001F9810841104EF
:1056F0001104108810700000000007F008881104E1
:10570000110418880070000000001C00100010FC3C
:1057100013001C001000000000000E38114410841B
:10572000108411440E38000000000700088C10445B
:105730001044088807F00000000000000000030C7F
:10574000030C000000000000000000000001010642
:105750000000000000000000000000800140022066
:105760000410080810040000022002200220022079
:10577000022002200220000000001004080804108B
:10578000022001400080000000000E001200100CFA
:10579000106C10800F00000003E00C1813E41424B8
:1057A00017C4082807D000000004003C03C41C40B4
:1057B000074000E4001C000410041FFC1104110445
:1057C00011040E880070000003E00C18100410048F
:1057D000100410081C10000010041FFC100410041A
:1057E0001004080807F0000010041FFC1104110445
:1057F00017C410040818000010041FFC1104110045
:1058000017C010000800000003E00C18100410047A
:1058100010441C780040000010041FFC108400801D
:10582000008010841FFC10040000100410041FFCF2
:10583000100410040000000000030001100110011A
:105840001FFE10001000000010041FFC1104038054
:105850001464181C1004000010041FFC1004000441
:1058600000040004000C000010041FFC1F0000FCDA
:105870001F001FFC1004000010041FFC0C04030098
:1058800000E010181FFC100007F0080810041004B6
:105890001004080807F0000010041FFC108410809A
:1058A000108010800F00000007F00818102410244A
:1058B000101C080A07F2000010041FFC110411005C
:1058C00011C011300E0C000400000E1C11041084D5
:1058D000108410441C3800001800100010041FFC35
:1058E000100410001800000010001FF8100400043D
:1058F000000410041FF8100010001E0011E0001C2E
:10590000007013801C0010001FC0103C00E01F003E
:1059100000E0103C1FC000001004180C163401C039
:1059200001C01634180C100410001C00130400FCF5
:1059300013041C00100000000804101C10641084E4
:1059400013041C04101800000000000000007FFE7B
:105950004002400240020000000030000C000380C2
:105960000060001C000300000000400240024002F2
:105970007FFE00000000000000000000200040004A
:105980004000400020000000000100010001000173
:105990000001000100010001000040004000200063
:1059A00000000000000000000000009801240144F5
:1059B0000144014400FC000410001FFC00880104A5
:1059C00001040088007000000000007000880104DD
:1059D0000104010400880000000000700088010438
:1059E000010411081FFC0004000000F801440144F8
:1059F0000144014400C800000000010401040FFC40
:105A00001104110411001800000000D60129012919
:105A1000012901C90106000010041FFC00840100D7
:105A20000100010400FC000400000104190419FC39
:105A30000004000400000000000000030001010158
:105A4000190119FE0000000010041FFC0024004092
:105A500001B4010C010400000000100410041FFC3C
:105A60000004000400000000010401FC0104010026
:105A700001FC0104010000FC010401FC00840100A0
:105A80000100010400FC0004000000F8010401040E
:105A90000104010400F80000010101FF0085010478
:105AA00001040088007000000000007000880104FC
:105AB0000104010501FF00010104010401FC00844F
:105AC0000104010001800000000000CC0124012439
:105AD000012401240198000000000100010007F8E2
